{
  "_format": "hh-sol-artifact-1",
  "contractName": "EventTicketFactory",
  "sourceName": "contracts/EventTicketFactory.sol",
  "abi": [
    {
      "anonymous": false,
      "inputs": [
        {
          "indexed": true,
          "internalType": "address",
          "name": "eventContractAddress",
          "type": "address"
        },
        {
          "indexed": true,
          "internalType": "address",
          "name": "creator",
          "type": "address"
        },
        {
          "indexed": false,
          "internalType": "string",
          "name": "erc721Name",
          "type": "string"
        },
        {
          "indexed": false,
          "internalType": "string",
          "name": "eventName",
          "type": "string"
        },
        {
          "indexed": false,
          "internalType": "uint256",
          "name": "date",
          "type": "uint256"
        },
        {
          "indexed": false,
          "internalType": "uint256",
          "name": "totalTickets",
          "type": "uint256"
        },
        {
          "indexed": false,
          "internalType": "uint256",
          "name": "ticketPriceInUSDC",
          "type": "uint256"
        },
        {
          "indexed": false,
          "internalType": "address",
          "name": "usdcTokenAddress",
          "type": "address"
        },
        {
          "indexed": false,
          "internalType": "string",
          "name": "eventImageIPFSPath",
          "type": "string"
        }
      ],
      "name": "EventCreated",
      "type": "event"
    },
    {
      "inputs": [
        {
          "internalType": "string",
          "name": "_erc721Name",
          "type": "string"
        },
        {
          "internalType": "string",
          "name": "_erc721Symbol",
          "type": "string"
        },
        {
          "internalType": "string",
          "name": "_eventName",
          "type": "string"
        },
        {
          "internalType": "uint256",
          "name": "_date",
          "type": "uint256"
        },
        {
          "internalType": "uint256",
          "name": "_totalTickets",
          "type": "uint256"
        },
        {
          "internalType": "uint256",
          "name": "_ticketPriceInUSDC",
          "type": "uint256"
        },
        {
          "internalType": "uint256",
          "name": "_ticketLimit",
          "type": "uint256"
        },
        {
          "internalType": "address",
          "name": "_usdcTokenAddress",
          "type": "address"
        },
        {
          "internalType": "string",
          "name": "_eventImageIPFSPath",
          "type": "string"
        }
      ],
      "name": "createEvent",
      "outputs": [],
      "stateMutability": "nonpayable",
      "type": "function"
    },
    {
      "inputs": [
        {
          "internalType": "uint256",
          "name": "",
          "type": "uint256"
        }
      ],
      "name": "events",
      "outputs": [
        {
          "internalType": "contract EventTicket",
          "name": "",
          "type": "address"
        }
      ],
      "stateMutability": "view",
      "type": "function"
    },
    {
      "inputs": [],
      "name": "getAllEventAddresses",
      "outputs": [
        {
          "internalType": "address[]",
          "name": "",
          "type": "address[]"
        }
      ],
      "stateMutability": "view",
      "type": "function"
    },
    {
      "inputs": [],
      "name": "getAllEvents",
      "outputs": [
        {
          "internalType": "contract EventTicket[]",
          "name": "",
          "type": "address[]"
        }
      ],
      "stateMutability": "view",
      "type": "function"
    }
  ],
  "bytecode": "0x608060405234801561001057600080fd5b506177d7806100206000396000f3fe60806040523480156200001157600080fd5b5060043610620000525760003560e01c80630b79143014620000575780630bd52317146200008d5780632505607b14620000af578063c27a500d14620000cf575b600080fd5b6200007560048036038101906200006f9190620006c3565b620000f1565b60405162000084919062000780565b60405180910390f35b6200009762000131565b604051620000a691906200087f565b60405180910390f35b620000cd6004803603810190620000c7919062000a36565b62000249565b005b620000d9620005d6565b604051620000e8919062000c4e565b60405180910390f35b600081815481106200010257600080fd5b906000526020600020016000915054906101000a900473ffffffffffffffffffffffffffffffffffffffff1681565b60606000808054905067ffffffffffffffff811115620001565762000155620008be565b5b604051908082528060200260200182016040528015620001855781602001602082028036833780820191505090505b50905060005b600080549050811015620002415760008181548110620001b057620001af62000c72565b5b9060005260206000200160009054906101000a900473ffffffffffffffffffffffffffffffffffffffff16828281518110620001f157620001f062000c72565b5b602002602001019073ffffffffffffffffffffffffffffffffffffffff16908173ffffffffffffffffffffffffffffffffffffffff16815250508080620002389062000cd0565b9150506200018b565b508091505090565b600089511162000290576040517f08c379a0000000000000000000000000000000000000000000000000000000008152600401620002879062000d7e565b60405180910390fd5b6000885111620002d7576040517f08c379a0000000000000000000000000000000000000000000000000000000008152600401620002ce9062000df0565b60405180910390fd5b60008751116200031e576040517f08c379a0000000000000000000000000000000000000000000000000000000008152600401620003159062000e62565b60405180910390fd5b42861162000363576040517f08c379a00000000000000000000000000000000000000000000000000000000081526004016200035a9062000ed4565b60405180910390fd5b60008511620003a9576040517f08c379a0000000000000000000000000000000000000000000000000000000008152600401620003a09062000f6c565b60405180910390fd5b60008311620003ef576040517f08c379a0000000000000000000000000000000000000000000000000000000008152600401620003e69062001004565b60405180910390fd5b8483111562000435576040517f08c379a00000000000000000000000000000000000000000000000000000000081526004016200042c906200109c565b60405180910390fd5b600073ffffffffffffffffffffffffffffffffffffffff168273ffffffffffffffffffffffffffffffffffffffff1603620004a7576040517f08c379a00000000000000000000000000000000000000000000000000000000081526004016200049e9062001134565b60405180910390fd5b6000898989898989898989604051620004c09062000666565b620004d499989796959493929190620011f0565b604051809103906000f080158015620004f1573d6000803e3d6000fd5b5090506000819080600181540180825580915050600190039060005260206000200160009091909190916101000a81548173ffffffffffffffffffffffffffffffffffffffff021916908373ffffffffffffffffffffffffffffffffffffffff1602179055503373ffffffffffffffffffffffffffffffffffffffff168173ffffffffffffffffffffffffffffffffffffffff167f33afa7f1e1a6660444c6f94cdd35f215e4fac76c24665ee9f72643351eae8e0f8c8b8b8b8b8a8a604051620005c29796959493929190620012ab565b60405180910390a350505050505050505050565b606060008054806020026020016040519081016040528092919081815260200182805480156200065c57602002820191906000526020600020905b8160009054906101000a900473ffffffffffffffffffffffffffffffffffffffff1673ffffffffffffffffffffffffffffffffffffffff168152602001906001019080831162000611575b5050505050905090565b616464806200133e83390190565b6000604051905090565b600080fd5b600080fd5b6000819050919050565b6200069d8162000688565b8114620006a957600080fd5b50565b600081359050620006bd8162000692565b92915050565b600060208284031215620006dc57620006db6200067e565b5b6000620006ec84828501620006ac565b91505092915050565b600073ffffffffffffffffffffffffffffffffffffffff82169050919050565b6000819050919050565b6000620007406200073a6200073484620006f5565b62000715565b620006f5565b9050919050565b600062000754826200071f565b9050919050565b6000620007688262000747565b9050919050565b6200077a816200075b565b82525050565b60006020820190506200079760008301846200076f565b92915050565b600081519050919050565b600082825260208201905092915050565b6000819050602082019050919050565b6000620007d682620006f5565b9050919050565b620007e881620007c9565b82525050565b6000620007fc8383620007dd565b60208301905092915050565b6000602082019050919050565b600062000822826200079d565b6200082e8185620007a8565b93506200083b83620007b9565b8060005b8381101562000872578151620008568882620007ee565b9750620008638362000808565b9250506001810190506200083f565b5085935050505092915050565b600060208201905081810360008301526200089b818462000815565b905092915050565b600080fd5b600080fd5b6000601f19601f8301169050919050565b7f4e487b7100000000000000000000000000000000000000000000000000000000600052604160045260246000fd5b620008f882620008ad565b810181811067ffffffffffffffff821117156200091a5762000919620008be565b5b80604052505050565b60006200092f62000674565b90506200093d8282620008ed565b919050565b600067ffffffffffffffff82111562000960576200095f620008be565b5b6200096b82620008ad565b9050602081019050919050565b82818337600083830152505050565b60006200099e620009988462000942565b62000923565b905082815260208101848484011115620009bd57620009bc620008a8565b5b620009ca84828562000978565b509392505050565b600082601f830112620009ea57620009e9620008a3565b5b8135620009fc84826020860162000987565b91505092915050565b62000a1081620007c9565b811462000a1c57600080fd5b50565b60008135905062000a308162000a05565b92915050565b60008060008060008060008060006101208a8c03121562000a5c5762000a5b6200067e565b5b60008a013567ffffffffffffffff81111562000a7d5762000a7c62000683565b5b62000a8b8c828d01620009d2565b99505060208a013567ffffffffffffffff81111562000aaf5762000aae62000683565b5b62000abd8c828d01620009d2565b98505060408a013567ffffffffffffffff81111562000ae15762000ae062000683565b5b62000aef8c828d01620009d2565b975050606062000b028c828d01620006ac565b965050608062000b158c828d01620006ac565b95505060a062000b288c828d01620006ac565b94505060c062000b3b8c828d01620006ac565b93505060e062000b4e8c828d0162000a1f565b9250506101008a013567ffffffffffffffff81111562000b735762000b7262000683565b5b62000b818c828d01620009d2565b9150509295985092959850929598565b600081519050919050565b6000819050602082019050919050565b62000bb7816200075b565b82525050565b600062000bcb838362000bac565b60208301905092915050565b6000602082019050919050565b600062000bf18262000b91565b62000bfd8185620007a8565b935062000c0a8362000b9c565b8060005b8381101562000c4157815162000c25888262000bbd565b975062000c328362000bd7565b92505060018101905062000c0e565b5085935050505092915050565b6000602082019050818103600083015262000c6a818462000be4565b905092915050565b7f4e487b7100000000000000000000000000000000000000000000000000000000600052603260045260246000fd5b7f4e487b7100000000000000000000000000000000000000000000000000000000600052601160045260246000fd5b600062000cdd8262000688565b91507fffffffffffffffffffffffffffffffffffffffffffffffffffffffffffffffff820362000d125762000d1162000ca1565b5b600182019050919050565b600082825260208201905092915050565b7f455243373231206e616d652063616e6e6f7420626520656d7074790000000000600082015250565b600062000d66601b8362000d1d565b915062000d738262000d2e565b602082019050919050565b6000602082019050818103600083015262000d998162000d57565b9050919050565b7f4552433732312073796d626f6c2063616e6e6f7420626520656d707479000000600082015250565b600062000dd8601d8362000d1d565b915062000de58262000da0565b602082019050919050565b6000602082019050818103600083015262000e0b8162000dc9565b9050919050565b7f4576656e74206e616d652063616e6e6f7420626520656d707479000000000000600082015250565b600062000e4a601a8362000d1d565b915062000e578262000e12565b602082019050919050565b6000602082019050818103600083015262000e7d8162000e3b565b9050919050565b7f4576656e742064617465206d75737420626520696e2074686520667574757265600082015250565b600062000ebc60208362000d1d565b915062000ec98262000e84565b602082019050919050565b6000602082019050818103600083015262000eef8162000ead565b9050919050565b7f546f74616c207469636b657473206d757374206265206772656174657220746860008201527f616e203000000000000000000000000000000000000000000000000000000000602082015250565b600062000f5460248362000d1d565b915062000f618262000ef6565b604082019050919050565b6000602082019050818103600083015262000f878162000f45565b9050919050565b7f5469636b6574206c696d6974206d75737420626520677265617465722074686160008201527f6e20300000000000000000000000000000000000000000000000000000000000602082015250565b600062000fec60238362000d1d565b915062000ff98262000f8e565b604082019050919050565b600060208201905081810360008301526200101f8162000fdd565b9050919050565b7f5469636b6574206c696d69742063616e6e6f742065786365656420746f74616c60008201527f207469636b657473000000000000000000000000000000000000000000000000602082015250565b60006200108460288362000d1d565b9150620010918262001026565b604082019050919050565b60006020820190508181036000830152620010b78162001075565b9050919050565b7f5553444320746f6b656e20616464726573732063616e6e6f74206265207a657260008201527f6f00000000000000000000000000000000000000000000000000000000000000602082015250565b60006200111c60218362000d1d565b91506200112982620010be565b604082019050919050565b600060208201905081810360008301526200114f816200110d565b9050919050565b600081519050919050565b60005b838110156200118157808201518184015260208101905062001164565b60008484015250505050565b60006200119a8262001156565b620011a6818562000d1d565b9350620011b881856020860162001161565b620011c381620008ad565b840191505092915050565b620011d98162000688565b82525050565b620011ea81620007c9565b82525050565b60006101208201905081810360008301526200120d818c6200118d565b9050818103602083015262001223818b6200118d565b9050818103604083015262001239818a6200118d565b90506200124a6060830189620011ce565b620012596080830188620011ce565b6200126860a0830187620011ce565b6200127760c0830186620011ce565b6200128660e0830185620011df565b8181036101008301526200129b81846200118d565b90509a9950505050505050505050565b600060e0820190508181036000830152620012c7818a6200118d565b90508181036020830152620012dd81896200118d565b9050620012ee6040830188620011ce565b620012fd6060830187620011ce565b6200130c6080830186620011ce565b6200131b60a0830185620011df565b81810360c08301526200132f81846200118d565b90509897505050505050505056fe60a06040523480156200001157600080fd5b506040516200646438038062006464833981810160405281019062000037919062000735565b33898981600090816200004b919062000ad1565b5080600190816200005d919062000ad1565b505050600073ffffffffffffffffffffffffffffffffffffffff168173ffffffffffffffffffffffffffffffffffffffff1603620000d55760006040517f1e4fbdf7000000000000000000000000000000000000000000000000000000008152600401620000cc919062000bc9565b60405180910390fd5b620000e6816200043c60201b60201c565b5060008951116200012e576040517f08c379a0000000000000000000000000000000000000000000000000000000008152600401620001259062000c47565b60405180910390fd5b600088511162000175576040517f08c379a00000000000000000000000000000000000000000000000000000000081526004016200016c9062000cb9565b60405180910390fd5b6000875111620001bc576040517f08c379a0000000000000000000000000000000000000000000000000000000008152600401620001b39062000d2b565b60405180910390fd5b42861162000201576040517f08c379a0000000000000000000000000000000000000000000000000000000008152600401620001f89062000d9d565b60405180910390fd5b6000851162000247576040517f08c379a00000000000000000000000000000000000000000000000000000000081526004016200023e9062000e35565b60405180910390fd5b600083116200028d576040517f08c379a0000000000000000000000000000000000000000000000000000000008152600401620002849062000ecd565b60405180910390fd5b84831115620002d3576040517f08c379a0000000000000000000000000000000000000000000000000000000008152600401620002ca9062000f65565b60405180910390fd5b600073ffffffffffffffffffffffffffffffffffffffff168273ffffffffffffffffffffffffffffffffffffffff160362000345576040517f08c379a00000000000000000000000000000000000000000000000000000000081526004016200033c9062000ffd565b60405180910390fd5b6040518060a0016040528088815260200187815260200186815260200160008152602001600015158152506007600082015181600001908162000389919062000ad1565b5060208201518160010155604082015181600201556060820151816003015560808201518160040160006101000a81548160ff02191690831515021790555090505083608081815250508260108190555081601160006101000a81548173ffffffffffffffffffffffffffffffffffffffff021916908373ffffffffffffffffffffffffffffffffffffffff16021790555080601290816200042c919062000ad1565b505050505050505050506200101f565b6000600660009054906101000a900473ffffffffffffffffffffffffffffffffffffffff16905081600660006101000a81548173ffffffffffffffffffffffffffffffffffffffff021916908373ffffffffffffffffffffffffffffffffffffffff1602179055508173ffffffffffffffffffffffffffffffffffffffff168173ffffffffffffffffffffffffffffffffffffffff167f8be0079c531659141344cd1fd0a4f28419497f9722a3daafe3b4186f6b6457e060405160405180910390a35050565b6000604051905090565b600080fd5b600080fd5b600080fd5b600080fd5b6000601f19601f8301169050919050565b7f4e487b7100000000000000000000000000000000000000000000000000000000600052604160045260246000fd5b6200056b8262000520565b810181811067ffffffffffffffff821117156200058d576200058c62000531565b5b80604052505050565b6000620005a262000502565b9050620005b0828262000560565b919050565b600067ffffffffffffffff821115620005d357620005d262000531565b5b620005de8262000520565b9050602081019050919050565b60005b838110156200060b578082015181840152602081019050620005ee565b60008484015250505050565b60006200062e6200062884620005b5565b62000596565b9050828152602081018484840111156200064d576200064c6200051b565b5b6200065a848285620005eb565b509392505050565b600082601f8301126200067a576200067962000516565b5b81516200068c84826020860162000617565b91505092915050565b6000819050919050565b620006aa8162000695565b8114620006b657600080fd5b50565b600081519050620006ca816200069f565b92915050565b600073ffffffffffffffffffffffffffffffffffffffff82169050919050565b6000620006fd82620006d0565b9050919050565b6200070f81620006f0565b81146200071b57600080fd5b50565b6000815190506200072f8162000704565b92915050565b60008060008060008060008060006101208a8c0312156200075b576200075a6200050c565b5b60008a015167ffffffffffffffff8111156200077c576200077b62000511565b5b6200078a8c828d0162000662565b99505060208a015167ffffffffffffffff811115620007ae57620007ad62000511565b5b620007bc8c828d0162000662565b98505060408a015167ffffffffffffffff811115620007e057620007df62000511565b5b620007ee8c828d0162000662565b9750506060620008018c828d01620006b9565b9650506080620008148c828d01620006b9565b95505060a0620008278c828d01620006b9565b94505060c06200083a8c828d01620006b9565b93505060e06200084d8c828d016200071e565b9250506101008a015167ffffffffffffffff81111562000872576200087162000511565b5b620008808c828d0162000662565b9150509295985092959850929598565b600081519050919050565b7f4e487b7100000000000000000000000000000000000000000000000000000000600052602260045260246000fd5b60006002820490506001821680620008e357607f821691505b602082108103620008f957620008f86200089b565b5b50919050565b60008190508160005260206000209050919050565b60006020601f8301049050919050565b600082821b905092915050565b600060088302620009637fffffffffffffffffffffffffffffffffffffffffffffffffffffffffffffffff8262000924565b6200096f868362000924565b95508019841693508086168417925050509392505050565b6000819050919050565b6000620009b2620009ac620009a68462000695565b62000987565b62000695565b9050919050565b6000819050919050565b620009ce8362000991565b620009e6620009dd82620009b9565b84845462000931565b825550505050565b600090565b620009fd620009ee565b62000a0a818484620009c3565b505050565b5b8181101562000a325762000a26600082620009f3565b60018101905062000a10565b5050565b601f82111562000a815762000a4b81620008ff565b62000a568462000914565b8101602085101562000a66578190505b62000a7e62000a758562000914565b83018262000a0f565b50505b505050565b600082821c905092915050565b600062000aa66000198460080262000a86565b1980831691505092915050565b600062000ac1838362000a93565b9150826002028217905092915050565b62000adc8262000890565b67ffffffffffffffff81111562000af85762000af762000531565b5b62000b048254620008ca565b62000b1182828562000a36565b600060209050601f83116001811462000b49576000841562000b34578287015190505b62000b40858262000ab3565b86555062000bb0565b601f19841662000b5986620008ff565b60005b8281101562000b835784890151825560018201915060208501945060208101905062000b5c565b8683101562000ba3578489015162000b9f601f89168262000a93565b8355505b6001600288020188555050505b505050505050565b62000bc381620006f0565b82525050565b600060208201905062000be0600083018462000bb8565b92915050565b600082825260208201905092915050565b7f455243373231206e616d652063616e6e6f7420626520656d7074790000000000600082015250565b600062000c2f601b8362000be6565b915062000c3c8262000bf7565b602082019050919050565b6000602082019050818103600083015262000c628162000c20565b9050919050565b7f4552433732312073796d626f6c2063616e6e6f7420626520656d707479000000600082015250565b600062000ca1601d8362000be6565b915062000cae8262000c69565b602082019050919050565b6000602082019050818103600083015262000cd48162000c92565b9050919050565b7f4576656e74206e616d652063616e6e6f7420626520656d707479000000000000600082015250565b600062000d13601a8362000be6565b915062000d208262000cdb565b602082019050919050565b6000602082019050818103600083015262000d468162000d04565b9050919050565b7f4576656e742064617465206d75737420626520696e2074686520667574757265600082015250565b600062000d8560208362000be6565b915062000d928262000d4d565b602082019050919050565b6000602082019050818103600083015262000db88162000d76565b9050919050565b7f546f74616c207469636b657473206d757374206265206772656174657220746860008201527f616e203000000000000000000000000000000000000000000000000000000000602082015250565b600062000e1d60248362000be6565b915062000e2a8262000dbf565b604082019050919050565b6000602082019050818103600083015262000e508162000e0e565b9050919050565b7f5469636b6574206c696d6974206d75737420626520677265617465722074686160008201527f6e20300000000000000000000000000000000000000000000000000000000000602082015250565b600062000eb560238362000be6565b915062000ec28262000e57565b604082019050919050565b6000602082019050818103600083015262000ee88162000ea6565b9050919050565b7f5469636b6574206c696d69742063616e6e6f742065786365656420746f74616c60008201527f207469636b657473000000000000000000000000000000000000000000000000602082015250565b600062000f4d60288362000be6565b915062000f5a8262000eef565b604082019050919050565b6000602082019050818103600083015262000f808162000f3e565b9050919050565b7f5553444320746f6b656e20616464726573732063616e6e6f74206265207a657260008201527f6f00000000000000000000000000000000000000000000000000000000000000602082015250565b600062000fe560218362000be6565b915062000ff28262000f87565b604082019050919050565b60006020820190508181036000830152620010188162000fd6565b9050919050565b6080516154146200105060003960008181610e000152818161193701528181612099015261213e01526154146000f3fe6080604052600436106102305760003560e01c8063679ebf1a1161012e578063b88d4fde116100ab578063edca914c1161006f578063edca914c14610879578063f1386cd614610883578063f2fde38b146108b2578063fb6c9537146108db578063fb87774c146108f257610230565b8063b88d4fde1461076a578063c87b56dd14610793578063e2bb3ccf146107d0578063e82de7e8146107ff578063e985e9c51461083c57610230565b80638da5cb5b116100f25780638da5cb5b146106a957806395d89b41146106d4578063a22cb465146106ff578063ac32935d14610728578063b5545a3c1461075357610230565b8063679ebf1a146105c45780636deb5cb1146105ed57806370a0823114610618578063715018a61461065557806384bd32641461066c57610230565b806324600fc3116101bc57806355f804b31161018057806355f804b3146104cb5780635e321dfc146104f45780636031a52f1461051f5780636352211e1461054a57806365c2944e1461058757610230565b806324600fc3146103e85780632b6b0633146103ff578063336ccba51461043c5780633d3751ae1461047957806342842e0e146104a257610230565b8063095ea7b311610203578063095ea7b3146103175780630a15fa8b1461034057806311eac855146103695780631209b1f61461039457806323b872dd146103bf57610230565b806301ffc9a7146102355780630484a22f1461027257806306fdde03146102af578063081812fc146102da575b600080fd5b34801561024157600080fd5b5061025c60048036038101906102579190613632565b61092f565b604051610269919061367a565b60405180910390f35b34801561027e57600080fd5b50610299600480360381019061029491906136f3565b610a11565b6040516102a691906137e8565b60405180910390f35b3480156102bb57600080fd5b506102c4610b1e565b6040516102d1919061389a565b60405180910390f35b3480156102e657600080fd5b5061030160048036038101906102fc91906138e8565b610bb0565b60405161030e9190613924565b60405180910390f35b34801561032357600080fd5b5061033e6004803603810190610339919061393f565b610bcc565b005b34801561034c57600080fd5b50610367600480360381019061036291906138e8565b610be2565b005b34801561037557600080fd5b5061037e610dd8565b60405161038b91906139de565b60405180910390f35b3480156103a057600080fd5b506103a9610dfe565b6040516103b69190613a08565b60405180910390f35b3480156103cb57600080fd5b506103e660048036038101906103e19190613a23565b610e22565b005b3480156103f457600080fd5b506103fd610f24565b005b34801561040b57600080fd5b50610426600480360381019061042191906136f3565b611198565b604051610433919061367a565b60405180910390f35b34801561044857600080fd5b50610463600480360381019061045e91906138e8565b6111b8565b604051610470919061367a565b60405180910390f35b34801561048557600080fd5b506104a0600480360381019061049b91906138e8565b6111d8565b005b3480156104ae57600080fd5b506104c960048036038101906104c49190613a23565b6112c8565b005b3480156104d757600080fd5b506104f260048036038101906104ed9190613bab565b6112e8565b005b34801561050057600080fd5b50610509611347565b6040516105169190613a08565b60405180910390f35b34801561052b57600080fd5b5061053461134d565b6040516105419190613a08565b60405180910390f35b34801561055657600080fd5b50610571600480360381019061056c91906138e8565b611353565b60405161057e9190613924565b60405180910390f35b34801561059357600080fd5b506105ae60048036038101906105a991906136f3565b611365565b6040516105bb919061367a565b60405180910390f35b3480156105d057600080fd5b506105eb60048036038101906105e69190613bf4565b6113bb565b005b3480156105f957600080fd5b506106026114f4565b60405161060f919061389a565b60405180910390f35b34801561062457600080fd5b5061063f600480360381019061063a91906136f3565b611582565b60405161064c9190613a08565b60405180910390f35b34801561066157600080fd5b5061066a61163c565b005b34801561067857600080fd5b50610693600480360381019061068e91906136f3565b611650565b6040516106a09190613a08565b60405180910390f35b3480156106b557600080fd5b506106be611668565b6040516106cb9190613924565b60405180910390f35b3480156106e057600080fd5b506106e9611692565b6040516106f6919061389a565b60405180910390f35b34801561070b57600080fd5b5061072660048036038101906107219190613c60565b611724565b005b34801561073457600080fd5b5061073d61173a565b60405161074a919061389a565b60405180910390f35b34801561075f57600080fd5b506107686117cc565b005b34801561077657600080fd5b50610791600480360381019061078c9190613d41565b611bcf565b005b34801561079f57600080fd5b506107ba60048036038101906107b591906138e8565b611bf4565b6040516107c7919061389a565b60405180910390f35b3480156107dc57600080fd5b506107e5611c5d565b6040516107f6959493929190613dc4565b60405180910390f35b34801561080b57600080fd5b506108266004803603810190610821919061393f565b611d2c565b604051610833919061367a565b60405180910390f35b34801561084857600080fd5b50610863600480360381019061085e9190613e1e565b611db5565b604051610870919061367a565b60405180910390f35b610881611e49565b005b34801561088f57600080fd5b5061089861229e565b6040516108a9959493929190613dc4565b60405180910390f35b3480156108be57600080fd5b506108d960048036038101906108d491906136f3565b612357565b005b3480156108e757600080fd5b506108f06123dd565b005b3480156108fe57600080fd5b50610919600480360381019061091491906138e8565b6124d6565b604051610926919061367a565b60405180910390f35b60007f80ac58cd000000000000000000000000000000000000000000000000000000007bffffffffffffffffffffffffffffffffffffffffffffffffffffffff1916827bffffffffffffffffffffffffffffffffffffffffffffffffffffffff191614806109fa57507f5b5e139f000000000000000000000000000000000000000000000000000000007bffffffffffffffffffffffffffffffffffffffffffffffffffffffff1916827bffffffffffffffffffffffffffffffffffffffffffffffffffffffff1916145b80610a0a5750610a0982612548565b5b9050919050565b60606000610a1e83611582565b905060008167ffffffffffffffff811115610a3c57610a3b613a80565b5b604051908082528060200260200182016040528015610a6a5781602001602082028036833780820191505090505b5090506000805b600f54811015610b1257610a84816125b2565b8015610ac357508573ffffffffffffffffffffffffffffffffffffffff16610aab82611353565b73ffffffffffffffffffffffffffffffffffffffff16145b15610aff5780838381518110610adc57610adb613e5e565b5b6020026020010181815250508180610af390613ebc565b92505083820315610b12575b8080610b0a90613ebc565b915050610a71565b50819350505050919050565b606060008054610b2d90613f33565b80601f0160208091040260200160405190810160405280929190818152602001828054610b5990613f33565b8015610ba65780601f10610b7b57610100808354040283529160200191610ba6565b820191906000526020600020905b815481529060010190602001808311610b8957829003601f168201915b5050505050905090565b6000610bbb826125c0565b50610bc582612648565b9050919050565b610bde8282610bd9612685565b61268d565b5050565b610bea61269f565b600760040160009054906101000a900460ff1615610c3d576040517f08c379a0000000000000000000000000000000000000000000000000000000008152600401610c3490613fb0565b60405180910390fd5b610c46816125b2565b610c85576040517f08c379a0000000000000000000000000000000000000000000000000000000008152600401610c7c9061401c565b60405180910390fd5b600073ffffffffffffffffffffffffffffffffffffffff16610ca682611353565b73ffffffffffffffffffffffffffffffffffffffff1603610cfc576040517f08c379a0000000000000000000000000000000000000000000000000000000008152600401610cf3906140ae565b60405180910390fd5b600d600082815260200190815260200160002060009054906101000a900460ff1615610d5d576040517f08c379a0000000000000000000000000000000000000000000000000000000008152600401610d5490614140565b60405180910390fd5b6001600d600083815260200190815260200160002060006101000a81548160ff021916908315150217905550610d9281611353565b73ffffffffffffffffffffffffffffffffffffffff16817ff23b1427e2e3d04905029561ed001085506f5bc45ebd846d84b01c489ff6710f60405160405180910390a350565b601160009054906101000a900473ffffffffffffffffffffffffffffffffffffffff1681565b7f000000000000000000000000000000000000000000000000000000000000000081565b600073ffffffffffffffffffffffffffffffffffffffff168273ffffffffffffffffffffffffffffffffffffffff1603610e945760006040517f64a0ae92000000000000000000000000000000000000000000000000000000008152600401610e8b9190613924565b60405180910390fd5b6000610ea88383610ea3612685565b612726565b90508373ffffffffffffffffffffffffffffffffffffffff168173ffffffffffffffffffffffffffffffffffffffff1614610f1e578382826040517f64283d7b000000000000000000000000000000000000000000000000000000008152600401610f1593929190614160565b60405180910390fd5b50505050565b610f2c61269f565b600760040160009054906101000a900460ff1615610f7f576040517f08c379a0000000000000000000000000000000000000000000000000000000008152600401610f769061422f565b60405180910390fd5b6007600101544211610fc6576040517f08c379a0000000000000000000000000000000000000000000000000000000008152600401610fbd906142c1565b60405180910390fd5b6000601160009054906101000a900473ffffffffffffffffffffffffffffffffffffffff1673ffffffffffffffffffffffffffffffffffffffff166370a08231306040518263ffffffff1660e01b81526004016110239190613924565b602060405180830381865afa158015611040573d6000803e3d6000fd5b505050506040513d601f19601f8201168201806040525081019061106491906142f6565b9050600081116110a9576040517f08c379a00000000000000000000000000000000000000000000000000000000081526004016110a09061436f565b60405180910390fd5b6000601160009054906101000a900473ffffffffffffffffffffffffffffffffffffffff1673ffffffffffffffffffffffffffffffffffffffff1663a9059cbb6110f1611668565b846040518363ffffffff1660e01b815260040161110f92919061438f565b6020604051808303816000875af115801561112e573d6000803e3d6000fd5b505050506040513d601f19601f8201168201806040525081019061115291906143cd565b905080611194576040517f08c379a000000000000000000000000000000000000000000000000000000000815260040161118b90614446565b60405180910390fd5b5050565b600e6020528060005260406000206000915054906101000a900460ff1681565b600d6020528060005260406000206000915054906101000a900460ff1681565b6111e061269f565b600760040160009054906101000a900460ff1615611233576040517f08c379a000000000000000000000000000000000000000000000000000000000815260040161122a906144d8565b60405180910390fd5b60008111611276576040517f08c379a000000000000000000000000000000000000000000000000000000000815260040161126d9061456a565b60405180910390fd5b6007600201548111156112be576040517f08c379a00000000000000000000000000000000000000000000000000000000081526004016112b5906145fc565b60405180910390fd5b8060108190555050565b6112e383838360405180602001604052806000815250611bcf565b505050565b6112f061269f565b6000815111611334576040517f08c379a000000000000000000000000000000000000000000000000000000000815260040161132b90614668565b60405180910390fd5b8060139081611343919061482a565b5050565b60105481565b600f5481565b600061135e826125c0565b9050919050565b6000600e60008373ffffffffffffffffffffffffffffffffffffffff1673ffffffffffffffffffffffffffffffffffffffff16815260200190815260200160002060009054906101000a900460ff169050919050565b600760040160009054906101000a900460ff161561140e576040517f08c379a00000000000000000000000000000000000000000000000000000000081526004016114059061496e565b60405180910390fd5b3373ffffffffffffffffffffffffffffffffffffffff1661142e83611353565b73ffffffffffffffffffffffffffffffffffffffff1614611484576040517f08c379a000000000000000000000000000000000000000000000000000000000815260040161147b906149da565b60405180910390fd5b600d600083815260200190815260200160002060009054906101000a900460ff16156114e5576040517f08c379a00000000000000000000000000000000000000000000000000000000081526004016114dc90614a6c565b60405180910390fd5b6114f0338284612940565b5050565b6012805461150190613f33565b80601f016020809104026020016040519081016040528092919081815260200182805461152d90613f33565b801561157a5780601f1061154f5761010080835404028352916020019161157a565b820191906000526020600020905b81548152906001019060200180831161155d57829003601f168201915b505050505081565b60008073ffffffffffffffffffffffffffffffffffffffff168273ffffffffffffffffffffffffffffffffffffffff16036115f55760006040517f89c62b640000000000000000000000000000000000000000000000000000000081526004016115ec9190613924565b60405180910390fd5b600360008373ffffffffffffffffffffffffffffffffffffffff1673ffffffffffffffffffffffffffffffffffffffff168152602001908152602001600020549050919050565b61164461269f565b61164e6000612aad565b565b600c6020528060005260406000206000915090505481565b6000600660009054906101000a900473ffffffffffffffffffffffffffffffffffffffff16905090565b6060600180546116a190613f33565b80601f01602080910402602001604051908101604052809291908181526020018280546116cd90613f33565b801561171a5780601f106116ef5761010080835404028352916020019161171a565b820191906000526020600020905b8154815290600101906020018083116116fd57829003601f168201915b5050505050905090565b61173661172f612685565b8383612b73565b5050565b60606012805461174990613f33565b80601f016020809104026020016040519081016040528092919081815260200182805461177590613f33565b80156117c25780601f10611797576101008083540402835291602001916117c2565b820191906000526020600020905b8154815290600101906020018083116117a557829003601f168201915b5050505050905090565b600760040160009054906101000a900460ff1661181e576040517f08c379a000000000000000000000000000000000000000000000000000000000815260040161181590614afe565b60405180910390fd5b600e60003373ffffffffffffffffffffffffffffffffffffffff1673ffffffffffffffffffffffffffffffffffffffff16815260200190815260200160002060009054906101000a900460ff16156118ab576040517f08c379a00000000000000000000000000000000000000000000000000000000081526004016118a290614b90565b60405180910390fd5b6000600c60003373ffffffffffffffffffffffffffffffffffffffff1673ffffffffffffffffffffffffffffffffffffffff16815260200190815260200160002054905060008111611932576040517f08c379a000000000000000000000000000000000000000000000000000000000815260040161192990614c22565b60405180910390fd5b6000817f00000000000000000000000000000000000000000000000000000000000000006119609190614c42565b90506001600e60003373ffffffffffffffffffffffffffffffffffffffff1673ffffffffffffffffffffffffffffffffffffffff16815260200190815260200160002060006101000a81548160ff02191690831515021790555080601160009054906101000a900473ffffffffffffffffffffffffffffffffffffffff1673ffffffffffffffffffffffffffffffffffffffff166370a08231306040518263ffffffff1660e01b8152600401611a169190613924565b602060405180830381865afa158015611a33573d6000803e3d6000fd5b505050506040513d601f19601f82011682018060405250810190611a5791906142f6565b1015611a98576040517f08c379a0000000000000000000000000000000000000000000000000000000008152600401611a8f90614cf6565b60405180910390fd5b6000601160009054906101000a900473ffffffffffffffffffffffffffffffffffffffff1673ffffffffffffffffffffffffffffffffffffffff1663a9059cbb33846040518363ffffffff1660e01b8152600401611af792919061438f565b6020604051808303816000875af1158015611b16573d6000803e3d6000fd5b505050506040513d601f19601f82011682018060405250810190611b3a91906143cd565b905080611b7c576040517f08c379a0000000000000000000000000000000000000000000000000000000008152600401611b7390614d62565b60405180910390fd5b3373ffffffffffffffffffffffffffffffffffffffff167f358fe4192934d3bf28ae181feda1f4bd08ca67f5e2fad55582cce5eb67304ae983604051611bc29190613a08565b60405180910390a2505050565b611bda848484610e22565b611bee611be5612685565b85858585612ce2565b50505050565b6060611bff826125c0565b506000611c0a612e93565b90506000815111611c2a5760405180602001604052806000815250611c55565b80611c3484612f25565b604051602001611c45929190614dbe565b6040516020818303038152906040525b915050919050565b60606000806000806007600001600760010154600760020154600760030154600760040160009054906101000a900460ff16848054611c9b90613f33565b80601f0160208091040260200160405190810160405280929190818152602001828054611cc790613f33565b8015611d145780601f10611ce957610100808354040283529160200191611d14565b820191906000526020600020905b815481529060010190602001808311611cf757829003601f168201915b50505050509450945094509450945094509091929394565b6000611d37826125b2565b611d76576040517f08c379a0000000000000000000000000000000000000000000000000000000008152600401611d6d9061401c565b60405180910390fd5b8273ffffffffffffffffffffffffffffffffffffffff16611d9683611353565b73ffffffffffffffffffffffffffffffffffffffff1614905092915050565b6000600560008473ffffffffffffffffffffffffffffffffffffffff1673ffffffffffffffffffffffffffffffffffffffff16815260200190815260200160002060008373ffffffffffffffffffffffffffffffffffffffff1673ffffffffffffffffffffffffffffffffffffffff16815260200190815260200160002060009054906101000a900460ff16905092915050565b600760040160009054906101000a900460ff1615611e9c576040517f08c379a0000000000000000000000000000000000000000000000000000000008152600401611e9390614e2e565b60405180910390fd5b6007600101544210611ee3576040517f08c379a0000000000000000000000000000000000000000000000000000000008152600401611eda90614e9a565b60405180910390fd5b60076002015460076003015410611f2f576040517f08c379a0000000000000000000000000000000000000000000000000000000008152600401611f2690614f06565b60405180910390fd5b60003414611f72576040517f08c379a0000000000000000000000000000000000000000000000000000000008152600401611f6990614f72565b60405180910390fd5b601054600c60003373ffffffffffffffffffffffffffffffffffffffff1673ffffffffffffffffffffffffffffffffffffffff1681526020019081526020016000205410611ff5576040517f08c379a0000000000000000000000000000000000000000000000000000000008152600401611fec90614fde565b60405180910390fd5b6000601160009054906101000a900473ffffffffffffffffffffffffffffffffffffffff1673ffffffffffffffffffffffffffffffffffffffff1663dd62ed3e33306040518363ffffffff1660e01b8152600401612054929190614ffe565b602060405180830381865afa158015612071573d6000803e3d6000fd5b505050506040513d601f19601f8201168201806040525081019061209591906142f6565b90507f00000000000000000000000000000000000000000000000000000000000000008110156120fa576040517f08c379a00000000000000000000000000000000000000000000000000000000081526004016120f1906150bf565b60405180910390fd5b6000601160009054906101000a900473ffffffffffffffffffffffffffffffffffffffff1673ffffffffffffffffffffffffffffffffffffffff166323b872dd33307f00000000000000000000000000000000000000000000000000000000000000006040518463ffffffff1660e01b815260040161217b939291906150df565b6020604051808303816000875af115801561219a573d6000803e3d6000fd5b505050506040513d601f19601f820116820180604052508101906121be91906143cd565b905080612200576040517f08c379a00000000000000000000000000000000000000000000000000000000081526004016121f7906151ae565b60405180910390fd5b6000600f5490506122113382612ff3565b600f600081548092919061222490613ebc565b91905055506007600301600081548092919061223f90613ebc565b9190505550600c60003373ffffffffffffffffffffffffffffffffffffffff1673ffffffffffffffffffffffffffffffffffffffff168152602001908152602001600020600081548092919061229490613ebc565b9190505550505050565b60078060000180546122af90613f33565b80601f01602080910402602001604051908101604052809291908181526020018280546122db90613f33565b80156123285780601f106122fd57610100808354040283529160200191612328565b820191906000526020600020905b81548152906001019060200180831161230b57829003601f168201915b5050505050908060010154908060020154908060030154908060040160009054906101000a900460ff16905085565b61235f61269f565b600073ffffffffffffffffffffffffffffffffffffffff168173ffffffffffffffffffffffffffffffffffffffff16036123d15760006040517f1e4fbdf70000000000000000000000000000000000000000000000000000000081526004016123c89190613924565b60405180910390fd5b6123da81612aad565b50565b6123e561269f565b600760040160009054906101000a900460ff1615612438576040517f08c379a000000000000000000000000000000000000000000000000000000000815260040161242f9061521a565b60405180910390fd5b600760010154421061247f576040517f08c379a0000000000000000000000000000000000000000000000000000000008152600401612476906152ac565b60405180910390fd5b6001600760040160006101000a81548160ff0219169083151502179055507fceaf11772900fe569752a0207c8639fb8228eb8663456dc9eaa3a08f927a8705426040516124cc9190613a08565b60405180910390a1565b60006124e1826125b2565b612520576040517f08c379a00000000000000000000000000000000000000000000000000000000081526004016125179061401c565b60405180910390fd5b600d600083815260200190815260200160002060009054906101000a900460ff169050919050565b60007f01ffc9a7000000000000000000000000000000000000000000000000000000007bffffffffffffffffffffffffffffffffffffffffffffffffffffffff1916827bffffffffffffffffffffffffffffffffffffffffffffffffffffffff1916149050919050565b6000600f5482109050919050565b6000806125cc836130ec565b9050600073ffffffffffffffffffffffffffffffffffffffff168173ffffffffffffffffffffffffffffffffffffffff160361263f57826040517f7e2732890000000000000000000000000000000000000000000000000000000081526004016126369190613a08565b60405180910390fd5b80915050919050565b60006004600083815260200190815260200160002060009054906101000a900473ffffffffffffffffffffffffffffffffffffffff169050919050565b600033905090565b61269a8383836001613129565b505050565b6126a7612685565b73ffffffffffffffffffffffffffffffffffffffff166126c5611668565b73ffffffffffffffffffffffffffffffffffffffff1614612724576126e8612685565b6040517f118cdaa700000000000000000000000000000000000000000000000000000000815260040161271b9190613924565b60405180910390fd5b565b600080612732846130ec565b9050600073ffffffffffffffffffffffffffffffffffffffff168373ffffffffffffffffffffffffffffffffffffffff1614612774576127738184866132ee565b5b600073ffffffffffffffffffffffffffffffffffffffff168173ffffffffffffffffffffffffffffffffffffffff1614612805576127b6600085600080613129565b6001600360008373ffffffffffffffffffffffffffffffffffffffff1673ffffffffffffffffffffffffffffffffffffffff168152602001908152602001600020600082825403925050819055505b600073ffffffffffffffffffffffffffffffffffffffff168573ffffffffffffffffffffffffffffffffffffffff1614612888576001600360008773ffffffffffffffffffffffffffffffffffffffff1673ffffffffffffffffffffffffffffffffffffffff168152602001908152602001600020600082825401925050819055505b846002600086815260200190815260200160002060006101000a81548173ffffffffffffffffffffffffffffffffffffffff021916908373ffffffffffffffffffffffffffffffffffffffff160217905550838573ffffffffffffffffffffffffffffffffffffffff168273ffffffffffffffffffffffffffffffffffffffff167fddf252ad1be2c89b69c2b068fc378daa952ba7f163c4a11628f55a4df523b3ef60405160405180910390a4809150509392505050565b600073ffffffffffffffffffffffffffffffffffffffff168273ffffffffffffffffffffffffffffffffffffffff16036129b25760006040517f64a0ae920000000000000000000000000000000000000000000000000000000081526004016129a99190613924565b60405180910390fd5b60006129c083836000612726565b9050600073ffffffffffffffffffffffffffffffffffffffff168173ffffffffffffffffffffffffffffffffffffffff1603612a3357816040517f7e273289000000000000000000000000000000000000000000000000000000008152600401612a2a9190613a08565b60405180910390fd5b8373ffffffffffffffffffffffffffffffffffffffff168173ffffffffffffffffffffffffffffffffffffffff1614612aa7578382826040517f64283d7b000000000000000000000000000000000000000000000000000000008152600401612a9e93929190614160565b60405180910390fd5b50505050565b6000600660009054906101000a900473ffffffffffffffffffffffffffffffffffffffff16905081600660006101000a81548173ffffffffffffffffffffffffffffffffffffffff021916908373ffffffffffffffffffffffffffffffffffffffff1602179055508173ffffffffffffffffffffffffffffffffffffffff168173ffffffffffffffffffffffffffffffffffffffff167f8be0079c531659141344cd1fd0a4f28419497f9722a3daafe3b4186f6b6457e060405160405180910390a35050565b600073ffffffffffffffffffffffffffffffffffffffff168273ffffffffffffffffffffffffffffffffffffffff1603612be457816040517f5b08ba18000000000000000000000000000000000000000000000000000000008152600401612bdb9190613924565b60405180910390fd5b80600560008573ffffffffffffffffffffffffffffffffffffffff1673ffffffffffffffffffffffffffffffffffffffff16815260200190815260200160002060008473ffffffffffffffffffffffffffffffffffffffff1673ffffffffffffffffffffffffffffffffffffffff16815260200190815260200160002060006101000a81548160ff0219169083151502179055508173ffffffffffffffffffffffffffffffffffffffff168373ffffffffffffffffffffffffffffffffffffffff167f17307eab39ab6107e8899845ad3d59bd9653f200f220920489ca2b5937696c3183604051612cd5919061367a565b60405180910390a3505050565b60008373ffffffffffffffffffffffffffffffffffffffff163b1115612e8c578273ffffffffffffffffffffffffffffffffffffffff1663150b7a02868685856040518563ffffffff1660e01b8152600401612d419493929190615321565b6020604051808303816000875af1925050508015612d7d57506040513d601f19601f82011682018060405250810190612d7a9190615382565b60015b612e01573d8060008114612dad576040519150601f19603f3d011682016040523d82523d6000602084013e612db2565b606091505b506000815103612df957836040517f64a0ae92000000000000000000000000000000000000000000000000000000008152600401612df09190613924565b60405180910390fd5b805181602001fd5b63150b7a0260e01b7bffffffffffffffffffffffffffffffffffffffffffffffffffffffff1916817bffffffffffffffffffffffffffffffffffffffffffffffffffffffff191614612e8a57836040517f64a0ae92000000000000000000000000000000000000000000000000000000008152600401612e819190613924565b60405180910390fd5b505b5050505050565b606060138054612ea290613f33565b80601f0160208091040260200160405190810160405280929190818152602001828054612ece90613f33565b8015612f1b5780601f10612ef057610100808354040283529160200191612f1b565b820191906000526020600020905b815481529060010190602001808311612efe57829003601f168201915b5050505050905090565b606060006001612f34846133b2565b01905060008167ffffffffffffffff811115612f5357612f52613a80565b5b6040519080825280601f01601f191660200182016040528015612f855781602001600182028036833780820191505090505b509050600082602001820190505b600115612fe8578080600190039150507f3031323334353637383961626364656600000000000000000000000000000000600a86061a8153600a8581612fdc57612fdb6153af565b5b04945060008503612f93575b819350505050919050565b600073ffffffffffffffffffffffffffffffffffffffff168273ffffffffffffffffffffffffffffffffffffffff16036130655760006040517f64a0ae9200000000000000000000000000000000000000000000000000000000815260040161305c9190613924565b60405180910390fd5b600061307383836000612726565b9050600073ffffffffffffffffffffffffffffffffffffffff168173ffffffffffffffffffffffffffffffffffffffff16146130e75760006040517f73c6ac6e0000000000000000000000000000000000000000000000000000000081526004016130de9190613924565b60405180910390fd5b505050565b60006002600083815260200190815260200160002060009054906101000a900473ffffffffffffffffffffffffffffffffffffffff169050919050565b80806131625750600073ffffffffffffffffffffffffffffffffffffffff168273ffffffffffffffffffffffffffffffffffffffff1614155b15613296576000613172846125c0565b9050600073ffffffffffffffffffffffffffffffffffffffff168373ffffffffffffffffffffffffffffffffffffffff16141580156131dd57508273ffffffffffffffffffffffffffffffffffffffff168173ffffffffffffffffffffffffffffffffffffffff1614155b80156131f057506131ee8184611db5565b155b1561323257826040517fa9fbf51f0000000000000000000000000000000000000000000000000000000081526004016132299190613924565b60405180910390fd5b811561329457838573ffffffffffffffffffffffffffffffffffffffff168273ffffffffffffffffffffffffffffffffffffffff167f8c5be1e5ebec7d5bd14f71427d1e84f3dd0314c0f7b2291e5b200ac8c7c3b92560405160405180910390a45b505b836004600085815260200190815260200160002060006101000a81548173ffffffffffffffffffffffffffffffffffffffff021916908373ffffffffffffffffffffffffffffffffffffffff16021790555050505050565b6132f9838383613505565b6133ad57600073ffffffffffffffffffffffffffffffffffffffff168373ffffffffffffffffffffffffffffffffffffffff160361336e57806040517f7e2732890000000000000000000000000000000000000000000000000000000081526004016133659190613a08565b60405180910390fd5b81816040517f177e802f0000000000000000000000000000000000000000000000000000000081526004016133a492919061438f565b60405180910390fd5b505050565b600080600090507a184f03e93ff9f4daa797ed6e38ed64bf6a1f0100000000000000008310613410577a184f03e93ff9f4daa797ed6e38ed64bf6a1f0100000000000000008381613406576134056153af565b5b0492506040810190505b6d04ee2d6d415b85acef8100000000831061344d576d04ee2d6d415b85acef81000000008381613443576134426153af565b5b0492506020810190505b662386f26fc10000831061347c57662386f26fc100008381613472576134716153af565b5b0492506010810190505b6305f5e10083106134a5576305f5e100838161349b5761349a6153af565b5b0492506008810190505b61271083106134ca5761271083816134c0576134bf6153af565b5b0492506004810190505b606483106134ed57606483816134e3576134e26153af565b5b0492506002810190505b600a83106134fc576001810190505b80915050919050565b60008073ffffffffffffffffffffffffffffffffffffffff168373ffffffffffffffffffffffffffffffffffffffff16141580156135bd57508273ffffffffffffffffffffffffffffffffffffffff168473ffffffffffffffffffffffffffffffffffffffff16148061357e575061357d8484611db5565b5b806135bc57508273ffffffffffffffffffffffffffffffffffffffff166135a483612648565b73ffffffffffffffffffffffffffffffffffffffff16145b5b90509392505050565b6000604051905090565b600080fd5b600080fd5b60007fffffffff0000000000000000000000000000000000000000000000000000000082169050919050565b61360f816135da565b811461361a57600080fd5b50565b60008135905061362c81613606565b92915050565b600060208284031215613648576136476135d0565b5b60006136568482850161361d565b91505092915050565b60008115159050919050565b6136748161365f565b82525050565b600060208201905061368f600083018461366b565b92915050565b600073ffffffffffffffffffffffffffffffffffffffff82169050919050565b60006136c082613695565b9050919050565b6136d0816136b5565b81146136db57600080fd5b50565b6000813590506136ed816136c7565b92915050565b600060208284031215613709576137086135d0565b5b6000613717848285016136de565b91505092915050565b600081519050919050565b600082825260208201905092915050565b6000819050602082019050919050565b6000819050919050565b61375f8161374c565b82525050565b60006137718383613756565b60208301905092915050565b6000602082019050919050565b600061379582613720565b61379f818561372b565b93506137aa8361373c565b8060005b838110156137db5781516137c28882613765565b97506137cd8361377d565b9250506001810190506137ae565b5085935050505092915050565b60006020820190508181036000830152613802818461378a565b905092915050565b600081519050919050565b600082825260208201905092915050565b60005b83811015613844578082015181840152602081019050613829565b60008484015250505050565b6000601f19601f8301169050919050565b600061386c8261380a565b6138768185613815565b9350613886818560208601613826565b61388f81613850565b840191505092915050565b600060208201905081810360008301526138b48184613861565b905092915050565b6138c58161374c565b81146138d057600080fd5b50565b6000813590506138e2816138bc565b92915050565b6000602082840312156138fe576138fd6135d0565b5b600061390c848285016138d3565b91505092915050565b61391e816136b5565b82525050565b60006020820190506139396000830184613915565b92915050565b60008060408385031215613956576139556135d0565b5b6000613964858286016136de565b9250506020613975858286016138d3565b9150509250929050565b6000819050919050565b60006139a461399f61399a84613695565b61397f565b613695565b9050919050565b60006139b682613989565b9050919050565b60006139c8826139ab565b9050919050565b6139d8816139bd565b82525050565b60006020820190506139f360008301846139cf565b92915050565b613a028161374c565b82525050565b6000602082019050613a1d60008301846139f9565b92915050565b600080600060608486031215613a3c57613a3b6135d0565b5b6000613a4a868287016136de565b9350506020613a5b868287016136de565b9250506040613a6c868287016138d3565b9150509250925092565b600080fd5b600080fd5b7f4e487b7100000000000000000000000000000000000000000000000000000000600052604160045260246000fd5b613ab882613850565b810181811067ffffffffffffffff82111715613ad757613ad6613a80565b5b80604052505050565b6000613aea6135c6565b9050613af68282613aaf565b919050565b600067ffffffffffffffff821115613b1657613b15613a80565b5b613b1f82613850565b9050602081019050919050565b82818337600083830152505050565b6000613b4e613b4984613afb565b613ae0565b905082815260208101848484011115613b6a57613b69613a7b565b5b613b75848285613b2c565b509392505050565b600082601f830112613b9257613b91613a76565b5b8135613ba2848260208601613b3b565b91505092915050565b600060208284031215613bc157613bc06135d0565b5b600082013567ffffffffffffffff811115613bdf57613bde6135d5565b5b613beb84828501613b7d565b91505092915050565b60008060408385031215613c0b57613c0a6135d0565b5b6000613c19858286016138d3565b9250506020613c2a858286016136de565b9150509250929050565b613c3d8161365f565b8114613c4857600080fd5b50565b600081359050613c5a81613c34565b92915050565b60008060408385031215613c7757613c766135d0565b5b6000613c85858286016136de565b9250506020613c9685828601613c4b565b9150509250929050565b600067ffffffffffffffff821115613cbb57613cba613a80565b5b613cc482613850565b9050602081019050919050565b6000613ce4613cdf84613ca0565b613ae0565b905082815260208101848484011115613d0057613cff613a7b565b5b613d0b848285613b2c565b509392505050565b600082601f830112613d2857613d27613a76565b5b8135613d38848260208601613cd1565b91505092915050565b60008060008060808587031215613d5b57613d5a6135d0565b5b6000613d69878288016136de565b9450506020613d7a878288016136de565b9350506040613d8b878288016138d3565b925050606085013567ffffffffffffffff811115613dac57613dab6135d5565b5b613db887828801613d13565b91505092959194509250565b600060a0820190508181036000830152613dde8188613861565b9050613ded60208301876139f9565b613dfa60408301866139f9565b613e0760608301856139f9565b613e14608083018461366b565b9695505050505050565b60008060408385031215613e3557613e346135d0565b5b6000613e43858286016136de565b9250506020613e54858286016136de565b9150509250929050565b7f4e487b7100000000000000000000000000000000000000000000000000000000600052603260045260246000fd5b7f4e487b7100000000000000000000000000000000000000000000000000000000600052601160045260246000fd5b6000613ec78261374c565b91507fffffffffffffffffffffffffffffffffffffffffffffffffffffffffffffffff8203613ef957613ef8613e8d565b5b600182019050919050565b7f4e487b7100000000000000000000000000000000000000000000000000000000600052602260045260246000fd5b60006002820490506001821680613f4b57607f821691505b602082108103613f5e57613f5d613f04565b5b50919050565b7f4576656e7420686173206265656e2063616e63656c65642e0000000000000000600082015250565b6000613f9a601883613815565b9150613fa582613f64565b602082019050919050565b60006020820190508181036000830152613fc981613f8d565b9050919050565b7f5469636b657420494420646f6573206e6f742065786973742e00000000000000600082015250565b6000614006601983613815565b915061401182613fd0565b602082019050919050565b6000602082019050818103600083015261403581613ff9565b9050919050565b7f5469636b657420646f6573206e6f74206861766520612076616c6964206f776e60008201527f65722e0000000000000000000000000000000000000000000000000000000000602082015250565b6000614098602383613815565b91506140a38261403c565b604082019050919050565b600060208201905081810360008301526140c78161408b565b9050919050565b7f5469636b65742068617320616c7265616479206265656e206d61726b6564206160008201527f7320757365642e00000000000000000000000000000000000000000000000000602082015250565b600061412a602783613815565b9150614135826140ce565b604082019050919050565b600060208201905081810360008301526141598161411d565b9050919050565b60006060820190506141756000830186613915565b61418260208301856139f9565b61418f6040830184613915565b949350505050565b7f43616e6e6f742077697468647261772066756e64732066726f6d20612063616e60008201527f63656c6564206576656e743b20726566756e6473206d6967687420626520706560208201527f6e64696e672e0000000000000000000000000000000000000000000000000000604082015250565b6000614219604683613815565b915061422482614197565b606082019050919050565b600060208201905081810360008301526142488161420c565b9050919050565b7f43616e6e6f742077697468647261772066756e6473206265666f72652074686560008201527f206576656e7420686173206f636375727265642e000000000000000000000000602082015250565b60006142ab603483613815565b91506142b68261424f565b604082019050919050565b600060208201905081810360008301526142da8161429e565b9050919050565b6000815190506142f0816138bc565b92915050565b60006020828403121561430c5761430b6135d0565b5b600061431a848285016142e1565b91505092915050565b7f4e6f20555344432066756e647320746f2077697468647261772e000000000000600082015250565b6000614359601a83613815565b915061436482614323565b602082019050919050565b600060208201905081810360008301526143888161434c565b9050919050565b60006040820190506143a46000830185613915565b6143b160208301846139f9565b9392505050565b6000815190506143c781613c34565b92915050565b6000602082840312156143e3576143e26135d0565b5b60006143f1848285016143b8565b91505092915050565b7f55534443207769746864726177616c206661696c65642e000000000000000000600082015250565b6000614430601783613815565b915061443b826143fa565b602082019050919050565b6000602082019050818103600083015261445f81614423565b9050919050565b7f4576656e7420686173206265656e2063616e63656c65642c2063616e6e6f742060008201527f6368616e6765206c696d69740000000000000000000000000000000000000000602082015250565b60006144c2602c83613815565b91506144cd82614466565b604082019050919050565b600060208201905081810360008301526144f1816144b5565b9050919050565b7f4e6577207469636b6574206c696d6974206d757374206265206772656174657260008201527f207468616e203000000000000000000000000000000000000000000000000000602082015250565b6000614554602783613815565b915061455f826144f8565b604082019050919050565b6000602082019050818103600083015261458381614547565b9050919050565b7f4e6577207469636b6574206c696d69742063616e6e6f7420657863656564207460008201527f6f74616c207469636b6574730000000000000000000000000000000000000000602082015250565b60006145e6602c83613815565b91506145f18261458a565b604082019050919050565b60006020820190508181036000830152614615816145d9565b9050919050565b7f42617365205552492063616e6e6f7420626520656d7074790000000000000000600082015250565b6000614652601883613815565b915061465d8261461c565b602082019050919050565b6000602082019050818103600083015261468181614645565b9050919050565b60008190508160005260206000209050919050565b60006020601f8301049050919050565b600082821b905092915050565b6000600883026146ea7fffffffffffffffffffffffffffffffffffffffffffffffffffffffffffffffff826146ad565b6146f486836146ad565b95508019841693508086168417925050509392505050565b600061472761472261471d8461374c565b61397f565b61374c565b9050919050565b6000819050919050565b6147418361470c565b61475561474d8261472e565b8484546146ba565b825550505050565b600090565b61476a61475d565b614775818484614738565b505050565b5b818110156147995761478e600082614762565b60018101905061477b565b5050565b601f8211156147de576147af81614688565b6147b88461469d565b810160208510156147c7578190505b6147db6147d38561469d565b83018261477a565b50505b505050565b600082821c905092915050565b6000614801600019846008026147e3565b1980831691505092915050565b600061481a83836147f0565b9150826002028217905092915050565b6148338261380a565b67ffffffffffffffff81111561484c5761484b613a80565b5b6148568254613f33565b61486182828561479d565b600060209050601f8311600181146148945760008415614882578287015190505b61488c858261480e565b8655506148f4565b601f1984166148a286614688565b60005b828110156148ca578489015182556001820191506020850194506020810190506148a5565b868310156148e757848901516148e3601f8916826147f0565b8355505b6001600288020188555050505b505050505050565b7f4576656e7420686173206265656e2063616e63656c65642c207472616e73666560008201527f7273206172652064697361626c65640000000000000000000000000000000000602082015250565b6000614958602f83613815565b9150614963826148fc565b604082019050919050565b600060208201905081810360008301526149878161494b565b9050919050565b7f596f7520646f206e6f74206f776e2074686973207469636b6574000000000000600082015250565b60006149c4601a83613815565b91506149cf8261498e565b602082019050919050565b600060208201905081810360008301526149f3816149b7565b9050919050565b7f5469636b65742068617320616c7265616479206265656e20757365642c20636160008201527f6e6e6f74207472616e7366657200000000000000000000000000000000000000602082015250565b6000614a56602d83613815565b9150614a61826149fa565b604082019050919050565b60006020820190508181036000830152614a8581614a49565b9050919050565b7f4576656e74206973206e6f742063616e63656c65642c2063616e6e6f7420636c60008201527f61696d20726566756e6400000000000000000000000000000000000000000000602082015250565b6000614ae8602a83613815565b9150614af382614a8c565b604082019050919050565b60006020820190508181036000830152614b1781614adb565b9050919050565b7f596f75206861766520616c726561647920636c61696d656420796f757220726560008201527f66756e6400000000000000000000000000000000000000000000000000000000602082015250565b6000614b7a602483613815565b9150614b8582614b1e565b604082019050919050565b60006020820190508181036000830152614ba981614b6d565b9050919050565b7f596f752068617665206e6f207469636b65747320746f20726566756e6420626160008201527f736564206f6e20696e697469616c207075726368617365000000000000000000602082015250565b6000614c0c603783613815565b9150614c1782614bb0565b604082019050919050565b60006020820190508181036000830152614c3b81614bff565b9050919050565b6000614c4d8261374c565b9150614c588361374c565b9250828202614c668161374c565b91508282048414831517614c7d57614c7c613e8d565b5b5092915050565b7f436f6e74726163742068617320696e73756666696369656e742055534443206260008201527f616c616e636520666f72207468697320726566756e642e000000000000000000602082015250565b6000614ce0603783613815565b9150614ceb82614c84565b604082019050919050565b60006020820190508181036000830152614d0f81614cd3565b9050919050565b7f5553444320726566756e64207472616e73666572206661696c65642e00000000600082015250565b6000614d4c601c83613815565b9150614d5782614d16565b602082019050919050565b60006020820190508181036000830152614d7b81614d3f565b9050919050565b600081905092915050565b6000614d988261380a565b614da28185614d82565b9350614db2818560208601613826565b80840191505092915050565b6000614dca8285614d8d565b9150614dd68284614d8d565b91508190509392505050565b7f4576656e7420686173206265656e2063616e63656c6564000000000000000000600082015250565b6000614e18601783613815565b9150614e2382614de2565b602082019050919050565b60006020820190508181036000830152614e4781614e0b565b9050919050565b7f4576656e742068617320616c7265616479206f63637572726564000000000000600082015250565b6000614e84601a83613815565b9150614e8f82614e4e565b602082019050919050565b60006020820190508181036000830152614eb381614e77565b9050919050565b7f416c6c207469636b65747320736f6c6400000000000000000000000000000000600082015250565b6000614ef0601083613815565b9150614efb82614eba565b602082019050919050565b60006020820190508181036000830152614f1f81614ee3565b9050919050565b7f455448206e6f742061636365707465643b20706179207769746820555344432e600082015250565b6000614f5c602083613815565b9150614f6782614f26565b602082019050919050565b60006020820190508181036000830152614f8b81614f4f565b9050919050565b7f5469636b6574207075726368617365206c696d69742072656163686564000000600082015250565b6000614fc8601d83613815565b9150614fd382614f92565b602082019050919050565b60006020820190508181036000830152614ff781614fbb565b9050919050565b60006040820190506150136000830185613915565b6150206020830184613915565b9392505050565b7f5553444320616c6c6f77616e636520697320696e73756666696369656e742e2060008201527f506c6561736520617070726f76652074686520636f6e747261637420746f207360208201527f70656e6420555344432e00000000000000000000000000000000000000000000604082015250565b60006150a9604a83613815565b91506150b482615027565b606082019050919050565b600060208201905081810360008301526150d88161509c565b9050919050565b60006060820190506150f46000830186613915565b6151016020830185613915565b61510e60408301846139f9565b949350505050565b7f55534443207472616e73666572206661696c65642e20456e7375726520796f7560008201527f206861766520656e6f756768205553444320616e64206861766520617070726f60208201527f7665642074686520636f6e74726163742e000000000000000000000000000000604082015250565b6000615198605183613815565b91506151a382615116565b606082019050919050565b600060208201905081810360008301526151c78161518b565b9050919050565b7f4576656e7420697320616c72656164792063616e63656c656400000000000000600082015250565b6000615204601983613815565b915061520f826151ce565b602082019050919050565b60006020820190508181036000830152615233816151f7565b9050919050565b7f4576656e742068617320616c7265616479206f636375727265642c2063616e6e60008201527f6f742063616e63656c0000000000000000000000000000000000000000000000602082015250565b6000615296602983613815565b91506152a18261523a565b604082019050919050565b600060208201905081810360008301526152c581615289565b9050919050565b600081519050919050565b600082825260208201905092915050565b60006152f3826152cc565b6152fd81856152d7565b935061530d818560208601613826565b61531681613850565b840191505092915050565b60006080820190506153366000830187613915565b6153436020830186613915565b61535060408301856139f9565b818103606083015261536281846152e8565b905095945050505050565b60008151905061537c81613606565b92915050565b600060208284031215615398576153976135d0565b5b60006153a68482850161536d565b91505092915050565b7f4e487b7100000000000000000000000000000000000000000000000000000000600052601260045260246000fdfea2646970667358221220df02b948fcd033d62ee721b37a564181238276684a89c42577633e6241759ab164736f6c63430008140033a2646970667358221220a9517514317196cae35f4d7dc4a4b44937bfa513f8d36e441d101444d63bcf6264736f6c63430008140033",
  "linkReferences": {},
  "deployedLinkReferences": {}
}