{
  "_format": "hh-sol-artifact-1",
  "contractName": "EventTicketFactory",
  "sourceName": "contracts/EventTicketFactory.sol",
  "abi": [
    {
      "anonymous": false,
      "inputs": [
        {
          "indexed": false,
          "internalType": "address",
          "name": "eventContract",
          "type": "address"
        },
        {
          "indexed": false,
          "internalType": "string",
          "name": "name",
          "type": "string"
        },
        {
          "indexed": false,
          "internalType": "string",
          "name": "symbol",
          "type": "string"
        },
        {
          "indexed": false,
          "internalType": "string",
          "name": "eventName",
          "type": "string"
        },
        {
          "indexed": false,
          "internalType": "uint256",
          "name": "date",
          "type": "uint256"
        },
        {
          "indexed": false,
          "internalType": "uint256",
          "name": "totalTickets",
          "type": "uint256"
        },
        {
          "indexed": false,
          "internalType": "uint256",
          "name": "ticketPrice",
          "type": "uint256"
        },
        {
          "indexed": false,
          "internalType": "uint256",
          "name": "ticketLimit",
          "type": "uint256"
        }
      ],
      "name": "EventCreated",
      "type": "event"
    },
    {
      "inputs": [
        {
          "internalType": "string",
          "name": "_name",
          "type": "string"
        },
        {
          "internalType": "string",
          "name": "_symbol",
          "type": "string"
        },
        {
          "internalType": "string",
          "name": "_eventName",
          "type": "string"
        },
        {
          "internalType": "uint256",
          "name": "_date",
          "type": "uint256"
        },
        {
          "internalType": "uint256",
          "name": "_totalTickets",
          "type": "uint256"
        },
        {
          "internalType": "uint256",
          "name": "_ticketPrice",
          "type": "uint256"
        },
        {
          "internalType": "uint256",
          "name": "_ticketLimit",
          "type": "uint256"
        }
      ],
      "name": "createEvent",
      "outputs": [],
      "stateMutability": "nonpayable",
      "type": "function"
    },
    {
      "inputs": [
        {
          "internalType": "uint256",
          "name": "",
          "type": "uint256"
        }
      ],
      "name": "events",
      "outputs": [
        {
          "internalType": "contract EventTicket",
          "name": "",
          "type": "address"
        }
      ],
      "stateMutability": "view",
      "type": "function"
    },
    {
      "inputs": [],
      "name": "getAllEvents",
      "outputs": [
        {
          "internalType": "contract EventTicket[]",
          "name": "",
          "type": "address[]"
        }
      ],
      "stateMutability": "view",
      "type": "function"
    }
  ],
  "bytecode": "0x608060405234801561001057600080fd5b506153cc806100206000396000f3fe60806040523480156200001157600080fd5b5060043610620000465760003560e01c80630b791430146200004b578063835e489f1462000081578063c27a500d14620000a1575b600080fd5b6200006960048036038101906200006391906200035c565b620000c3565b60405162000078919062000419565b60405180910390f35b6200009f600480360381019062000099919062000598565b62000103565b005b620000ab6200026f565b604051620000ba919062000776565b60405180910390f35b60008181548110620000d457600080fd5b906000526020600020016000915054906101000a900473ffffffffffffffffffffffffffffffffffffffff1681565b6000878787878787876040516200011a90620002ff565b6200012c979695949392919062000834565b604051809103906000f08015801562000149573d6000803e3d6000fd5b5090508073ffffffffffffffffffffffffffffffffffffffff1663f2fde38b336040518263ffffffff1660e01b8152600401620001879190620008eb565b600060405180830381600087803b158015620001a257600080fd5b505af1158015620001b7573d6000803e3d6000fd5b505050506000819080600181540180825580915050600190039060005260206000200160009091909190916101000a81548173ffffffffffffffffffffffffffffffffffffffff021916908373ffffffffffffffffffffffffffffffffffffffff1602179055507febd375d4d3e3aa35a03f32c0ab481facbb13c8ab7789d936b01fc7b259edbb4381898989898989896040516200025d98979695949392919062000908565b60405180910390a15050505050505050565b60606000805480602002602001604051908101604052809291908181526020018280548015620002f557602002820191906000526020600020905b8160009054906101000a900473ffffffffffffffffffffffffffffffffffffffff1673ffffffffffffffffffffffffffffffffffffffff1681526020019060010190808311620002aa575b5050505050905090565b6149eb80620009ac83390190565b6000604051905090565b600080fd5b600080fd5b6000819050919050565b620003368162000321565b81146200034257600080fd5b50565b60008135905062000356816200032b565b92915050565b60006020828403121562000375576200037462000317565b5b6000620003858482850162000345565b91505092915050565b600073ffffffffffffffffffffffffffffffffffffffff82169050919050565b6000819050919050565b6000620003d9620003d3620003cd846200038e565b620003ae565b6200038e565b9050919050565b6000620003ed82620003b8565b9050919050565b60006200040182620003e0565b9050919050565b6200041381620003f4565b82525050565b600060208201905062000430600083018462000408565b92915050565b600080fd5b600080fd5b6000601f19601f8301169050919050565b7f4e487b7100000000000000000000000000000000000000000000000000000000600052604160045260246000fd5b6200048b8262000440565b810181811067ffffffffffffffff82111715620004ad57620004ac62000451565b5b80604052505050565b6000620004c26200030d565b9050620004d0828262000480565b919050565b600067ffffffffffffffff821115620004f357620004f262000451565b5b620004fe8262000440565b9050602081019050919050565b82818337600083830152505050565b6000620005316200052b84620004d5565b620004b6565b90508281526020810184848401111562000550576200054f6200043b565b5b6200055d8482856200050b565b509392505050565b600082601f8301126200057d576200057c62000436565b5b81356200058f8482602086016200051a565b91505092915050565b600080600080600080600060e0888a031215620005ba57620005b962000317565b5b600088013567ffffffffffffffff811115620005db57620005da6200031c565b5b620005e98a828b0162000565565b975050602088013567ffffffffffffffff8111156200060d576200060c6200031c565b5b6200061b8a828b0162000565565b965050604088013567ffffffffffffffff8111156200063f576200063e6200031c565b5b6200064d8a828b0162000565565b9550506060620006608a828b0162000345565b9450506080620006738a828b0162000345565b93505060a0620006868a828b0162000345565b92505060c0620006998a828b0162000345565b91505092959891949750929550565b600081519050919050565b600082825260208201905092915050565b6000819050602082019050919050565b620006df81620003f4565b82525050565b6000620006f38383620006d4565b60208301905092915050565b6000602082019050919050565b60006200071982620006a8565b620007258185620006b3565b93506200073283620006c4565b8060005b83811015620007695781516200074d8882620006e5565b97506200075a83620006ff565b92505060018101905062000736565b5085935050505092915050565b600060208201905081810360008301526200079281846200070c565b905092915050565b600081519050919050565b600082825260208201905092915050565b60005b83811015620007d6578082015181840152602081019050620007b9565b60008484015250505050565b6000620007ef826200079a565b620007fb8185620007a5565b93506200080d818560208601620007b6565b620008188162000440565b840191505092915050565b6200082e8162000321565b82525050565b600060e082019050818103600083015262000850818a620007e2565b90508181036020830152620008668189620007e2565b905081810360408301526200087c8188620007e2565b90506200088d606083018762000823565b6200089c608083018662000823565b620008ab60a083018562000823565b620008ba60c083018462000823565b98975050505050505050565b6000620008d3826200038e565b9050919050565b620008e581620008c6565b82525050565b6000602082019050620009026000830184620008da565b92915050565b60006101008201905062000920600083018b620008da565b818103602083015262000934818a620007e2565b905081810360408301526200094a8189620007e2565b90508181036060830152620009608188620007e2565b905062000971608083018762000823565b6200098060a083018662000823565b6200098f60c083018562000823565b6200099e60e083018462000823565b999850505050505050505056fe60a06040523480156200001157600080fd5b50604051620049eb380380620049eb83398181016040528101906200003791906200041d565b33878781600090816200004b91906200076e565b5080600190816200005d91906200076e565b505050600073ffffffffffffffffffffffffffffffffffffffff168173ffffffffffffffffffffffffffffffffffffffff1603620000d55760006040517f1e4fbdf7000000000000000000000000000000000000000000000000000000008152600401620000cc91906200089a565b60405180910390fd5b620000e6816200018960201b60201c565b506040518060a001604052808681526020018581526020018481526020016000815260200160001515815250600760008201518160000190816200012b91906200076e565b5060208201518160010155604082015181600201556060820151816003015560808201518160040160006101000a81548160ff02191690831515021790555090505081608081815250508060118190555050505050505050620008b7565b6000600660009054906101000a900473ffffffffffffffffffffffffffffffffffffffff16905081600660006101000a81548173ffffffffffffffffffffffffffffffffffffffff021916908373ffffffffffffffffffffffffffffffffffffffff1602179055508173ffffffffffffffffffffffffffffffffffffffff168173ffffffffffffffffffffffffffffffffffffffff167f8be0079c531659141344cd1fd0a4f28419497f9722a3daafe3b4186f6b6457e060405160405180910390a35050565b6000604051905090565b600080fd5b600080fd5b600080fd5b600080fd5b6000601f19601f8301169050919050565b7f4e487b7100000000000000000000000000000000000000000000000000000000600052604160045260246000fd5b620002b8826200026d565b810181811067ffffffffffffffff82111715620002da57620002d96200027e565b5b80604052505050565b6000620002ef6200024f565b9050620002fd8282620002ad565b919050565b600067ffffffffffffffff82111562000320576200031f6200027e565b5b6200032b826200026d565b9050602081019050919050565b60005b83811015620003585780820151818401526020810190506200033b565b60008484015250505050565b60006200037b620003758462000302565b620002e3565b9050828152602081018484840111156200039a576200039962000268565b5b620003a784828562000338565b509392505050565b600082601f830112620003c757620003c662000263565b5b8151620003d984826020860162000364565b91505092915050565b6000819050919050565b620003f781620003e2565b81146200040357600080fd5b50565b6000815190506200041781620003ec565b92915050565b600080600080600080600060e0888a0312156200043f576200043e62000259565b5b600088015167ffffffffffffffff81111562000460576200045f6200025e565b5b6200046e8a828b01620003af565b975050602088015167ffffffffffffffff8111156200049257620004916200025e565b5b620004a08a828b01620003af565b965050604088015167ffffffffffffffff811115620004c457620004c36200025e565b5b620004d28a828b01620003af565b9550506060620004e58a828b0162000406565b9450506080620004f88a828b0162000406565b93505060a06200050b8a828b0162000406565b92505060c06200051e8a828b0162000406565b91505092959891949750929550565b600081519050919050565b7f4e487b7100000000000000000000000000000000000000000000000000000000600052602260045260246000fd5b600060028204905060018216806200058057607f821691505b60208210810362000596576200059562000538565b5b50919050565b60008190508160005260206000209050919050565b60006020601f8301049050919050565b600082821b905092915050565b600060088302620006007fffffffffffffffffffffffffffffffffffffffffffffffffffffffffffffffff82620005c1565b6200060c8683620005c1565b95508019841693508086168417925050509392505050565b6000819050919050565b60006200064f620006496200064384620003e2565b62000624565b620003e2565b9050919050565b6000819050919050565b6200066b836200062e565b620006836200067a8262000656565b848454620005ce565b825550505050565b600090565b6200069a6200068b565b620006a781848462000660565b505050565b5b81811015620006cf57620006c360008262000690565b600181019050620006ad565b5050565b601f8211156200071e57620006e8816200059c565b620006f384620005b1565b8101602085101562000703578190505b6200071b6200071285620005b1565b830182620006ac565b50505b505050565b600082821c905092915050565b6000620007436000198460080262000723565b1980831691505092915050565b60006200075e838362000730565b9150826002028217905092915050565b62000779826200052d565b67ffffffffffffffff8111156200079557620007946200027e565b5b620007a1825462000567565b620007ae828285620006d3565b600060209050601f831160018114620007e65760008415620007d1578287015190505b620007dd858262000750565b8655506200084d565b601f198416620007f6866200059c565b60005b828110156200082057848901518255600182019150602085019450602081019050620007f9565b868310156200084057848901516200083c601f89168262000730565b8355505b6001600288020188555050505b505050505050565b600073ffffffffffffffffffffffffffffffffffffffff82169050919050565b6000620008828262000855565b9050919050565b620008948162000875565b82525050565b6000602082019050620008b1600083018462000889565b92915050565b60805161410a620008e160003960008181610cbb015281816115a10152611a6f015261410a6000f3fe60806040526004361061020f5760003560e01c806370a0823111610118578063e2bb3ccf116100a0578063edca914c1161006f578063edca914c146107eb578063f1386cd6146107f5578063f2fde38b14610824578063fb6c95371461084d578063fb87774c146108645761020f565b8063e2bb3ccf14610705578063e82de7e814610734578063e985e9c514610771578063eb2dbcf6146107ae5761020f565b806395d89b41116100e757806395d89b4114610634578063a22cb4651461065f578063b5545a3c14610688578063b88d4fde1461069f578063c87b56dd146106c85761020f565b806370a0823114610578578063715018a6146105b557806384bd3264146105cc5780638da5cb5b146106095761020f565b80632b6b06331161019b5780635e321dfc1161016a5780635e321dfc1461047f5780636031a52f146104aa5780636352211e146104d557806365c2944e14610512578063679ebf1a1461054f5761020f565b80632b6b0633146103b3578063336ccba5146103f05780633d3751ae1461042d57806342842e0e146104565761020f565b8063095ea7b3116101e2578063095ea7b3146102f65780630a15fa8b1461031f5780631209b1f61461034857806323b872dd1461037357806324600fc31461039c5761020f565b806301ffc9a7146102145780630484a22f1461025157806306fdde031461028e578063081812fc146102b9575b600080fd5b34801561022057600080fd5b5061023b60048036038101906102369190612f5a565b6108a1565b6040516102489190612fa2565b60405180910390f35b34801561025d57600080fd5b506102786004803603810190610273919061301b565b610983565b6040516102859190613110565b60405180910390f35b34801561029a57600080fd5b506102a3610a76565b6040516102b091906131c2565b60405180910390f35b3480156102c557600080fd5b506102e060048036038101906102db9190613210565b610b08565b6040516102ed919061324c565b60405180910390f35b34801561030257600080fd5b5061031d60048036038101906103189190613267565b610b24565b005b34801561032b57600080fd5b5061034660048036038101906103419190613210565b610b3a565b005b34801561035457600080fd5b5061035d610cb9565b60405161036a91906132b6565b60405180910390f35b34801561037f57600080fd5b5061039a600480360381019061039591906132d1565b610cdd565b005b3480156103a857600080fd5b506103b1610ddf565b005b3480156103bf57600080fd5b506103da60048036038101906103d5919061301b565b610f80565b6040516103e79190612fa2565b60405180910390f35b3480156103fc57600080fd5b5061041760048036038101906104129190613210565b610fa0565b6040516104249190612fa2565b60405180910390f35b34801561043957600080fd5b50610454600480360381019061044f9190613210565b610fc0565b005b34801561046257600080fd5b5061047d600480360381019061047891906132d1565b611025565b005b34801561048b57600080fd5b50610494611045565b6040516104a191906132b6565b60405180910390f35b3480156104b657600080fd5b506104bf61104b565b6040516104cc91906132b6565b60405180910390f35b3480156104e157600080fd5b506104fc60048036038101906104f79190613210565b611051565b604051610509919061324c565b60405180910390f35b34801561051e57600080fd5b506105396004803603810190610534919061301b565b611063565b6040516105469190612fa2565b60405180910390f35b34801561055b57600080fd5b5061057660048036038101906105719190613324565b6110b9565b005b34801561058457600080fd5b5061059f600480360381019061059a919061301b565b611244565b6040516105ac91906132b6565b60405180910390f35b3480156105c157600080fd5b506105ca6112fe565b005b3480156105d857600080fd5b506105f360048036038101906105ee919061301b565b611312565b60405161060091906132b6565b60405180910390f35b34801561061557600080fd5b5061061e61132a565b60405161062b919061324c565b60405180910390f35b34801561064057600080fd5b50610649611354565b60405161065691906131c2565b60405180910390f35b34801561066b57600080fd5b5061068660048036038101906106819190613390565b6113e6565b005b34801561069457600080fd5b5061069d6113fc565b005b3480156106ab57600080fd5b506106c660048036038101906106c19190613505565b611722565b005b3480156106d457600080fd5b506106ef60048036038101906106ea9190613210565b611747565b6040516106fc91906131c2565b60405180910390f35b34801561071157600080fd5b5061071a6117b0565b60405161072b959493929190613588565b60405180910390f35b34801561074057600080fd5b5061075b60048036038101906107569190613267565b61187f565b6040516107689190612fa2565b60405180910390f35b34801561077d57600080fd5b50610798600480360381019061079391906135e2565b6118c0565b6040516107a59190612fa2565b60405180910390f35b3480156107ba57600080fd5b506107d560048036038101906107d09190613210565b611954565b6040516107e2919061324c565b60405180910390f35b6107f3611987565b005b34801561080157600080fd5b5061080a611c41565b60405161081b959493929190613588565b60405180910390f35b34801561083057600080fd5b5061084b6004803603810190610846919061301b565b611cfa565b005b34801561085957600080fd5b50610862611d80565b005b34801561087057600080fd5b5061088b60048036038101906108869190613210565b611e79565b6040516108989190612fa2565b60405180910390f35b60007f80ac58cd000000000000000000000000000000000000000000000000000000007bffffffffffffffffffffffffffffffffffffffffffffffffffffffff1916827bffffffffffffffffffffffffffffffffffffffffffffffffffffffff1916148061096c57507f5b5e139f000000000000000000000000000000000000000000000000000000007bffffffffffffffffffffffffffffffffffffffffffffffffffffffff1916827bffffffffffffffffffffffffffffffffffffffffffffffffffffffff1916145b8061097c575061097b82611eeb565b5b9050919050565b6060600061099083611244565b905060008167ffffffffffffffff8111156109ae576109ad6133da565b5b6040519080825280602002602001820160405280156109dc5781602001602082028036833780820191505090505b5090506000805b601054811015610a6a578573ffffffffffffffffffffffffffffffffffffffff16610a0d82611051565b73ffffffffffffffffffffffffffffffffffffffff1603610a575780838381518110610a3c57610a3b613622565b5b6020026020010181815250508180610a5390613680565b9250505b8080610a6290613680565b9150506109e3565b50819350505050919050565b606060008054610a85906136f7565b80601f0160208091040260200160405190810160405280929190818152602001828054610ab1906136f7565b8015610afe5780601f10610ad357610100808354040283529160200191610afe565b820191906000526020600020905b815481529060010190602001808311610ae157829003601f168201915b5050505050905090565b6000610b1382611f55565b50610b1d82611fdd565b9050919050565b610b368282610b3161201a565b612022565b5050565b610b42612034565b600760040160009054906101000a900460ff1615610b95576040517f08c379a0000000000000000000000000000000000000000000000000000000008152600401610b8c90613774565b60405180910390fd5b610b9e816120bb565b610bdd576040517f08c379a0000000000000000000000000000000000000000000000000000000008152600401610bd4906137e0565b60405180910390fd5b600e600082815260200190815260200160002060009054906101000a900460ff1615610c3e576040517f08c379a0000000000000000000000000000000000000000000000000000000008152600401610c359061384c565b60405180910390fd5b6001600e600083815260200190815260200160002060006101000a81548160ff021916908315150217905550610c7381611051565b73ffffffffffffffffffffffffffffffffffffffff16817ff23b1427e2e3d04905029561ed001085506f5bc45ebd846d84b01c489ff6710f60405160405180910390a350565b7f000000000000000000000000000000000000000000000000000000000000000081565b600073ffffffffffffffffffffffffffffffffffffffff168273ffffffffffffffffffffffffffffffffffffffff1603610d4f5760006040517f64a0ae92000000000000000000000000000000000000000000000000000000008152600401610d46919061324c565b60405180910390fd5b6000610d638383610d5e61201a565b6120c9565b90508373ffffffffffffffffffffffffffffffffffffffff168173ffffffffffffffffffffffffffffffffffffffff1614610dd9578382826040517f64283d7b000000000000000000000000000000000000000000000000000000008152600401610dd09392919061386c565b60405180910390fd5b50505050565b610de7612034565b600760040160009054906101000a900460ff1615610e3a576040517f08c379a0000000000000000000000000000000000000000000000000000000008152600401610e3190613915565b60405180910390fd5b6007600101544211610e81576040517f08c379a0000000000000000000000000000000000000000000000000000000008152600401610e7890613981565b60405180910390fd5b600047905060008111610ec9576040517f08c379a0000000000000000000000000000000000000000000000000000000008152600401610ec0906139ed565b60405180910390fd5b6000610ed361132a565b73ffffffffffffffffffffffffffffffffffffffff1682604051610ef690613a3e565b60006040518083038185875af1925050503d8060008114610f33576040519150601f19603f3d011682016040523d82523d6000602084013e610f38565b606091505b5050905080610f7c576040517f08c379a0000000000000000000000000000000000000000000000000000000008152600401610f7390613a9f565b60405180910390fd5b5050565b600f6020528060005260406000206000915054906101000a900460ff1681565b600e6020528060005260406000206000915054906101000a900460ff1681565b610fc8612034565b600760040160009054906101000a900460ff161561101b576040517f08c379a000000000000000000000000000000000000000000000000000000000815260040161101290613774565b60405180910390fd5b8060118190555050565b61104083838360405180602001604052806000815250611722565b505050565b60115481565b60105481565b600061105c82611f55565b9050919050565b6000600f60008373ffffffffffffffffffffffffffffffffffffffff1673ffffffffffffffffffffffffffffffffffffffff16815260200190815260200160002060009054906101000a900460ff169050919050565b600760040160009054906101000a900460ff161561110c576040517f08c379a000000000000000000000000000000000000000000000000000000000815260040161110390613774565b60405180910390fd5b3373ffffffffffffffffffffffffffffffffffffffff1661112c83611051565b73ffffffffffffffffffffffffffffffffffffffff1614611182576040517f08c379a000000000000000000000000000000000000000000000000000000000815260040161117990613b0b565b60405180910390fd5b600e600083815260200190815260200160002060009054906101000a900460ff16156111e3576040517f08c379a00000000000000000000000000000000000000000000000000000000081526004016111da9061384c565b60405180910390fd5b6111ee3382846122e3565b80600c600084815260200190815260200160002060006101000a81548173ffffffffffffffffffffffffffffffffffffffff021916908373ffffffffffffffffffffffffffffffffffffffff1602179055505050565b60008073ffffffffffffffffffffffffffffffffffffffff168273ffffffffffffffffffffffffffffffffffffffff16036112b75760006040517f89c62b640000000000000000000000000000000000000000000000000000000081526004016112ae919061324c565b60405180910390fd5b600360008373ffffffffffffffffffffffffffffffffffffffff1673ffffffffffffffffffffffffffffffffffffffff168152602001908152602001600020549050919050565b611306612034565b6113106000612450565b565b600d6020528060005260406000206000915090505481565b6000600660009054906101000a900473ffffffffffffffffffffffffffffffffffffffff16905090565b606060018054611363906136f7565b80601f016020809104026020016040519081016040528092919081815260200182805461138f906136f7565b80156113dc5780601f106113b1576101008083540402835291602001916113dc565b820191906000526020600020905b8154815290600101906020018083116113bf57829003601f168201915b5050505050905090565b6113f86113f161201a565b8383612516565b5050565b600760040160009054906101000a900460ff1661144e576040517f08c379a000000000000000000000000000000000000000000000000000000000815260040161144590613b77565b60405180910390fd5b600f60003373ffffffffffffffffffffffffffffffffffffffff1673ffffffffffffffffffffffffffffffffffffffff16815260200190815260200160002060009054906101000a900460ff16156114db576040517f08c379a00000000000000000000000000000000000000000000000000000000081526004016114d290613be3565b60405180910390fd5b6000600d60003373ffffffffffffffffffffffffffffffffffffffff1673ffffffffffffffffffffffffffffffffffffffff168152602001908152602001600020541161155d576040517f08c379a000000000000000000000000000000000000000000000000000000000815260040161155490613c4f565b60405180910390fd5b6000600d60003373ffffffffffffffffffffffffffffffffffffffff1673ffffffffffffffffffffffffffffffffffffffff168152602001908152602001600020547f00000000000000000000000000000000000000000000000000000000000000006115ca9190613c6f565b90506001600f60003373ffffffffffffffffffffffffffffffffffffffff1673ffffffffffffffffffffffffffffffffffffffff16815260200190815260200160002060006101000a81548160ff02191690831515021790555060003373ffffffffffffffffffffffffffffffffffffffff168260405161164a90613a3e565b60006040518083038185875af1925050503d8060008114611687576040519150601f19603f3d011682016040523d82523d6000602084013e61168c565b606091505b50509050806116d0576040517f08c379a00000000000000000000000000000000000000000000000000000000081526004016116c790613cfd565b60405180910390fd5b3373ffffffffffffffffffffffffffffffffffffffff167f358fe4192934d3bf28ae181feda1f4bd08ca67f5e2fad55582cce5eb67304ae98360405161171691906132b6565b60405180910390a25050565b61172d848484610cdd565b61174161173861201a565b85858585612685565b50505050565b606061175282611f55565b50600061175d612836565b9050600081511161177d57604051806020016040528060008152506117a8565b806117878461284d565b604051602001611798929190613d59565b6040516020818303038152906040525b915050919050565b60606000806000806007600001600760010154600760020154600760030154600760040160009054906101000a900460ff168480546117ee906136f7565b80601f016020809104026020016040519081016040528092919081815260200182805461181a906136f7565b80156118675780601f1061183c57610100808354040283529160200191611867565b820191906000526020600020905b81548152906001019060200180831161184a57829003601f168201915b50505050509450945094509450945094509091929394565b60008273ffffffffffffffffffffffffffffffffffffffff166118a183611051565b73ffffffffffffffffffffffffffffffffffffffff1614905092915050565b6000600560008473ffffffffffffffffffffffffffffffffffffffff1673ffffffffffffffffffffffffffffffffffffffff16815260200190815260200160002060008373ffffffffffffffffffffffffffffffffffffffff1673ffffffffffffffffffffffffffffffffffffffff16815260200190815260200160002060009054906101000a900460ff16905092915050565b600c6020528060005260406000206000915054906101000a900473ffffffffffffffffffffffffffffffffffffffff1681565b600760040160009054906101000a900460ff16156119da576040517f08c379a00000000000000000000000000000000000000000000000000000000081526004016119d190613774565b60405180910390fd5b6007600101544210611a21576040517f08c379a0000000000000000000000000000000000000000000000000000000008152600401611a1890613dc9565b60405180910390fd5b60076002015460076003015410611a6d576040517f08c379a0000000000000000000000000000000000000000000000000000000008152600401611a6490613e35565b60405180910390fd5b7f0000000000000000000000000000000000000000000000000000000000000000341015611ad0576040517f08c379a0000000000000000000000000000000000000000000000000000000008152600401611ac790613ea1565b60405180910390fd5b601154600d60003373ffffffffffffffffffffffffffffffffffffffff1673ffffffffffffffffffffffffffffffffffffffff1681526020019081526020016000205410611b53576040517f08c379a0000000000000000000000000000000000000000000000000000000008152600401611b4a90613f0d565b60405180910390fd5b6000601054905033600c600083815260200190815260200160002060006101000a81548173ffffffffffffffffffffffffffffffffffffffff021916908373ffffffffffffffffffffffffffffffffffffffff160217905550611bb6338261291b565b60106000815480929190611bc990613680565b919050555060076003016000815480929190611be490613680565b9190505550600d60003373ffffffffffffffffffffffffffffffffffffffff1673ffffffffffffffffffffffffffffffffffffffff1681526020019081526020016000206000815480929190611c3990613680565b919050555050565b6007806000018054611c52906136f7565b80601f0160208091040260200160405190810160405280929190818152602001828054611c7e906136f7565b8015611ccb5780601f10611ca057610100808354040283529160200191611ccb565b820191906000526020600020905b815481529060010190602001808311611cae57829003601f168201915b5050505050908060010154908060020154908060030154908060040160009054906101000a900460ff16905085565b611d02612034565b600073ffffffffffffffffffffffffffffffffffffffff168173ffffffffffffffffffffffffffffffffffffffff1603611d745760006040517f1e4fbdf7000000000000000000000000000000000000000000000000000000008152600401611d6b919061324c565b60405180910390fd5b611d7d81612450565b50565b611d88612034565b600760040160009054906101000a900460ff1615611ddb576040517f08c379a0000000000000000000000000000000000000000000000000000000008152600401611dd290613f79565b60405180910390fd5b6007600101544210611e22576040517f08c379a0000000000000000000000000000000000000000000000000000000008152600401611e1990613dc9565b60405180910390fd5b6001600760040160006101000a81548160ff0219169083151502179055507fceaf11772900fe569752a0207c8639fb8228eb8663456dc9eaa3a08f927a870542604051611e6f91906132b6565b60405180910390a1565b6000611e84826120bb565b611ec3576040517f08c379a0000000000000000000000000000000000000000000000000000000008152600401611eba906137e0565b60405180910390fd5b600e600083815260200190815260200160002060009054906101000a900460ff169050919050565b60007f01ffc9a7000000000000000000000000000000000000000000000000000000007bffffffffffffffffffffffffffffffffffffffffffffffffffffffff1916827bffffffffffffffffffffffffffffffffffffffffffffffffffffffff1916149050919050565b600080611f6183612a14565b9050600073ffffffffffffffffffffffffffffffffffffffff168173ffffffffffffffffffffffffffffffffffffffff1603611fd457826040517f7e273289000000000000000000000000000000000000000000000000000000008152600401611fcb91906132b6565b60405180910390fd5b80915050919050565b60006004600083815260200190815260200160002060009054906101000a900473ffffffffffffffffffffffffffffffffffffffff169050919050565b600033905090565b61202f8383836001612a51565b505050565b61203c61201a565b73ffffffffffffffffffffffffffffffffffffffff1661205a61132a565b73ffffffffffffffffffffffffffffffffffffffff16146120b95761207d61201a565b6040517f118cdaa70000000000000000000000000000000000000000000000000000000081526004016120b0919061324c565b60405180910390fd5b565b600060105482109050919050565b6000806120d584612a14565b9050600073ffffffffffffffffffffffffffffffffffffffff168373ffffffffffffffffffffffffffffffffffffffff161461211757612116818486612c16565b5b600073ffffffffffffffffffffffffffffffffffffffff168173ffffffffffffffffffffffffffffffffffffffff16146121a857612159600085600080612a51565b6001600360008373ffffffffffffffffffffffffffffffffffffffff1673ffffffffffffffffffffffffffffffffffffffff168152602001908152602001600020600082825403925050819055505b600073ffffffffffffffffffffffffffffffffffffffff168573ffffffffffffffffffffffffffffffffffffffff161461222b576001600360008773ffffffffffffffffffffffffffffffffffffffff1673ffffffffffffffffffffffffffffffffffffffff168152602001908152602001600020600082825401925050819055505b846002600086815260200190815260200160002060006101000a81548173ffffffffffffffffffffffffffffffffffffffff021916908373ffffffffffffffffffffffffffffffffffffffff160217905550838573ffffffffffffffffffffffffffffffffffffffff168273ffffffffffffffffffffffffffffffffffffffff167fddf252ad1be2c89b69c2b068fc378daa952ba7f163c4a11628f55a4df523b3ef60405160405180910390a4809150509392505050565b600073ffffffffffffffffffffffffffffffffffffffff168273ffffffffffffffffffffffffffffffffffffffff16036123555760006040517f64a0ae9200000000000000000000000000000000000000000000000000000000815260040161234c919061324c565b60405180910390fd5b6000612363838360006120c9565b9050600073ffffffffffffffffffffffffffffffffffffffff168173ffffffffffffffffffffffffffffffffffffffff16036123d657816040517f7e2732890000000000000000000000000000000000000000000000000000000081526004016123cd91906132b6565b60405180910390fd5b8373ffffffffffffffffffffffffffffffffffffffff168173ffffffffffffffffffffffffffffffffffffffff161461244a578382826040517f64283d7b0000000000000000000000000000000000000000000000000000000081526004016124419392919061386c565b60405180910390fd5b50505050565b6000600660009054906101000a900473ffffffffffffffffffffffffffffffffffffffff16905081600660006101000a81548173ffffffffffffffffffffffffffffffffffffffff021916908373ffffffffffffffffffffffffffffffffffffffff1602179055508173ffffffffffffffffffffffffffffffffffffffff168173ffffffffffffffffffffffffffffffffffffffff167f8be0079c531659141344cd1fd0a4f28419497f9722a3daafe3b4186f6b6457e060405160405180910390a35050565b600073ffffffffffffffffffffffffffffffffffffffff168273ffffffffffffffffffffffffffffffffffffffff160361258757816040517f5b08ba1800000000000000000000000000000000000000000000000000000000815260040161257e919061324c565b60405180910390fd5b80600560008573ffffffffffffffffffffffffffffffffffffffff1673ffffffffffffffffffffffffffffffffffffffff16815260200190815260200160002060008473ffffffffffffffffffffffffffffffffffffffff1673ffffffffffffffffffffffffffffffffffffffff16815260200190815260200160002060006101000a81548160ff0219169083151502179055508173ffffffffffffffffffffffffffffffffffffffff168373ffffffffffffffffffffffffffffffffffffffff167f17307eab39ab6107e8899845ad3d59bd9653f200f220920489ca2b5937696c31836040516126789190612fa2565b60405180910390a3505050565b60008373ffffffffffffffffffffffffffffffffffffffff163b111561282f578273ffffffffffffffffffffffffffffffffffffffff1663150b7a02868685856040518563ffffffff1660e01b81526004016126e49493929190613fee565b6020604051808303816000875af192505050801561272057506040513d601f19601f8201168201806040525081019061271d919061404f565b60015b6127a4573d8060008114612750576040519150601f19603f3d011682016040523d82523d6000602084013e612755565b606091505b50600081510361279c57836040517f64a0ae92000000000000000000000000000000000000000000000000000000008152600401612793919061324c565b60405180910390fd5b805181602001fd5b63150b7a0260e01b7bffffffffffffffffffffffffffffffffffffffffffffffffffffffff1916817bffffffffffffffffffffffffffffffffffffffffffffffffffffffff19161461282d57836040517f64a0ae92000000000000000000000000000000000000000000000000000000008152600401612824919061324c565b60405180910390fd5b505b5050505050565b606060405180602001604052806000815250905090565b60606000600161285c84612cda565b01905060008167ffffffffffffffff81111561287b5761287a6133da565b5b6040519080825280601f01601f1916602001820160405280156128ad5781602001600182028036833780820191505090505b509050600082602001820190505b600115612910578080600190039150507f3031323334353637383961626364656600000000000000000000000000000000600a86061a8153600a85816129045761290361407c565b5b049450600085036128bb575b819350505050919050565b600073ffffffffffffffffffffffffffffffffffffffff168273ffffffffffffffffffffffffffffffffffffffff160361298d5760006040517f64a0ae92000000000000000000000000000000000000000000000000000000008152600401612984919061324c565b60405180910390fd5b600061299b838360006120c9565b9050600073ffffffffffffffffffffffffffffffffffffffff168173ffffffffffffffffffffffffffffffffffffffff1614612a0f5760006040517f73c6ac6e000000000000000000000000000000000000000000000000000000008152600401612a06919061324c565b60405180910390fd5b505050565b60006002600083815260200190815260200160002060009054906101000a900473ffffffffffffffffffffffffffffffffffffffff169050919050565b8080612a8a5750600073ffffffffffffffffffffffffffffffffffffffff168273ffffffffffffffffffffffffffffffffffffffff1614155b15612bbe576000612a9a84611f55565b9050600073ffffffffffffffffffffffffffffffffffffffff168373ffffffffffffffffffffffffffffffffffffffff1614158015612b0557508273ffffffffffffffffffffffffffffffffffffffff168173ffffffffffffffffffffffffffffffffffffffff1614155b8015612b185750612b1681846118c0565b155b15612b5a57826040517fa9fbf51f000000000000000000000000000000000000000000000000000000008152600401612b51919061324c565b60405180910390fd5b8115612bbc57838573ffffffffffffffffffffffffffffffffffffffff168273ffffffffffffffffffffffffffffffffffffffff167f8c5be1e5ebec7d5bd14f71427d1e84f3dd0314c0f7b2291e5b200ac8c7c3b92560405160405180910390a45b505b836004600085815260200190815260200160002060006101000a81548173ffffffffffffffffffffffffffffffffffffffff021916908373ffffffffffffffffffffffffffffffffffffffff16021790555050505050565b612c21838383612e2d565b612cd557600073ffffffffffffffffffffffffffffffffffffffff168373ffffffffffffffffffffffffffffffffffffffff1603612c9657806040517f7e273289000000000000000000000000000000000000000000000000000000008152600401612c8d91906132b6565b60405180910390fd5b81816040517f177e802f000000000000000000000000000000000000000000000000000000008152600401612ccc9291906140ab565b60405180910390fd5b505050565b600080600090507a184f03e93ff9f4daa797ed6e38ed64bf6a1f0100000000000000008310612d38577a184f03e93ff9f4daa797ed6e38ed64bf6a1f0100000000000000008381612d2e57612d2d61407c565b5b0492506040810190505b6d04ee2d6d415b85acef81000000008310612d75576d04ee2d6d415b85acef81000000008381612d6b57612d6a61407c565b5b0492506020810190505b662386f26fc100008310612da457662386f26fc100008381612d9a57612d9961407c565b5b0492506010810190505b6305f5e1008310612dcd576305f5e1008381612dc357612dc261407c565b5b0492506008810190505b6127108310612df2576127108381612de857612de761407c565b5b0492506004810190505b60648310612e155760648381612e0b57612e0a61407c565b5b0492506002810190505b600a8310612e24576001810190505b80915050919050565b60008073ffffffffffffffffffffffffffffffffffffffff168373ffffffffffffffffffffffffffffffffffffffff1614158015612ee557508273ffffffffffffffffffffffffffffffffffffffff168473ffffffffffffffffffffffffffffffffffffffff161480612ea65750612ea584846118c0565b5b80612ee457508273ffffffffffffffffffffffffffffffffffffffff16612ecc83611fdd565b73ffffffffffffffffffffffffffffffffffffffff16145b5b90509392505050565b6000604051905090565b600080fd5b600080fd5b60007fffffffff0000000000000000000000000000000000000000000000000000000082169050919050565b612f3781612f02565b8114612f4257600080fd5b50565b600081359050612f5481612f2e565b92915050565b600060208284031215612f7057612f6f612ef8565b5b6000612f7e84828501612f45565b91505092915050565b60008115159050919050565b612f9c81612f87565b82525050565b6000602082019050612fb76000830184612f93565b92915050565b600073ffffffffffffffffffffffffffffffffffffffff82169050919050565b6000612fe882612fbd565b9050919050565b612ff881612fdd565b811461300357600080fd5b50565b60008135905061301581612fef565b92915050565b60006020828403121561303157613030612ef8565b5b600061303f84828501613006565b91505092915050565b600081519050919050565b600082825260208201905092915050565b6000819050602082019050919050565b6000819050919050565b61308781613074565b82525050565b6000613099838361307e565b60208301905092915050565b6000602082019050919050565b60006130bd82613048565b6130c78185613053565b93506130d283613064565b8060005b838110156131035781516130ea888261308d565b97506130f5836130a5565b9250506001810190506130d6565b5085935050505092915050565b6000602082019050818103600083015261312a81846130b2565b905092915050565b600081519050919050565b600082825260208201905092915050565b60005b8381101561316c578082015181840152602081019050613151565b60008484015250505050565b6000601f19601f8301169050919050565b600061319482613132565b61319e818561313d565b93506131ae81856020860161314e565b6131b781613178565b840191505092915050565b600060208201905081810360008301526131dc8184613189565b905092915050565b6131ed81613074565b81146131f857600080fd5b50565b60008135905061320a816131e4565b92915050565b60006020828403121561322657613225612ef8565b5b6000613234848285016131fb565b91505092915050565b61324681612fdd565b82525050565b6000602082019050613261600083018461323d565b92915050565b6000806040838503121561327e5761327d612ef8565b5b600061328c85828601613006565b925050602061329d858286016131fb565b9150509250929050565b6132b081613074565b82525050565b60006020820190506132cb60008301846132a7565b92915050565b6000806000606084860312156132ea576132e9612ef8565b5b60006132f886828701613006565b935050602061330986828701613006565b925050604061331a868287016131fb565b9150509250925092565b6000806040838503121561333b5761333a612ef8565b5b6000613349858286016131fb565b925050602061335a85828601613006565b9150509250929050565b61336d81612f87565b811461337857600080fd5b50565b60008135905061338a81613364565b92915050565b600080604083850312156133a7576133a6612ef8565b5b60006133b585828601613006565b92505060206133c68582860161337b565b9150509250929050565b600080fd5b600080fd5b7f4e487b7100000000000000000000000000000000000000000000000000000000600052604160045260246000fd5b61341282613178565b810181811067ffffffffffffffff82111715613431576134306133da565b5b80604052505050565b6000613444612eee565b90506134508282613409565b919050565b600067ffffffffffffffff8211156134705761346f6133da565b5b61347982613178565b9050602081019050919050565b82818337600083830152505050565b60006134a86134a384613455565b61343a565b9050828152602081018484840111156134c4576134c36133d5565b5b6134cf848285613486565b509392505050565b600082601f8301126134ec576134eb6133d0565b5b81356134fc848260208601613495565b91505092915050565b6000806000806080858703121561351f5761351e612ef8565b5b600061352d87828801613006565b945050602061353e87828801613006565b935050604061354f878288016131fb565b925050606085013567ffffffffffffffff8111156135705761356f612efd565b5b61357c878288016134d7565b91505092959194509250565b600060a08201905081810360008301526135a28188613189565b90506135b160208301876132a7565b6135be60408301866132a7565b6135cb60608301856132a7565b6135d86080830184612f93565b9695505050505050565b600080604083850312156135f9576135f8612ef8565b5b600061360785828601613006565b925050602061361885828601613006565b9150509250929050565b7f4e487b7100000000000000000000000000000000000000000000000000000000600052603260045260246000fd5b7f4e487b7100000000000000000000000000000000000000000000000000000000600052601160045260246000fd5b600061368b82613074565b91507fffffffffffffffffffffffffffffffffffffffffffffffffffffffffffffffff82036136bd576136bc613651565b5b600182019050919050565b7f4e487b7100000000000000000000000000000000000000000000000000000000600052602260045260246000fd5b6000600282049050600182168061370f57607f821691505b602082108103613722576137216136c8565b5b50919050565b7f4576656e7420686173206265656e2063616e63656c6564000000000000000000600082015250565b600061375e60178361313d565b915061376982613728565b602082019050919050565b6000602082019050818103600083015261378d81613751565b9050919050565b7f5469636b657420646f6573206e6f742065786973740000000000000000000000600082015250565b60006137ca60158361313d565b91506137d582613794565b602082019050919050565b600060208201905081810360008301526137f9816137bd565b9050919050565b7f5469636b65742068617320616c7265616479206265656e207573656400000000600082015250565b6000613836601c8361313d565b915061384182613800565b602082019050919050565b6000602082019050818103600083015261386581613829565b9050919050565b6000606082019050613881600083018661323d565b61388e60208301856132a7565b61389b604083018461323d565b949350505050565b7f43616e6e6f742077697468647261772066726f6d2063616e63656c656420657660008201527f656e740000000000000000000000000000000000000000000000000000000000602082015250565b60006138ff60238361313d565b915061390a826138a3565b604082019050919050565b6000602082019050818103600083015261392e816138f2565b9050919050565b7f43616e6e6f74207769746864726177206265666f7265206576656e7400000000600082015250565b600061396b601c8361313d565b915061397682613935565b602082019050919050565b6000602082019050818103600083015261399a8161395e565b9050919050565b7f4e6f2066756e647320746f207769746864726177000000000000000000000000600082015250565b60006139d760148361313d565b91506139e2826139a1565b602082019050919050565b60006020820190508181036000830152613a06816139ca565b9050919050565b600081905092915050565b50565b6000613a28600083613a0d565b9150613a3382613a18565b600082019050919050565b6000613a4982613a1b565b9150819050919050565b7f5769746864726177616c206661696c6564000000000000000000000000000000600082015250565b6000613a8960118361313d565b9150613a9482613a53565b602082019050919050565b60006020820190508181036000830152613ab881613a7c565b9050919050565b7f596f7520646f206e6f74206f776e2074686973207469636b6574000000000000600082015250565b6000613af5601a8361313d565b9150613b0082613abf565b602082019050919050565b60006020820190508181036000830152613b2481613ae8565b9050919050565b7f4576656e74206973206e6f742063616e63656c65640000000000000000000000600082015250565b6000613b6160158361313d565b9150613b6c82613b2b565b602082019050919050565b60006020820190508181036000830152613b9081613b54565b9050919050565b7f416c726561647920636c61696d656420726566756e6400000000000000000000600082015250565b6000613bcd60168361313d565b9150613bd882613b97565b602082019050919050565b60006020820190508181036000830152613bfc81613bc0565b9050919050565b7f4e6f207469636b65747320746f20726566756e64000000000000000000000000600082015250565b6000613c3960148361313d565b9150613c4482613c03565b602082019050919050565b60006020820190508181036000830152613c6881613c2c565b9050919050565b6000613c7a82613074565b9150613c8583613074565b9250828202613c9381613074565b91508282048414831517613caa57613ca9613651565b5b5092915050565b7f526566756e64207472616e73666572206661696c656400000000000000000000600082015250565b6000613ce760168361313d565b9150613cf282613cb1565b602082019050919050565b60006020820190508181036000830152613d1681613cda565b9050919050565b600081905092915050565b6000613d3382613132565b613d3d8185613d1d565b9350613d4d81856020860161314e565b80840191505092915050565b6000613d658285613d28565b9150613d718284613d28565b91508190509392505050565b7f4576656e742068617320616c7265616479206f63637572726564000000000000600082015250565b6000613db3601a8361313d565b9150613dbe82613d7d565b602082019050919050565b60006020820190508181036000830152613de281613da6565b9050919050565b7f416c6c207469636b65747320736f6c6400000000000000000000000000000000600082015250565b6000613e1f60108361313d565b9150613e2a82613de9565b602082019050919050565b60006020820190508181036000830152613e4e81613e12565b9050919050565b7f496e73756666696369656e74207061796d656e74000000000000000000000000600082015250565b6000613e8b60148361313d565b9150613e9682613e55565b602082019050919050565b60006020820190508181036000830152613eba81613e7e565b9050919050565b7f5469636b6574207075726368617365206c696d69742072656163686564000000600082015250565b6000613ef7601d8361313d565b9150613f0282613ec1565b602082019050919050565b60006020820190508181036000830152613f2681613eea565b9050919050565b7f4576656e7420697320616c72656164792063616e63656c656400000000000000600082015250565b6000613f6360198361313d565b9150613f6e82613f2d565b602082019050919050565b60006020820190508181036000830152613f9281613f56565b9050919050565b600081519050919050565b600082825260208201905092915050565b6000613fc082613f99565b613fca8185613fa4565b9350613fda81856020860161314e565b613fe381613178565b840191505092915050565b6000608082019050614003600083018761323d565b614010602083018661323d565b61401d60408301856132a7565b818103606083015261402f8184613fb5565b905095945050505050565b60008151905061404981612f2e565b92915050565b60006020828403121561406557614064612ef8565b5b60006140738482850161403a565b91505092915050565b7f4e487b7100000000000000000000000000000000000000000000000000000000600052601260045260246000fd5b60006040820190506140c0600083018561323d565b6140cd60208301846132a7565b939250505056fea2646970667358221220f8aa387a498e5cd24f61121c62cce7dfcdf6212a83bf3463aa7d80a6aa7ec0c364736f6c63430008140033a2646970667358221220cc2a16bb3f85703744ca04766f29b094c7ff588aa4dcac78e8d33e3ebc7c310164736f6c63430008140033",
  "linkReferences": {},
  "deployedLinkReferences": {}
}