{
  "_format": "hh-sol-artifact-1",
  "contractName": "EventTicketFactory",
  "sourceName": "contracts/EventTicketFactory.sol",
  "abi": [
    {
      "anonymous": false,
      "inputs": [
        {
          "indexed": false,
          "internalType": "address",
          "name": "eventContract",
          "type": "address"
        },
        {
          "indexed": false,
          "internalType": "string",
          "name": "name",
          "type": "string"
        },
        {
          "indexed": false,
          "internalType": "string",
          "name": "symbol",
          "type": "string"
        },
        {
          "indexed": false,
          "internalType": "string",
          "name": "eventName",
          "type": "string"
        },
        {
          "indexed": false,
          "internalType": "uint256",
          "name": "date",
          "type": "uint256"
        },
        {
          "indexed": false,
          "internalType": "uint256",
          "name": "totalTickets",
          "type": "uint256"
        },
        {
          "indexed": false,
          "internalType": "uint256",
          "name": "ticketPrice",
          "type": "uint256"
        },
        {
          "indexed": false,
          "internalType": "uint256",
          "name": "ticketLimit",
          "type": "uint256"
        }
      ],
      "name": "EventCreated",
      "type": "event"
    },
    {
      "inputs": [
        {
          "internalType": "string",
          "name": "_name",
          "type": "string"
        },
        {
          "internalType": "string",
          "name": "_symbol",
          "type": "string"
        },
        {
          "internalType": "string",
          "name": "_eventName",
          "type": "string"
        },
        {
          "internalType": "uint256",
          "name": "_date",
          "type": "uint256"
        },
        {
          "internalType": "uint256",
          "name": "_totalTickets",
          "type": "uint256"
        },
        {
          "internalType": "uint256",
          "name": "_ticketPrice",
          "type": "uint256"
        },
        {
          "internalType": "uint256",
          "name": "_ticketLimit",
          "type": "uint256"
        }
      ],
      "name": "createEvent",
      "outputs": [],
      "stateMutability": "nonpayable",
      "type": "function"
    },
    {
      "inputs": [
        {
          "internalType": "uint256",
          "name": "",
          "type": "uint256"
        }
      ],
      "name": "events",
      "outputs": [
        {
          "internalType": "contract EventTicket",
          "name": "",
          "type": "address"
        }
      ],
      "stateMutability": "view",
      "type": "function"
    },
    {
      "inputs": [],
      "name": "getAllEvents",
      "outputs": [
        {
          "internalType": "contract EventTicket[]",
          "name": "",
          "type": "address[]"
        }
      ],
      "stateMutability": "view",
      "type": "function"
    }
  ],
  "bytecode": "0x608060405234801561001057600080fd5b50613f79806100206000396000f3fe60806040523480156200001157600080fd5b5060043610620000465760003560e01c80630b791430146200004b578063835e489f1462000081578063c27a500d14620000a1575b600080fd5b6200006960048036038101906200006391906200035c565b620000c3565b60405162000078919062000419565b60405180910390f35b6200009f600480360381019062000099919062000598565b62000103565b005b620000ab6200026f565b604051620000ba919062000776565b60405180910390f35b60008181548110620000d457600080fd5b906000526020600020016000915054906101000a900473ffffffffffffffffffffffffffffffffffffffff1681565b6000878787878787876040516200011a90620002ff565b6200012c979695949392919062000834565b604051809103906000f08015801562000149573d6000803e3d6000fd5b5090508073ffffffffffffffffffffffffffffffffffffffff1663f2fde38b336040518263ffffffff1660e01b8152600401620001879190620008eb565b600060405180830381600087803b158015620001a257600080fd5b505af1158015620001b7573d6000803e3d6000fd5b505050506000819080600181540180825580915050600190039060005260206000200160009091909190916101000a81548173ffffffffffffffffffffffffffffffffffffffff021916908373ffffffffffffffffffffffffffffffffffffffff1602179055507febd375d4d3e3aa35a03f32c0ab481facbb13c8ab7789d936b01fc7b259edbb4381898989898989896040516200025d98979695949392919062000908565b60405180910390a15050505050505050565b60606000805480602002602001604051908101604052809291908181526020018280548015620002f557602002820191906000526020600020905b8160009054906101000a900473ffffffffffffffffffffffffffffffffffffffff1673ffffffffffffffffffffffffffffffffffffffff1681526020019060010190808311620002aa575b5050505050905090565b61359880620009ac83390190565b6000604051905090565b600080fd5b600080fd5b6000819050919050565b620003368162000321565b81146200034257600080fd5b50565b60008135905062000356816200032b565b92915050565b60006020828403121562000375576200037462000317565b5b6000620003858482850162000345565b91505092915050565b600073ffffffffffffffffffffffffffffffffffffffff82169050919050565b6000819050919050565b6000620003d9620003d3620003cd846200038e565b620003ae565b6200038e565b9050919050565b6000620003ed82620003b8565b9050919050565b60006200040182620003e0565b9050919050565b6200041381620003f4565b82525050565b600060208201905062000430600083018462000408565b92915050565b600080fd5b600080fd5b6000601f19601f8301169050919050565b7f4e487b7100000000000000000000000000000000000000000000000000000000600052604160045260246000fd5b6200048b8262000440565b810181811067ffffffffffffffff82111715620004ad57620004ac62000451565b5b80604052505050565b6000620004c26200030d565b9050620004d0828262000480565b919050565b600067ffffffffffffffff821115620004f357620004f262000451565b5b620004fe8262000440565b9050602081019050919050565b82818337600083830152505050565b6000620005316200052b84620004d5565b620004b6565b90508281526020810184848401111562000550576200054f6200043b565b5b6200055d8482856200050b565b509392505050565b600082601f8301126200057d576200057c62000436565b5b81356200058f8482602086016200051a565b91505092915050565b600080600080600080600060e0888a031215620005ba57620005b962000317565b5b600088013567ffffffffffffffff811115620005db57620005da6200031c565b5b620005e98a828b0162000565565b975050602088013567ffffffffffffffff8111156200060d576200060c6200031c565b5b6200061b8a828b0162000565565b965050604088013567ffffffffffffffff8111156200063f576200063e6200031c565b5b6200064d8a828b0162000565565b9550506060620006608a828b0162000345565b9450506080620006738a828b0162000345565b93505060a0620006868a828b0162000345565b92505060c0620006998a828b0162000345565b91505092959891949750929550565b600081519050919050565b600082825260208201905092915050565b6000819050602082019050919050565b620006df81620003f4565b82525050565b6000620006f38383620006d4565b60208301905092915050565b6000602082019050919050565b60006200071982620006a8565b620007258185620006b3565b93506200073283620006c4565b8060005b83811015620007695781516200074d8882620006e5565b97506200075a83620006ff565b92505060018101905062000736565b5085935050505092915050565b600060208201905081810360008301526200079281846200070c565b905092915050565b600081519050919050565b600082825260208201905092915050565b60005b83811015620007d6578082015181840152602081019050620007b9565b60008484015250505050565b6000620007ef826200079a565b620007fb8185620007a5565b93506200080d818560208601620007b6565b620008188162000440565b840191505092915050565b6200082e8162000321565b82525050565b600060e082019050818103600083015262000850818a620007e2565b90508181036020830152620008668189620007e2565b905081810360408301526200087c8188620007e2565b90506200088d606083018762000823565b6200089c608083018662000823565b620008ab60a083018562000823565b620008ba60c083018462000823565b98975050505050505050565b6000620008d3826200038e565b9050919050565b620008e581620008c6565b82525050565b6000602082019050620009026000830184620008da565b92915050565b60006101008201905062000920600083018b620008da565b818103602083015262000934818a620007e2565b905081810360408301526200094a8189620007e2565b90508181036060830152620009608188620007e2565b905062000971608083018762000823565b6200098060a083018662000823565b6200098f60c083018562000823565b6200099e60e083018462000823565b999850505050505050505056fe60a06040523480156200001157600080fd5b5060405162003598380380620035988339818101604052810190620000379190620003f4565b33878781600090816200004b919062000745565b5080600190816200005d919062000745565b505050600073ffffffffffffffffffffffffffffffffffffffff168173ffffffffffffffffffffffffffffffffffffffff1603620000d55760006040517f1e4fbdf7000000000000000000000000000000000000000000000000000000008152600401620000cc919062000871565b60405180910390fd5b620000e6816200016060201b60201c565b50604051806080016040528086815260200185815260200184815260200160008152506007600082015181600001908162000122919062000745565b50602082015181600101556040820151816002015560608201518160030155905050816080818152505080600e81905550505050505050506200088e565b6000600660009054906101000a900473ffffffffffffffffffffffffffffffffffffffff16905081600660006101000a81548173ffffffffffffffffffffffffffffffffffffffff021916908373ffffffffffffffffffffffffffffffffffffffff1602179055508173ffffffffffffffffffffffffffffffffffffffff168173ffffffffffffffffffffffffffffffffffffffff167f8be0079c531659141344cd1fd0a4f28419497f9722a3daafe3b4186f6b6457e060405160405180910390a35050565b6000604051905090565b600080fd5b600080fd5b600080fd5b600080fd5b6000601f19601f8301169050919050565b7f4e487b7100000000000000000000000000000000000000000000000000000000600052604160045260246000fd5b6200028f8262000244565b810181811067ffffffffffffffff82111715620002b157620002b062000255565b5b80604052505050565b6000620002c662000226565b9050620002d4828262000284565b919050565b600067ffffffffffffffff821115620002f757620002f662000255565b5b620003028262000244565b9050602081019050919050565b60005b838110156200032f57808201518184015260208101905062000312565b60008484015250505050565b6000620003526200034c84620002d9565b620002ba565b9050828152602081018484840111156200037157620003706200023f565b5b6200037e8482856200030f565b509392505050565b600082601f8301126200039e576200039d6200023a565b5b8151620003b08482602086016200033b565b91505092915050565b6000819050919050565b620003ce81620003b9565b8114620003da57600080fd5b50565b600081519050620003ee81620003c3565b92915050565b600080600080600080600060e0888a03121562000416576200041562000230565b5b600088015167ffffffffffffffff81111562000437576200043662000235565b5b620004458a828b0162000386565b975050602088015167ffffffffffffffff81111562000469576200046862000235565b5b620004778a828b0162000386565b965050604088015167ffffffffffffffff8111156200049b576200049a62000235565b5b620004a98a828b0162000386565b9550506060620004bc8a828b01620003dd565b9450506080620004cf8a828b01620003dd565b93505060a0620004e28a828b01620003dd565b92505060c0620004f58a828b01620003dd565b91505092959891949750929550565b600081519050919050565b7f4e487b7100000000000000000000000000000000000000000000000000000000600052602260045260246000fd5b600060028204905060018216806200055757607f821691505b6020821081036200056d576200056c6200050f565b5b50919050565b60008190508160005260206000209050919050565b60006020601f8301049050919050565b600082821b905092915050565b600060088302620005d77fffffffffffffffffffffffffffffffffffffffffffffffffffffffffffffffff8262000598565b620005e3868362000598565b95508019841693508086168417925050509392505050565b6000819050919050565b600062000626620006206200061a84620003b9565b620005fb565b620003b9565b9050919050565b6000819050919050565b620006428362000605565b6200065a62000651826200062d565b848454620005a5565b825550505050565b600090565b6200067162000662565b6200067e81848462000637565b505050565b5b81811015620006a6576200069a60008262000667565b60018101905062000684565b5050565b601f821115620006f557620006bf8162000573565b620006ca8462000588565b81016020851015620006da578190505b620006f2620006e98562000588565b83018262000683565b50505b505050565b600082821c905092915050565b60006200071a60001984600802620006fa565b1980831691505092915050565b600062000735838362000707565b9150826002028217905092915050565b620007508262000504565b67ffffffffffffffff8111156200076c576200076b62000255565b5b6200077882546200053e565b62000785828285620006aa565b600060209050601f831160018114620007bd5760008415620007a8578287015190505b620007b4858262000727565b86555062000824565b601f198416620007cd8662000573565b60005b82811015620007f757848901518255600182019150602085019450602081019050620007d0565b8683101562000817578489015162000813601f89168262000707565b8355505b6001600288020188555050505b505050505050565b600073ffffffffffffffffffffffffffffffffffffffff82169050919050565b600062000859826200082c565b9050919050565b6200086b816200084c565b82525050565b600060208201905062000888600083018462000860565b92915050565b608051612ce7620008b1600039600081816107dd0152610e820152612ce76000f3fe6080604052600436106101815760003560e01c8063715018a6116100d1578063c87b56dd1161008a578063eb2dbcf611610064578063eb2dbcf614610597578063edca914c146105d4578063f1386cd6146105de578063f2fde38b1461060c57610181565b8063c87b56dd146104ef578063e2bb3ccf1461052c578063e985e9c51461055a57610181565b8063715018a6146103f357806384bd32641461040a5780638da5cb5b1461044757806395d89b4114610472578063a22cb4651461049d578063b88d4fde146104c657610181565b80633d3751ae1161013e5780636031a52f116101185780636031a52f146103255780636352211e14610350578063679ebf1a1461038d57806370a08231146103b657610181565b80633d3751ae146102a857806342842e0e146102d15780635e321dfc146102fa57610181565b806301ffc9a71461018657806306fdde03146101c3578063081812fc146101ee578063095ea7b31461022b5780631209b1f61461025457806323b872dd1461027f575b600080fd5b34801561019257600080fd5b506101ad60048036038101906101a891906121de565b610635565b6040516101ba9190612226565b60405180910390f35b3480156101cf57600080fd5b506101d8610717565b6040516101e591906122d1565b60405180910390f35b3480156101fa57600080fd5b5061021560048036038101906102109190612329565b6107a9565b6040516102229190612397565b60405180910390f35b34801561023757600080fd5b50610252600480360381019061024d91906123de565b6107c5565b005b34801561026057600080fd5b506102696107db565b604051610276919061242d565b60405180910390f35b34801561028b57600080fd5b506102a660048036038101906102a19190612448565b6107ff565b005b3480156102b457600080fd5b506102cf60048036038101906102ca9190612329565b610901565b005b3480156102dd57600080fd5b506102f860048036038101906102f39190612448565b610913565b005b34801561030657600080fd5b5061030f610933565b60405161031c919061242d565b60405180910390f35b34801561033157600080fd5b5061033a610939565b604051610347919061242d565b60405180910390f35b34801561035c57600080fd5b5061037760048036038101906103729190612329565b61093f565b6040516103849190612397565b60405180910390f35b34801561039957600080fd5b506103b460048036038101906103af919061249b565b610951565b005b3480156103c257600080fd5b506103dd60048036038101906103d891906124db565b610a28565b6040516103ea919061242d565b60405180910390f35b3480156103ff57600080fd5b50610408610ae2565b005b34801561041657600080fd5b50610431600480360381019061042c91906124db565b610af6565b60405161043e919061242d565b60405180910390f35b34801561045357600080fd5b5061045c610b0e565b6040516104699190612397565b60405180910390f35b34801561047e57600080fd5b50610487610b38565b60405161049491906122d1565b60405180910390f35b3480156104a957600080fd5b506104c460048036038101906104bf9190612534565b610bca565b005b3480156104d257600080fd5b506104ed60048036038101906104e891906126a9565b610be0565b005b3480156104fb57600080fd5b5061051660048036038101906105119190612329565b610c05565b60405161052391906122d1565b60405180910390f35b34801561053857600080fd5b50610541610c6e565b604051610551949392919061272c565b60405180910390f35b34801561056657600080fd5b50610581600480360381019061057c9190612778565b610d26565b60405161058e9190612226565b60405180910390f35b3480156105a357600080fd5b506105be60048036038101906105b99190612329565b610dba565b6040516105cb9190612397565b60405180910390f35b6105dc610ded565b005b3480156105ea57600080fd5b506105f3611051565b604051610603949392919061272c565b60405180910390f35b34801561061857600080fd5b50610633600480360381019061062e91906124db565b6110f7565b005b60007f80ac58cd000000000000000000000000000000000000000000000000000000007bffffffffffffffffffffffffffffffffffffffffffffffffffffffff1916827bffffffffffffffffffffffffffffffffffffffffffffffffffffffff1916148061070057507f5b5e139f000000000000000000000000000000000000000000000000000000007bffffffffffffffffffffffffffffffffffffffffffffffffffffffff1916827bffffffffffffffffffffffffffffffffffffffffffffffffffffffff1916145b80610710575061070f8261117d565b5b9050919050565b606060008054610726906127e7565b80601f0160208091040260200160405190810160405280929190818152602001828054610752906127e7565b801561079f5780601f106107745761010080835404028352916020019161079f565b820191906000526020600020905b81548152906001019060200180831161078257829003601f168201915b5050505050905090565b60006107b4826111e7565b506107be8261126f565b9050919050565b6107d782826107d26112ac565b6112b4565b5050565b7f000000000000000000000000000000000000000000000000000000000000000081565b600073ffffffffffffffffffffffffffffffffffffffff168273ffffffffffffffffffffffffffffffffffffffff16036108715760006040517f64a0ae920000000000000000000000000000000000000000000000000000000081526004016108689190612397565b60405180910390fd5b600061088583836108806112ac565b6112c6565b90508373ffffffffffffffffffffffffffffffffffffffff168173ffffffffffffffffffffffffffffffffffffffff16146108fb578382826040517f64283d7b0000000000000000000000000000000000000000000000000000000081526004016108f293929190612818565b60405180910390fd5b50505050565b6109096114e0565b80600e8190555050565b61092e83838360405180602001604052806000815250610be0565b505050565b600e5481565b600d5481565b600061094a826111e7565b9050919050565b3373ffffffffffffffffffffffffffffffffffffffff166109718361093f565b73ffffffffffffffffffffffffffffffffffffffff16146109c7576040517f08c379a00000000000000000000000000000000000000000000000000000000081526004016109be9061289b565b60405180910390fd5b6109d2338284611567565b80600b600084815260200190815260200160002060006101000a81548173ffffffffffffffffffffffffffffffffffffffff021916908373ffffffffffffffffffffffffffffffffffffffff1602179055505050565b60008073ffffffffffffffffffffffffffffffffffffffff168273ffffffffffffffffffffffffffffffffffffffff1603610a9b5760006040517f89c62b64000000000000000000000000000000000000000000000000000000008152600401610a929190612397565b60405180910390fd5b600360008373ffffffffffffffffffffffffffffffffffffffff1673ffffffffffffffffffffffffffffffffffffffff168152602001908152602001600020549050919050565b610aea6114e0565b610af460006116d4565b565b600c6020528060005260406000206000915090505481565b6000600660009054906101000a900473ffffffffffffffffffffffffffffffffffffffff16905090565b606060018054610b47906127e7565b80601f0160208091040260200160405190810160405280929190818152602001828054610b73906127e7565b8015610bc05780601f10610b9557610100808354040283529160200191610bc0565b820191906000526020600020905b815481529060010190602001808311610ba357829003601f168201915b5050505050905090565b610bdc610bd56112ac565b838361179a565b5050565b610beb8484846107ff565b610bff610bf66112ac565b85858585611909565b50505050565b6060610c10826111e7565b506000610c1b611aba565b90506000815111610c3b5760405180602001604052806000815250610c66565b80610c4584611ad1565b604051602001610c569291906128f7565b6040516020818303038152906040525b915050919050565b606060008060006007600001600760010154600760020154600760030154838054610c98906127e7565b80601f0160208091040260200160405190810160405280929190818152602001828054610cc4906127e7565b8015610d115780601f10610ce657610100808354040283529160200191610d11565b820191906000526020600020905b815481529060010190602001808311610cf457829003601f168201915b50505050509350935093509350935090919293565b6000600560008473ffffffffffffffffffffffffffffffffffffffff1673ffffffffffffffffffffffffffffffffffffffff16815260200190815260200160002060008373ffffffffffffffffffffffffffffffffffffffff1673ffffffffffffffffffffffffffffffffffffffff16815260200190815260200160002060009054906101000a900460ff16905092915050565b600b6020528060005260406000206000915054906101000a900473ffffffffffffffffffffffffffffffffffffffff1681565b6007600101544210610e34576040517f08c379a0000000000000000000000000000000000000000000000000000000008152600401610e2b90612967565b60405180910390fd5b60076002015460076003015410610e80576040517f08c379a0000000000000000000000000000000000000000000000000000000008152600401610e77906129d3565b60405180910390fd5b7f00000000000000000000000000000000000000000000000000000000000000003414610ee2576040517f08c379a0000000000000000000000000000000000000000000000000000000008152600401610ed990612a3f565b60405180910390fd5b600e54600c60003373ffffffffffffffffffffffffffffffffffffffff1673ffffffffffffffffffffffffffffffffffffffff1681526020019081526020016000205410610f65576040517f08c379a0000000000000000000000000000000000000000000000000000000008152600401610f5c90612aab565b60405180910390fd5b33600b6000600d54815260200190815260200160002060006101000a81548173ffffffffffffffffffffffffffffffffffffffff021916908373ffffffffffffffffffffffffffffffffffffffff160217905550610fc533600d54611b9f565b600d6000815480929190610fd890612afa565b919050555060076003016000815480929190610ff390612afa565b91905055506001600c60003373ffffffffffffffffffffffffffffffffffffffff1673ffffffffffffffffffffffffffffffffffffffff16815260200190815260200160002060008282546110489190612b42565b92505081905550565b6007806000018054611062906127e7565b80601f016020809104026020016040519081016040528092919081815260200182805461108e906127e7565b80156110db5780601f106110b0576101008083540402835291602001916110db565b820191906000526020600020905b8154815290600101906020018083116110be57829003601f168201915b5050505050908060010154908060020154908060030154905084565b6110ff6114e0565b600073ffffffffffffffffffffffffffffffffffffffff168173ffffffffffffffffffffffffffffffffffffffff16036111715760006040517f1e4fbdf70000000000000000000000000000000000000000000000000000000081526004016111689190612397565b60405180910390fd5b61117a816116d4565b50565b60007f01ffc9a7000000000000000000000000000000000000000000000000000000007bffffffffffffffffffffffffffffffffffffffffffffffffffffffff1916827bffffffffffffffffffffffffffffffffffffffffffffffffffffffff1916149050919050565b6000806111f383611c98565b9050600073ffffffffffffffffffffffffffffffffffffffff168173ffffffffffffffffffffffffffffffffffffffff160361126657826040517f7e27328900000000000000000000000000000000000000000000000000000000815260040161125d919061242d565b60405180910390fd5b80915050919050565b60006004600083815260200190815260200160002060009054906101000a900473ffffffffffffffffffffffffffffffffffffffff169050919050565b600033905090565b6112c18383836001611cd5565b505050565b6000806112d284611c98565b9050600073ffffffffffffffffffffffffffffffffffffffff168373ffffffffffffffffffffffffffffffffffffffff161461131457611313818486611e9a565b5b600073ffffffffffffffffffffffffffffffffffffffff168173ffffffffffffffffffffffffffffffffffffffff16146113a557611356600085600080611cd5565b6001600360008373ffffffffffffffffffffffffffffffffffffffff1673ffffffffffffffffffffffffffffffffffffffff168152602001908152602001600020600082825403925050819055505b600073ffffffffffffffffffffffffffffffffffffffff168573ffffffffffffffffffffffffffffffffffffffff1614611428576001600360008773ffffffffffffffffffffffffffffffffffffffff1673ffffffffffffffffffffffffffffffffffffffff168152602001908152602001600020600082825401925050819055505b846002600086815260200190815260200160002060006101000a81548173ffffffffffffffffffffffffffffffffffffffff021916908373ffffffffffffffffffffffffffffffffffffffff160217905550838573ffffffffffffffffffffffffffffffffffffffff168273ffffffffffffffffffffffffffffffffffffffff167fddf252ad1be2c89b69c2b068fc378daa952ba7f163c4a11628f55a4df523b3ef60405160405180910390a4809150509392505050565b6114e86112ac565b73ffffffffffffffffffffffffffffffffffffffff16611506610b0e565b73ffffffffffffffffffffffffffffffffffffffff1614611565576115296112ac565b6040517f118cdaa700000000000000000000000000000000000000000000000000000000815260040161155c9190612397565b60405180910390fd5b565b600073ffffffffffffffffffffffffffffffffffffffff168273ffffffffffffffffffffffffffffffffffffffff16036115d95760006040517f64a0ae920000000000000000000000000000000000000000000000000000000081526004016115d09190612397565b60405180910390fd5b60006115e7838360006112c6565b9050600073ffffffffffffffffffffffffffffffffffffffff168173ffffffffffffffffffffffffffffffffffffffff160361165a57816040517f7e273289000000000000000000000000000000000000000000000000000000008152600401611651919061242d565b60405180910390fd5b8373ffffffffffffffffffffffffffffffffffffffff168173ffffffffffffffffffffffffffffffffffffffff16146116ce578382826040517f64283d7b0000000000000000000000000000000000000000000000000000000081526004016116c593929190612818565b60405180910390fd5b50505050565b6000600660009054906101000a900473ffffffffffffffffffffffffffffffffffffffff16905081600660006101000a81548173ffffffffffffffffffffffffffffffffffffffff021916908373ffffffffffffffffffffffffffffffffffffffff1602179055508173ffffffffffffffffffffffffffffffffffffffff168173ffffffffffffffffffffffffffffffffffffffff167f8be0079c531659141344cd1fd0a4f28419497f9722a3daafe3b4186f6b6457e060405160405180910390a35050565b600073ffffffffffffffffffffffffffffffffffffffff168273ffffffffffffffffffffffffffffffffffffffff160361180b57816040517f5b08ba180000000000000000000000000000000000000000000000000000000081526004016118029190612397565b60405180910390fd5b80600560008573ffffffffffffffffffffffffffffffffffffffff1673ffffffffffffffffffffffffffffffffffffffff16815260200190815260200160002060008473ffffffffffffffffffffffffffffffffffffffff1673ffffffffffffffffffffffffffffffffffffffff16815260200190815260200160002060006101000a81548160ff0219169083151502179055508173ffffffffffffffffffffffffffffffffffffffff168373ffffffffffffffffffffffffffffffffffffffff167f17307eab39ab6107e8899845ad3d59bd9653f200f220920489ca2b5937696c31836040516118fc9190612226565b60405180910390a3505050565b60008373ffffffffffffffffffffffffffffffffffffffff163b1115611ab3578273ffffffffffffffffffffffffffffffffffffffff1663150b7a02868685856040518563ffffffff1660e01b81526004016119689493929190612bcb565b6020604051808303816000875af19250505080156119a457506040513d601f19601f820116820180604052508101906119a19190612c2c565b60015b611a28573d80600081146119d4576040519150601f19603f3d011682016040523d82523d6000602084013e6119d9565b606091505b506000815103611a2057836040517f64a0ae92000000000000000000000000000000000000000000000000000000008152600401611a179190612397565b60405180910390fd5b805181602001fd5b63150b7a0260e01b7bffffffffffffffffffffffffffffffffffffffffffffffffffffffff1916817bffffffffffffffffffffffffffffffffffffffffffffffffffffffff191614611ab157836040517f64a0ae92000000000000000000000000000000000000000000000000000000008152600401611aa89190612397565b60405180910390fd5b505b5050505050565b606060405180602001604052806000815250905090565b606060006001611ae084611f5e565b01905060008167ffffffffffffffff811115611aff57611afe61257e565b5b6040519080825280601f01601f191660200182016040528015611b315781602001600182028036833780820191505090505b509050600082602001820190505b600115611b94578080600190039150507f3031323334353637383961626364656600000000000000000000000000000000600a86061a8153600a8581611b8857611b87612c59565b5b04945060008503611b3f575b819350505050919050565b600073ffffffffffffffffffffffffffffffffffffffff168273ffffffffffffffffffffffffffffffffffffffff1603611c115760006040517f64a0ae92000000000000000000000000000000000000000000000000000000008152600401611c089190612397565b60405180910390fd5b6000611c1f838360006112c6565b9050600073ffffffffffffffffffffffffffffffffffffffff168173ffffffffffffffffffffffffffffffffffffffff1614611c935760006040517f73c6ac6e000000000000000000000000000000000000000000000000000000008152600401611c8a9190612397565b60405180910390fd5b505050565b60006002600083815260200190815260200160002060009054906101000a900473ffffffffffffffffffffffffffffffffffffffff169050919050565b8080611d0e5750600073ffffffffffffffffffffffffffffffffffffffff168273ffffffffffffffffffffffffffffffffffffffff1614155b15611e42576000611d1e846111e7565b9050600073ffffffffffffffffffffffffffffffffffffffff168373ffffffffffffffffffffffffffffffffffffffff1614158015611d8957508273ffffffffffffffffffffffffffffffffffffffff168173ffffffffffffffffffffffffffffffffffffffff1614155b8015611d9c5750611d9a8184610d26565b155b15611dde57826040517fa9fbf51f000000000000000000000000000000000000000000000000000000008152600401611dd59190612397565b60405180910390fd5b8115611e4057838573ffffffffffffffffffffffffffffffffffffffff168273ffffffffffffffffffffffffffffffffffffffff167f8c5be1e5ebec7d5bd14f71427d1e84f3dd0314c0f7b2291e5b200ac8c7c3b92560405160405180910390a45b505b836004600085815260200190815260200160002060006101000a81548173ffffffffffffffffffffffffffffffffffffffff021916908373ffffffffffffffffffffffffffffffffffffffff16021790555050505050565b611ea58383836120b1565b611f5957600073ffffffffffffffffffffffffffffffffffffffff168373ffffffffffffffffffffffffffffffffffffffff1603611f1a57806040517f7e273289000000000000000000000000000000000000000000000000000000008152600401611f11919061242d565b60405180910390fd5b81816040517f177e802f000000000000000000000000000000000000000000000000000000008152600401611f50929190612c88565b60405180910390fd5b505050565b600080600090507a184f03e93ff9f4daa797ed6e38ed64bf6a1f0100000000000000008310611fbc577a184f03e93ff9f4daa797ed6e38ed64bf6a1f0100000000000000008381611fb257611fb1612c59565b5b0492506040810190505b6d04ee2d6d415b85acef81000000008310611ff9576d04ee2d6d415b85acef81000000008381611fef57611fee612c59565b5b0492506020810190505b662386f26fc10000831061202857662386f26fc10000838161201e5761201d612c59565b5b0492506010810190505b6305f5e1008310612051576305f5e100838161204757612046612c59565b5b0492506008810190505b612710831061207657612710838161206c5761206b612c59565b5b0492506004810190505b60648310612099576064838161208f5761208e612c59565b5b0492506002810190505b600a83106120a8576001810190505b80915050919050565b60008073ffffffffffffffffffffffffffffffffffffffff168373ffffffffffffffffffffffffffffffffffffffff161415801561216957508273ffffffffffffffffffffffffffffffffffffffff168473ffffffffffffffffffffffffffffffffffffffff16148061212a57506121298484610d26565b5b8061216857508273ffffffffffffffffffffffffffffffffffffffff166121508361126f565b73ffffffffffffffffffffffffffffffffffffffff16145b5b90509392505050565b6000604051905090565b600080fd5b600080fd5b60007fffffffff0000000000000000000000000000000000000000000000000000000082169050919050565b6121bb81612186565b81146121c657600080fd5b50565b6000813590506121d8816121b2565b92915050565b6000602082840312156121f4576121f361217c565b5b6000612202848285016121c9565b91505092915050565b60008115159050919050565b6122208161220b565b82525050565b600060208201905061223b6000830184612217565b92915050565b600081519050919050565b600082825260208201905092915050565b60005b8381101561227b578082015181840152602081019050612260565b60008484015250505050565b6000601f19601f8301169050919050565b60006122a382612241565b6122ad818561224c565b93506122bd81856020860161225d565b6122c681612287565b840191505092915050565b600060208201905081810360008301526122eb8184612298565b905092915050565b6000819050919050565b612306816122f3565b811461231157600080fd5b50565b600081359050612323816122fd565b92915050565b60006020828403121561233f5761233e61217c565b5b600061234d84828501612314565b91505092915050565b600073ffffffffffffffffffffffffffffffffffffffff82169050919050565b600061238182612356565b9050919050565b61239181612376565b82525050565b60006020820190506123ac6000830184612388565b92915050565b6123bb81612376565b81146123c657600080fd5b50565b6000813590506123d8816123b2565b92915050565b600080604083850312156123f5576123f461217c565b5b6000612403858286016123c9565b925050602061241485828601612314565b9150509250929050565b612427816122f3565b82525050565b6000602082019050612442600083018461241e565b92915050565b6000806000606084860312156124615761246061217c565b5b600061246f868287016123c9565b9350506020612480868287016123c9565b925050604061249186828701612314565b9150509250925092565b600080604083850312156124b2576124b161217c565b5b60006124c085828601612314565b92505060206124d1858286016123c9565b9150509250929050565b6000602082840312156124f1576124f061217c565b5b60006124ff848285016123c9565b91505092915050565b6125118161220b565b811461251c57600080fd5b50565b60008135905061252e81612508565b92915050565b6000806040838503121561254b5761254a61217c565b5b6000612559858286016123c9565b925050602061256a8582860161251f565b9150509250929050565b600080fd5b600080fd5b7f4e487b7100000000000000000000000000000000000000000000000000000000600052604160045260246000fd5b6125b682612287565b810181811067ffffffffffffffff821117156125d5576125d461257e565b5b80604052505050565b60006125e8612172565b90506125f482826125ad565b919050565b600067ffffffffffffffff8211156126145761261361257e565b5b61261d82612287565b9050602081019050919050565b82818337600083830152505050565b600061264c612647846125f9565b6125de565b90508281526020810184848401111561266857612667612579565b5b61267384828561262a565b509392505050565b600082601f8301126126905761268f612574565b5b81356126a0848260208601612639565b91505092915050565b600080600080608085870312156126c3576126c261217c565b5b60006126d1878288016123c9565b94505060206126e2878288016123c9565b93505060406126f387828801612314565b925050606085013567ffffffffffffffff81111561271457612713612181565b5b6127208782880161267b565b91505092959194509250565b600060808201905081810360008301526127468187612298565b9050612755602083018661241e565b612762604083018561241e565b61276f606083018461241e565b95945050505050565b6000806040838503121561278f5761278e61217c565b5b600061279d858286016123c9565b92505060206127ae858286016123c9565b9150509250929050565b7f4e487b7100000000000000000000000000000000000000000000000000000000600052602260045260246000fd5b600060028204905060018216806127ff57607f821691505b602082108103612812576128116127b8565b5b50919050565b600060608201905061282d6000830186612388565b61283a602083018561241e565b6128476040830184612388565b949350505050565b7f596f7520646f206e6f74206f776e2074686973207469636b6574000000000000600082015250565b6000612885601a8361224c565b91506128908261284f565b602082019050919050565b600060208201905081810360008301526128b481612878565b9050919050565b600081905092915050565b60006128d182612241565b6128db81856128bb565b93506128eb81856020860161225d565b80840191505092915050565b600061290382856128c6565b915061290f82846128c6565b91508190509392505050565b7f4576656e742068617320616c7265616479206f63637572726564000000000000600082015250565b6000612951601a8361224c565b915061295c8261291b565b602082019050919050565b6000602082019050818103600083015261298081612944565b9050919050565b7f416c6c207469636b65747320736f6c6400000000000000000000000000000000600082015250565b60006129bd60108361224c565b91506129c882612987565b602082019050919050565b600060208201905081810360008301526129ec816129b0565b9050919050565b7f496e73756666696369656e74207061796d656e74000000000000000000000000600082015250565b6000612a2960148361224c565b9150612a34826129f3565b602082019050919050565b60006020820190508181036000830152612a5881612a1c565b9050919050565b7f5469636b6574207075726368617365206c696d69742072656163686564000000600082015250565b6000612a95601d8361224c565b9150612aa082612a5f565b602082019050919050565b60006020820190508181036000830152612ac481612a88565b9050919050565b7f4e487b7100000000000000000000000000000000000000000000000000000000600052601160045260246000fd5b6000612b05826122f3565b91507fffffffffffffffffffffffffffffffffffffffffffffffffffffffffffffffff8203612b3757612b36612acb565b5b600182019050919050565b6000612b4d826122f3565b9150612b58836122f3565b9250828201905080821115612b7057612b6f612acb565b5b92915050565b600081519050919050565b600082825260208201905092915050565b6000612b9d82612b76565b612ba78185612b81565b9350612bb781856020860161225d565b612bc081612287565b840191505092915050565b6000608082019050612be06000830187612388565b612bed6020830186612388565b612bfa604083018561241e565b8181036060830152612c0c8184612b92565b905095945050505050565b600081519050612c26816121b2565b92915050565b600060208284031215612c4257612c4161217c565b5b6000612c5084828501612c17565b91505092915050565b7f4e487b7100000000000000000000000000000000000000000000000000000000600052601260045260246000fd5b6000604082019050612c9d6000830185612388565b612caa602083018461241e565b939250505056fea2646970667358221220f3063d45f969c0b94e3d9b47bb6ab76af20393f917305c941c028878674d4f3c64736f6c63430008140033a26469706673582212206577756590c19ba31290ba094420a06a0b7cb0d7910349bc15bdda3ac7be31c164736f6c63430008140033",
  "linkReferences": {},
  "deployedLinkReferences": {}
}