{
  "_format": "hh-sol-artifact-1",
  "contractName": "EventTicketFactory",
  "sourceName": "contracts/EventTicketFactory.sol",
  "abi": [
    {
      "anonymous": false,
      "inputs": [
        {
          "indexed": true,
          "internalType": "address",
          "name": "eventContractAddress",
          "type": "address"
        },
        {
          "indexed": true,
          "internalType": "address",
          "name": "creator",
          "type": "address"
        },
        {
          "indexed": false,
          "internalType": "string",
          "name": "erc721Name",
          "type": "string"
        },
        {
          "indexed": false,
          "internalType": "string",
          "name": "eventName",
          "type": "string"
        },
        {
          "indexed": false,
          "internalType": "uint256",
          "name": "date",
          "type": "uint256"
        },
        {
          "indexed": false,
          "internalType": "uint256",
          "name": "totalTickets",
          "type": "uint256"
        },
        {
          "indexed": false,
          "internalType": "uint256",
          "name": "ticketPriceInUSDC",
          "type": "uint256"
        },
        {
          "indexed": false,
          "internalType": "address",
          "name": "usdcTokenAddress",
          "type": "address"
        },
        {
          "indexed": false,
          "internalType": "string",
          "name": "eventImageIPFSPath",
          "type": "string"
        }
      ],
      "name": "EventCreated",
      "type": "event"
    },
    {
      "inputs": [
        {
          "internalType": "string",
          "name": "_erc721Name",
          "type": "string"
        },
        {
          "internalType": "string",
          "name": "_erc721Symbol",
          "type": "string"
        },
        {
          "internalType": "string",
          "name": "_eventName",
          "type": "string"
        },
        {
          "internalType": "uint256",
          "name": "_date",
          "type": "uint256"
        },
        {
          "internalType": "uint256",
          "name": "_totalTickets",
          "type": "uint256"
        },
        {
          "internalType": "uint256",
          "name": "_ticketPriceInUSDC",
          "type": "uint256"
        },
        {
          "internalType": "uint256",
          "name": "_ticketLimit",
          "type": "uint256"
        },
        {
          "internalType": "address",
          "name": "_usdcTokenAddress",
          "type": "address"
        },
        {
          "internalType": "string",
          "name": "_eventImageIPFSPath",
          "type": "string"
        }
      ],
      "name": "createEvent",
      "outputs": [],
      "stateMutability": "nonpayable",
      "type": "function"
    },
    {
      "inputs": [
        {
          "internalType": "uint256",
          "name": "",
          "type": "uint256"
        }
      ],
      "name": "eventContracts",
      "outputs": [
        {
          "internalType": "address",
          "name": "",
          "type": "address"
        }
      ],
      "stateMutability": "view",
      "type": "function"
    },
    {
      "inputs": [],
      "name": "getAllEventAddresses",
      "outputs": [
        {
          "internalType": "address[]",
          "name": "",
          "type": "address[]"
        }
      ],
      "stateMutability": "view",
      "type": "function"
    }
  ],
  "bytecode": "0x608060405234801561001057600080fd5b50613e10806100206000396000f3fe60806040523480156200001157600080fd5b5060043610620000465760003560e01c80630bd52317146200004b5780632505607b146200006d57806357e27bc01462000086575b600080fd5b62000055620000b6565b60405162000064919062000587565b60405180910390f35b620000846200007e3660046200069e565b62000190565b005b6200009d6200009736600462000792565b6200054e565b6040516001600160a01b03909116815260200162000064565b600080546060919067ffffffffffffffff811115620000d957620000d9620005d6565b60405190808252806020026020018201604052801562000103578160200160208202803683370190505b50905060005b6000548110156200018a57600081815481106200012a576200012a620007ac565b9060005260206000200160009054906101000a90046001600160a01b03168282815181106200015d576200015d620007ac565b6001600160a01b0390921660209283029190910190910152806200018181620007c2565b91505062000109565b50919050565b6000895111620001e75760405162461bcd60e51b815260206004820152601b60248201527f455243373231206e616d652063616e6e6f7420626520656d707479000000000060448201526064015b60405180910390fd5b60008851116200023a5760405162461bcd60e51b815260206004820152601d60248201527f4552433732312073796d626f6c2063616e6e6f7420626520656d7074790000006044820152606401620001de565b60008751116200028d5760405162461bcd60e51b815260206004820152601a60248201527f4576656e74206e616d652063616e6e6f7420626520656d7074790000000000006044820152606401620001de565b428611620002de5760405162461bcd60e51b815260206004820181905260248201527f4576656e742064617465206d75737420626520696e20746865206675747572656044820152606401620001de565b600085116200033c5760405162461bcd60e51b8152602060048201526024808201527f546f74616c207469636b657473206d75737420626520677265617465722074686044820152630616e20360e41b6064820152608401620001de565b600083116200039a5760405162461bcd60e51b815260206004820152602360248201527f5469636b6574206c696d6974206d75737420626520677265617465722074686160448201526206e20360ec1b6064820152608401620001de565b84831115620003fd5760405162461bcd60e51b815260206004820152602860248201527f5469636b6574206c696d69742063616e6e6f742065786365656420746f74616c604482015267207469636b65747360c01b6064820152608401620001de565b6001600160a01b0382166200045f5760405162461bcd60e51b815260206004820152602160248201527f5553444320746f6b656e20616464726573732063616e6e6f74206265207a65726044820152606f60f81b6064820152608401620001de565b600089898989898989898933604051620004799062000579565b6200048e9a9998979695949392919062000832565b604051809103906000f080158015620004ab573d6000803e3d6000fd5b50600080546001810182559080527f290decd9548b62a8d60345a988386fc84ba6bc95484008f6362f93160ef3e5630180546001600160a01b0319166001600160a01b03831690811790915560405191925033917f33afa7f1e1a6660444c6f94cdd35f215e4fac76c24665ee9f72643351eae8e0f906200053a908e908d908d908d908d908c908c90620008ce565b60405180910390a350505050505050505050565b600081815481106200055f57600080fd5b6000918252602090912001546001600160a01b0316905081565b61349b806200094083390190565b6020808252825182820181905260009190848201906040850190845b81811015620005ca5783516001600160a01b031683529284019291840191600101620005a3565b50909695505050505050565b634e487b7160e01b600052604160045260246000fd5b600082601f830112620005fe57600080fd5b813567ffffffffffffffff808211156200061c576200061c620005d6565b604051601f8301601f19908116603f01168101908282118183101715620006475762000647620005d6565b816040528381528660208588010111156200066157600080fd5b836020870160208301376000602085830101528094505050505092915050565b80356001600160a01b03811681146200069957600080fd5b919050565b60008060008060008060008060006101208a8c031215620006be57600080fd5b893567ffffffffffffffff80821115620006d757600080fd5b620006e58d838e01620005ec565b9a5060208c0135915080821115620006fc57600080fd5b6200070a8d838e01620005ec565b995060408c01359150808211156200072157600080fd5b6200072f8d838e01620005ec565b985060608c0135975060808c0135965060a08c0135955060c08c013594506200075b60e08d0162000681565b93506101008c01359150808211156200077357600080fd5b50620007828c828d01620005ec565b9150509295985092959850929598565b600060208284031215620007a557600080fd5b5035919050565b634e487b7160e01b600052603260045260246000fd5b600060018201620007e357634e487b7160e01b600052601160045260246000fd5b5060010190565b6000815180845260005b818110156200081257602081850181015186830182015201620007f4565b506000602082860101526020601f19601f83011685010191505092915050565b6000610140808352620008488184018e620007ea565b905082810360208401526200085e818d620007ea565b9050828103604084015262000874818c620007ea565b90508960608401528860808401528760a08401528660c084015260018060a01b0380871660e0850152838203610100850152620008b28287620007ea565b925080851661012085015250509b9a5050505050505050505050565b60e081526000620008e360e083018a620007ea565b8281036020840152620008f7818a620007ea565b6040840189905260608401889052608084018790526001600160a01b03861660a085015283810360c08501529050620009318185620007ea565b9a995050505050505050505056fe60a06040523480156200001157600080fd5b506040516200349b3803806200349b8339810160408190526200003491620005a8565b808a8a60006200004583826200073e565b5060016200005482826200073e565b5050506001600160a01b0381166200008757604051631e4fbdf760e01b8152600060048201526024015b60405180910390fd5b620000928162000474565b506001600160a01b038116620000f75760405162461bcd60e51b8152602060048201526024808201527f496e697469616c206f776e65722063616e6e6f74206265207a65726f206164646044820152637265737360e01b60648201526084016200007e565b60008a51116200014a5760405162461bcd60e51b815260206004820152601b60248201527f455243373231206e616d652063616e6e6f7420626520656d707479000000000060448201526064016200007e565b60008951116200019d5760405162461bcd60e51b815260206004820152601d60248201527f4552433732312073796d626f6c2063616e6e6f7420626520656d70747900000060448201526064016200007e565b6000885111620001f05760405162461bcd60e51b815260206004820152601a60248201527f4576656e74206e616d652063616e6e6f7420626520656d70747900000000000060448201526064016200007e565b428711620002415760405162461bcd60e51b815260206004820181905260248201527f4576656e742064617465206d75737420626520696e207468652066757475726560448201526064016200007e565b600086116200029f5760405162461bcd60e51b8152602060048201526024808201527f546f74616c207469636b657473206d75737420626520677265617465722074686044820152630616e20360e41b60648201526084016200007e565b60008411620002fd5760405162461bcd60e51b815260206004820152602360248201527f5469636b6574206c696d6974206d75737420626520677265617465722074686160448201526206e20360ec1b60648201526084016200007e565b85841115620003605760405162461bcd60e51b815260206004820152602860248201527f5469636b6574206c696d69742063616e6e6f742065786365656420746f74616c604482015267207469636b65747360c01b60648201526084016200007e565b6001600160a01b038316620003c25760405162461bcd60e51b815260206004820152602160248201527f5553444320746f6b656e20616464726573732063616e6e6f74206265207a65726044820152606f60f81b60648201526084016200007e565b6040805160a081018252898152602081018990529081018790526000606082018190526080820152600780620003f98b826200073e565b506020820151600182015560408201516002820155606082015160038201556080918201516004909101805460ff19169115159190911790558590526010849055601180546001600160a01b0319166001600160a01b03851617905560126200046383826200073e565b50505050505050505050506200080a565b600680546001600160a01b038381166001600160a01b0319831681179093556040519116919082907f8be0079c531659141344cd1fd0a4f28419497f9722a3daafe3b4186f6b6457e090600090a35050565b634e487b7160e01b600052604160045260246000fd5b600082601f830112620004ee57600080fd5b81516001600160401b03808211156200050b576200050b620004c6565b604051601f8301601f19908116603f01168101908282118183101715620005365762000536620004c6565b816040528381526020925086838588010111156200055357600080fd5b600091505b8382101562000577578582018301518183018401529082019062000558565b600093810190920192909252949350505050565b80516001600160a01b0381168114620005a357600080fd5b919050565b6000806000806000806000806000806101408b8d031215620005c957600080fd5b8a516001600160401b0380821115620005e157600080fd5b620005ef8e838f01620004dc565b9b5060208d01519150808211156200060657600080fd5b620006148e838f01620004dc565b9a5060408d01519150808211156200062b57600080fd5b620006398e838f01620004dc565b995060608d0151985060808d0151975060a08d0151965060c08d015195506200066560e08e016200058b565b94506101008d01519150808211156200067d57600080fd5b506200068c8d828e01620004dc565b9250506200069e6101208c016200058b565b90509295989b9194979a5092959850565b600181811c90821680620006c457607f821691505b602082108103620006e557634e487b7160e01b600052602260045260246000fd5b50919050565b601f8211156200073957600081815260208120601f850160051c81016020861015620007145750805b601f850160051c820191505b81811015620007355782815560010162000720565b5050505b505050565b81516001600160401b038111156200075a576200075a620004c6565b62000772816200076b8454620006af565b84620006eb565b602080601f831160018114620007aa5760008415620007915750858301515b600019600386901b1c1916600185901b17855562000735565b600085815260208120601f198616915b82811015620007db57888601518255948401946001909101908401620007ba565b5085821015620007fa5787850151600019600388901b60f8161c191681555b5050505050600190811b01905550565b608051612c606200083b60003960008181610365015281816113b10152818161199d0152611a620152612c606000f3fe6080604052600436106102305760003560e01c8063679ebf1a1161012e578063b88d4fde116100ab578063edca914c1161006f578063edca914c146106c9578063f1386cd6146106d1578063f2fde38b146106e6578063fb6c953714610706578063fb87774c1461071b57600080fd5b8063b88d4fde14610623578063c87b56dd14610643578063e2bb3ccf14610663578063e82de7e814610689578063e985e9c5146106a957600080fd5b80638da5cb5b116100f25780638da5cb5b146105a657806395d89b41146105c4578063a22cb465146105d9578063ac32935d146105f9578063b5545a3c1461060e57600080fd5b8063679ebf1a1461050f5780636deb5cb11461052f57806370a0823114610544578063715018a61461056457806384bd32641461057957600080fd5b806324600fc3116101bc57806355f804b31161018057806355f804b31461046a5780635e321dfc1461048a5780636031a52f146104a05780636352211e146104b657806365c2944e146104d657600080fd5b806324600fc3146103b55780632b6b0633146103ca578063336ccba5146103fa5780633d3751ae1461042a57806342842e0e1461044a57600080fd5b8063095ea7b311610203578063095ea7b3146102f15780630a15fa8b1461031357806311eac855146103335780631209b1f61461035357806323b872dd1461039557600080fd5b806301ffc9a7146102355780630484a22f1461026a57806306fdde0314610297578063081812fc146102b9575b600080fd5b34801561024157600080fd5b506102556102503660046125f9565b61073b565b60405190151581526020015b60405180910390f35b34801561027657600080fd5b5061028a610285366004612632565b61078d565b604051610261919061264d565b3480156102a357600080fd5b506102ac610875565b60405161026191906126e1565b3480156102c557600080fd5b506102d96102d43660046126f4565b610907565b6040516001600160a01b039091168152602001610261565b3480156102fd57600080fd5b5061031161030c36600461270d565b610930565b005b34801561031f57600080fd5b5061031161032e3660046126f4565b61093f565b34801561033f57600080fd5b506011546102d9906001600160a01b031681565b34801561035f57600080fd5b506103877f000000000000000000000000000000000000000000000000000000000000000081565b604051908152602001610261565b3480156103a157600080fd5b506103116103b0366004612737565b610afd565b3480156103c157600080fd5b50610311610b88565b3480156103d657600080fd5b506102556103e5366004612632565b600e6020526000908152604090205460ff1681565b34801561040657600080fd5b506102556104153660046126f4565b600d6020526000908152604090205460ff1681565b34801561043657600080fd5b506103116104453660046126f4565b610e2b565b34801561045657600080fd5b50610311610465366004612737565b610f67565b34801561047657600080fd5b506103116104853660046127ff565b610f87565b34801561049657600080fd5b5061038760105481565b3480156104ac57600080fd5b50610387600f5481565b3480156104c257600080fd5b506102d96104d13660046126f4565b610fec565b3480156104e257600080fd5b506102556104f1366004612632565b6001600160a01b03166000908152600e602052604090205460ff1690565b34801561051b57600080fd5b5061031161052a366004612848565b610ff7565b34801561053b57600080fd5b506102ac611142565b34801561055057600080fd5b5061038761055f366004612632565b6111d0565b34801561057057600080fd5b50610311611218565b34801561058557600080fd5b50610387610594366004612632565b600c6020526000908152604090205481565b3480156105b257600080fd5b506006546001600160a01b03166102d9565b3480156105d057600080fd5b506102ac61122c565b3480156105e557600080fd5b506103116105f4366004612882565b61123b565b34801561060557600080fd5b506102ac611246565b34801561061a57600080fd5b50610311611255565b34801561062f57600080fd5b5061031161063e3660046128b9565b6115d4565b34801561064f57600080fd5b506102ac61065e3660046126f4565b6115ec565b34801561066f57600080fd5b50610678611654565b604051610261959493929190612935565b34801561069557600080fd5b506102556106a436600461270d565b611713565b3480156106b557600080fd5b506102556106c436600461296e565b611760565b61031161178e565b3480156106dd57600080fd5b50610678611bca565b3480156106f257600080fd5b50610311610701366004612632565b611c78565b34801561071257600080fd5b50610311611cb6565b34801561072757600080fd5b506102556107363660046126f4565b611dbd565b60006001600160e01b031982166380ac58cd60e01b148061076c57506001600160e01b03198216635b5e139f60e01b145b8061078757506301ffc9a760e01b6001600160e01b03198316145b92915050565b6060600061079a836111d0565b905060008167ffffffffffffffff8111156107b7576107b7612773565b6040519080825280602002602001820160405280156107e0578160200160208202803683370190505b5090506000805b600f5481101561086b576107fc81600f541190565b80156108215750856001600160a01b031661081682610fec565b6001600160a01b0316145b15610859578083838151811061083957610839612998565b60209081029190910101528161084e816129c4565b92505083821461086b575b80610863816129c4565b9150506107e7565b5090949350505050565b606060008054610884906129dd565b80601f01602080910402602001604051908101604052809291908181526020018280546108b0906129dd565b80156108fd5780601f106108d2576101008083540402835291602001916108fd565b820191906000526020600020905b8154815290600101906020018083116108e057829003601f168201915b5050505050905090565b600061091282611dfc565b506000828152600460205260409020546001600160a01b0316610787565b61093b828233611e35565b5050565b610947611e42565b600b5460ff161561099f5760405162461bcd60e51b815260206004820152601860248201527f4576656e7420686173206265656e2063616e63656c65642e000000000000000060448201526064015b60405180910390fd5b6109aa81600f541190565b6109c65760405162461bcd60e51b815260040161099690612a17565b60006109d182610fec565b6001600160a01b031603610a335760405162461bcd60e51b815260206004820152602360248201527f5469636b657420646f6573206e6f74206861766520612076616c6964206f776e60448201526232b91760e91b6064820152608401610996565b6000818152600d602052604090205460ff1615610aa25760405162461bcd60e51b815260206004820152602760248201527f5469636b65742068617320616c7265616479206265656e206d61726b6564206160448201526639903ab9b2b21760c91b6064820152608401610996565b6000818152600d60205260409020805460ff19166001179055610ac481610fec565b6001600160a01b0316817ff23b1427e2e3d04905029561ed001085506f5bc45ebd846d84b01c489ff6710f60405160405180910390a350565b6001600160a01b038216610b2757604051633250574960e11b815260006004820152602401610996565b6000610b34838333611e6f565b9050836001600160a01b0316816001600160a01b031614610b82576040516364283d7b60e01b81526001600160a01b0380861660048301526024820184905282166044820152606401610996565b50505050565b610b90611e42565b600b5460ff1615610c185760405162461bcd60e51b815260206004820152604660248201527f43616e6e6f742077697468647261772066756e64732066726f6d20612063616e60448201527f63656c6564206576656e743b20726566756e6473206d69676874206265207065606482015265373234b7339760d11b608482015260a401610996565b6008544211610c865760405162461bcd60e51b815260206004820152603460248201527f43616e6e6f742077697468647261772066756e6473206265666f7265207468656044820152731032bb32b73a103430b99037b1b1bab93932b21760611b6064820152608401610996565b6011546040516370a0823160e01b81523060048201526000916001600160a01b0316906370a0823190602401602060405180830381865afa158015610ccf573d6000803e3d6000fd5b505050506040513d601f19601f82011682018060405250810190610cf39190612a4e565b905060008111610d455760405162461bcd60e51b815260206004820152601a60248201527f4e6f20555344432066756e647320746f2077697468647261772e0000000000006044820152606401610996565b6011546000906001600160a01b031663a9059cbb610d6b6006546001600160a01b031690565b6040516001600160e01b031960e084901b1681526001600160a01b039091166004820152602481018590526044016020604051808303816000875af1158015610db8573d6000803e3d6000fd5b505050506040513d601f19601f82011682018060405250810190610ddc9190612a67565b90508061093b5760405162461bcd60e51b815260206004820152601760248201527f55534443207769746864726177616c206661696c65642e0000000000000000006044820152606401610996565b610e33611e42565b600b5460ff1615610e9b5760405162461bcd60e51b815260206004820152602c60248201527f4576656e7420686173206265656e2063616e63656c65642c2063616e6e6f742060448201526b18da185b99d9481b1a5b5a5d60a21b6064820152608401610996565b60008111610efb5760405162461bcd60e51b815260206004820152602760248201527f4e6577207469636b6574206c696d6974206d75737420626520677265617465726044820152660207468616e20360cc1b6064820152608401610996565b600954811115610f625760405162461bcd60e51b815260206004820152602c60248201527f4e6577207469636b6574206c696d69742063616e6e6f7420657863656564207460448201526b6f74616c207469636b65747360a01b6064820152608401610996565b601055565b610f82838383604051806020016040528060008152506115d4565b505050565b610f8f611e42565b6000815111610fe05760405162461bcd60e51b815260206004820152601860248201527f42617365205552492063616e6e6f7420626520656d70747900000000000000006044820152606401610996565b601361093b8282612aca565b600061078782611dfc565b600b5460ff16156110625760405162461bcd60e51b815260206004820152602f60248201527f4576656e7420686173206265656e2063616e63656c65642c207472616e73666560448201526e1c9cc8185c9948191a5cd8589b1959608a1b6064820152608401610996565b3361106c83610fec565b6001600160a01b0316146110c25760405162461bcd60e51b815260206004820152601a60248201527f596f7520646f206e6f74206f776e2074686973207469636b65740000000000006044820152606401610996565b6000828152600d602052604090205460ff16156111375760405162461bcd60e51b815260206004820152602d60248201527f5469636b65742068617320616c7265616479206265656e20757365642c20636160448201526c373737ba103a3930b739b332b960991b6064820152608401610996565b61093b338284611f68565b6012805461114f906129dd565b80601f016020809104026020016040519081016040528092919081815260200182805461117b906129dd565b80156111c85780601f1061119d576101008083540402835291602001916111c8565b820191906000526020600020905b8154815290600101906020018083116111ab57829003601f168201915b505050505081565b60006001600160a01b0382166111fc576040516322718ad960e21b815260006004820152602401610996565b506001600160a01b031660009081526003602052604090205490565b611220611e42565b61122a6000612018565b565b606060018054610884906129dd565b61093b33838361206a565b606060128054610884906129dd565b600b5460ff166112ba5760405162461bcd60e51b815260206004820152602a60248201527f4576656e74206973206e6f742063616e63656c65642c2063616e6e6f7420636c604482015269185a5b481c99599d5b9960b21b6064820152608401610996565b336000908152600e602052604090205460ff16156113265760405162461bcd60e51b8152602060048201526024808201527f596f75206861766520616c726561647920636c61696d656420796f7572207265604482015263199d5b9960e21b6064820152608401610996565b336000908152600c6020526040902054806113a95760405162461bcd60e51b815260206004820152603760248201527f596f752068617665206e6f207469636b65747320746f20726566756e6420626160448201527f736564206f6e20696e697469616c2070757263686173650000000000000000006064820152608401610996565b60006113d5827f0000000000000000000000000000000000000000000000000000000000000000612b8a565b336000908152600e602052604090819020805460ff1916600117905560115490516370a0823160e01b815230600482015291925082916001600160a01b03909116906370a0823190602401602060405180830381865afa15801561143d573d6000803e3d6000fd5b505050506040513d601f19601f820116820180604052508101906114619190612a4e565b10156114d55760405162461bcd60e51b815260206004820152603760248201527f436f6e74726163742068617320696e73756666696369656e742055534443206260448201527f616c616e636520666f72207468697320726566756e642e0000000000000000006064820152608401610996565b60115460405163a9059cbb60e01b8152336004820152602481018390526000916001600160a01b03169063a9059cbb906044016020604051808303816000875af1158015611527573d6000803e3d6000fd5b505050506040513d601f19601f8201168201806040525081019061154b9190612a67565b90508061159a5760405162461bcd60e51b815260206004820152601c60248201527f5553444320726566756e64207472616e73666572206661696c65642e000000006044820152606401610996565b60405182815233907f358fe4192934d3bf28ae181feda1f4bd08ca67f5e2fad55582cce5eb67304ae99060200160405180910390a2505050565b6115df848484610afd565b610b823385858585612109565b60606115f782611dfc565b506000611602612234565b90506000815111611622576040518060200160405280600081525061164d565b8061162c84612243565b60405160200161163d929190612ba1565b6040516020818303038152906040525b9392505050565b600854600954600a54600b54600780546060956000958695869586959460ff909116908590611682906129dd565b80601f01602080910402602001604051908101604052809291908181526020018280546116ae906129dd565b80156116fb5780601f106116d0576101008083540402835291602001916116fb565b820191906000526020600020905b8154815290600101906020018083116116de57829003601f168201915b50505050509450945094509450945094509091929394565b600061172082600f541190565b61173c5760405162461bcd60e51b815260040161099690612a17565b826001600160a01b031661174f83610fec565b6001600160a01b0316149392505050565b6001600160a01b03918216600090815260056020908152604080832093909416825291909152205460ff1690565b600b5460ff16156117e15760405162461bcd60e51b815260206004820152601760248201527f4576656e7420686173206265656e2063616e63656c65640000000000000000006044820152606401610996565b60085442106118325760405162461bcd60e51b815260206004820152601a60248201527f4576656e742068617320616c7265616479206f636375727265640000000000006044820152606401610996565b600954600a54106118785760405162461bcd60e51b815260206004820152601060248201526f105b1b081d1a58dad95d1cc81cdbdb1960821b6044820152606401610996565b34156118c65760405162461bcd60e51b815260206004820181905260248201527f455448206e6f742061636365707465643b20706179207769746820555344432e6044820152606401610996565b601054336000908152600c6020526040902054106119265760405162461bcd60e51b815260206004820152601d60248201527f5469636b6574207075726368617365206c696d697420726561636865640000006044820152606401610996565b601154604051636eb1769f60e11b81523360048201523060248201526000916001600160a01b03169063dd62ed3e90604401602060405180830381865afa158015611975573d6000803e3d6000fd5b505050506040513d601f19601f820116820180604052508101906119999190612a4e565b90507f0000000000000000000000000000000000000000000000000000000000000000811015611a445760405162461bcd60e51b815260206004820152604a60248201527f5553444320616c6c6f77616e636520697320696e73756666696369656e742e2060448201527f506c6561736520617070726f76652074686520636f6e747261637420746f20736064820152693832b732102aa9a2219760b11b608482015260a401610996565b6011546040516323b872dd60e01b81523360048201523060248201527f000000000000000000000000000000000000000000000000000000000000000060448201526000916001600160a01b0316906323b872dd906064016020604051808303816000875af1158015611abb573d6000803e3d6000fd5b505050506040513d601f19601f82011682018060405250810190611adf9190612a67565b905080611b6e5760405162461bcd60e51b815260206004820152605160248201527f55534443207472616e73666572206661696c65642e20456e7375726520796f7560448201527f206861766520656e6f756768205553444320616e64206861766520617070726f6064820152703b32b2103a34329031b7b73a3930b1ba1760791b608482015260a401610996565b600f54611b7b33826122d6565b600f8054906000611b8b836129c4565b9091555050600a8054906000611ba0836129c4565b9091555050336000908152600c60205260408120805491611bc0836129c4565b9190505550505050565b600780548190611bd9906129dd565b80601f0160208091040260200160405190810160405280929190818152602001828054611c05906129dd565b8015611c525780601f10611c2757610100808354040283529160200191611c52565b820191906000526020600020905b815481529060010190602001808311611c3557829003601f168201915b505050506001830154600284015460038501546004909501549394919390925060ff1685565b611c80611e42565b6001600160a01b038116611caa57604051631e4fbdf760e01b815260006004820152602401610996565b611cb381612018565b50565b611cbe611e42565b600b5460ff1615611d115760405162461bcd60e51b815260206004820152601960248201527f4576656e7420697320616c72656164792063616e63656c6564000000000000006044820152606401610996565b6008544210611d745760405162461bcd60e51b815260206004820152602960248201527f4576656e742068617320616c7265616479206f636375727265642c2063616e6e6044820152681bdd0818d85b98d95b60ba1b6064820152608401610996565b600b805460ff191660011790556040517fceaf11772900fe569752a0207c8639fb8228eb8663456dc9eaa3a08f927a870590611db39042815260200190565b60405180910390a1565b6000611dca82600f541190565b611de65760405162461bcd60e51b815260040161099690612a17565b506000908152600d602052604090205460ff1690565b6000818152600260205260408120546001600160a01b03168061078757604051637e27328960e01b815260048101849052602401610996565b610f82838383600161233b565b6006546001600160a01b0316331461122a5760405163118cdaa760e01b8152336004820152602401610996565b6000828152600260205260408120546001600160a01b0390811690831615611e9c57611e9c818486612441565b6001600160a01b03811615611eda57611eb960008560008061233b565b6001600160a01b038116600090815260036020526040902080546000190190555b6001600160a01b03851615611f09576001600160a01b0385166000908152600360205260409020805460010190555b60008481526002602052604080822080546001600160a01b0319166001600160a01b0389811691821790925591518793918516917fddf252ad1be2c89b69c2b068fc378daa952ba7f163c4a11628f55a4df523b3ef91a4949350505050565b6001600160a01b038216611f9257604051633250574960e11b815260006004820152602401610996565b6000611fa083836000611e6f565b90506001600160a01b038116611fcc57604051637e27328960e01b815260048101839052602401610996565b836001600160a01b0316816001600160a01b031614610b82576040516364283d7b60e01b81526001600160a01b0380861660048301526024820184905282166044820152606401610996565b600680546001600160a01b038381166001600160a01b0319831681179093556040519116919082907f8be0079c531659141344cd1fd0a4f28419497f9722a3daafe3b4186f6b6457e090600090a35050565b6001600160a01b03821661209c57604051630b61174360e31b81526001600160a01b0383166004820152602401610996565b6001600160a01b03838116600081815260056020908152604080832094871680845294825291829020805460ff191686151590811790915591519182527f17307eab39ab6107e8899845ad3d59bd9653f200f220920489ca2b5937696c31910160405180910390a3505050565b6001600160a01b0383163b1561222d57604051630a85bd0160e11b81526001600160a01b0384169063150b7a029061214b908890889087908790600401612bd0565b6020604051808303816000875af1925050508015612186575060408051601f3d908101601f1916820190925261218391810190612c0d565b60015b6121ef573d8080156121b4576040519150601f19603f3d011682016040523d82523d6000602084013e6121b9565b606091505b5080516000036121e757604051633250574960e11b81526001600160a01b0385166004820152602401610996565b805181602001fd5b6001600160e01b03198116630a85bd0160e11b1461222b57604051633250574960e11b81526001600160a01b0385166004820152602401610996565b505b5050505050565b606060138054610884906129dd565b60606000612250836124a5565b600101905060008167ffffffffffffffff81111561227057612270612773565b6040519080825280601f01601f19166020018201604052801561229a576020820181803683370190505b5090508181016020015b600019016f181899199a1a9b1b9c1cb0b131b232b360811b600a86061a8153600a85049450846122a457509392505050565b6001600160a01b03821661230057604051633250574960e11b815260006004820152602401610996565b600061230e83836000611e6f565b90506001600160a01b03811615610f82576040516339e3563760e11b815260006004820152602401610996565b808061234f57506001600160a01b03821615155b1561241157600061235f84611dfc565b90506001600160a01b0383161580159061238b5750826001600160a01b0316816001600160a01b031614155b801561239e575061239c8184611760565b155b156123c75760405163a9fbf51f60e01b81526001600160a01b0384166004820152602401610996565b811561240f5783856001600160a01b0316826001600160a01b03167f8c5be1e5ebec7d5bd14f71427d1e84f3dd0314c0f7b2291e5b200ac8c7c3b92560405160405180910390a45b505b5050600090815260046020526040902080546001600160a01b0319166001600160a01b0392909216919091179055565b61244c83838361257d565b610f82576001600160a01b03831661247a57604051637e27328960e01b815260048101829052602401610996565b60405163177e802f60e01b81526001600160a01b038316600482015260248101829052604401610996565b60008072184f03e93ff9f4daa797ed6e38ed64bf6a1f0160401b83106124e45772184f03e93ff9f4daa797ed6e38ed64bf6a1f0160401b830492506040015b6d04ee2d6d415b85acef81000000008310612510576d04ee2d6d415b85acef8100000000830492506020015b662386f26fc10000831061252e57662386f26fc10000830492506010015b6305f5e1008310612546576305f5e100830492506008015b612710831061255a57612710830492506004015b6064831061256c576064830492506002015b600a83106107875760010192915050565b60006001600160a01b038316158015906125db5750826001600160a01b0316846001600160a01b031614806125b757506125b78484611760565b806125db57506000828152600460205260409020546001600160a01b038481169116145b949350505050565b6001600160e01b031981168114611cb357600080fd5b60006020828403121561260b57600080fd5b813561164d816125e3565b80356001600160a01b038116811461262d57600080fd5b919050565b60006020828403121561264457600080fd5b61164d82612616565b6020808252825182820181905260009190848201906040850190845b8181101561268557835183529284019291840191600101612669565b50909695505050505050565b60005b838110156126ac578181015183820152602001612694565b50506000910152565b600081518084526126cd816020860160208601612691565b601f01601f19169290920160200192915050565b60208152600061164d60208301846126b5565b60006020828403121561270657600080fd5b5035919050565b6000806040838503121561272057600080fd5b61272983612616565b946020939093013593505050565b60008060006060848603121561274c57600080fd5b61275584612616565b925061276360208501612616565b9150604084013590509250925092565b634e487b7160e01b600052604160045260246000fd5b600067ffffffffffffffff808411156127a4576127a4612773565b604051601f8501601f19908116603f011681019082821181831017156127cc576127cc612773565b816040528093508581528686860111156127e557600080fd5b858560208301376000602087830101525050509392505050565b60006020828403121561281157600080fd5b813567ffffffffffffffff81111561282857600080fd5b8201601f8101841361283957600080fd5b6125db84823560208401612789565b6000806040838503121561285b57600080fd5b8235915061286b60208401612616565b90509250929050565b8015158114611cb357600080fd5b6000806040838503121561289557600080fd5b61289e83612616565b915060208301356128ae81612874565b809150509250929050565b600080600080608085870312156128cf57600080fd5b6128d885612616565b93506128e660208601612616565b925060408501359150606085013567ffffffffffffffff81111561290957600080fd5b8501601f8101871361291a57600080fd5b61292987823560208401612789565b91505092959194509250565b60a08152600061294860a08301886126b5565b905085602083015284604083015283606083015282151560808301529695505050505050565b6000806040838503121561298157600080fd5b61298a83612616565b915061286b60208401612616565b634e487b7160e01b600052603260045260246000fd5b634e487b7160e01b600052601160045260246000fd5b6000600182016129d6576129d66129ae565b5060010190565b600181811c908216806129f157607f821691505b602082108103612a1157634e487b7160e01b600052602260045260246000fd5b50919050565b60208082526019908201527f5469636b657420494420646f6573206e6f742065786973742e00000000000000604082015260600190565b600060208284031215612a6057600080fd5b5051919050565b600060208284031215612a7957600080fd5b815161164d81612874565b601f821115610f8257600081815260208120601f850160051c81016020861015612aab5750805b601f850160051c820191505b8181101561222b57828155600101612ab7565b815167ffffffffffffffff811115612ae457612ae4612773565b612af881612af284546129dd565b84612a84565b602080601f831160018114612b2d5760008415612b155750858301515b600019600386901b1c1916600185901b17855561222b565b600085815260208120601f198616915b82811015612b5c57888601518255948401946001909101908401612b3d565b5085821015612b7a5787850151600019600388901b60f8161c191681555b5050505050600190811b01905550565b8082028115828204841417610787576107876129ae565b60008351612bb3818460208801612691565b835190830190612bc7818360208801612691565b01949350505050565b6001600160a01b0385811682528416602082015260408101839052608060608201819052600090612c03908301846126b5565b9695505050505050565b600060208284031215612c1f57600080fd5b815161164d816125e356fea2646970667358221220f7bb1a773811c842143fef847c755f3ce5594de2aaa10c9bc0b0b9cc97e24d7064736f6c63430008140033a2646970667358221220e9d5d366bd383e24bf8cd69efbe665637376e460211d9722d5698ef5875ee6da64736f6c63430008140033",
  "linkReferences": {},
  "deployedLinkReferences": {}
}