{
  "_format": "hh-sol-artifact-1",
  "contractName": "EventTicket",
  "sourceName": "contracts/EventTicket.sol",
  "abi": [
    {
      "inputs": [
        {
          "internalType": "string",
          "name": "_name",
          "type": "string"
        },
        {
          "internalType": "string",
          "name": "_symbol",
          "type": "string"
        },
        {
          "internalType": "string",
          "name": "_eventName",
          "type": "string"
        },
        {
          "internalType": "uint256",
          "name": "_date",
          "type": "uint256"
        },
        {
          "internalType": "uint256",
          "name": "_totalTickets",
          "type": "uint256"
        },
        {
          "internalType": "uint256",
          "name": "_ticketPrice",
          "type": "uint256"
        },
        {
          "internalType": "uint256",
          "name": "_ticketLimit",
          "type": "uint256"
        }
      ],
      "stateMutability": "nonpayable",
      "type": "constructor"
    },
    {
      "inputs": [
        {
          "internalType": "address",
          "name": "sender",
          "type": "address"
        },
        {
          "internalType": "uint256",
          "name": "tokenId",
          "type": "uint256"
        },
        {
          "internalType": "address",
          "name": "owner",
          "type": "address"
        }
      ],
      "name": "ERC721IncorrectOwner",
      "type": "error"
    },
    {
      "inputs": [
        {
          "internalType": "address",
          "name": "operator",
          "type": "address"
        },
        {
          "internalType": "uint256",
          "name": "tokenId",
          "type": "uint256"
        }
      ],
      "name": "ERC721InsufficientApproval",
      "type": "error"
    },
    {
      "inputs": [
        {
          "internalType": "address",
          "name": "approver",
          "type": "address"
        }
      ],
      "name": "ERC721InvalidApprover",
      "type": "error"
    },
    {
      "inputs": [
        {
          "internalType": "address",
          "name": "operator",
          "type": "address"
        }
      ],
      "name": "ERC721InvalidOperator",
      "type": "error"
    },
    {
      "inputs": [
        {
          "internalType": "address",
          "name": "owner",
          "type": "address"
        }
      ],
      "name": "ERC721InvalidOwner",
      "type": "error"
    },
    {
      "inputs": [
        {
          "internalType": "address",
          "name": "receiver",
          "type": "address"
        }
      ],
      "name": "ERC721InvalidReceiver",
      "type": "error"
    },
    {
      "inputs": [
        {
          "internalType": "address",
          "name": "sender",
          "type": "address"
        }
      ],
      "name": "ERC721InvalidSender",
      "type": "error"
    },
    {
      "inputs": [
        {
          "internalType": "uint256",
          "name": "tokenId",
          "type": "uint256"
        }
      ],
      "name": "ERC721NonexistentToken",
      "type": "error"
    },
    {
      "inputs": [
        {
          "internalType": "address",
          "name": "owner",
          "type": "address"
        }
      ],
      "name": "OwnableInvalidOwner",
      "type": "error"
    },
    {
      "inputs": [
        {
          "internalType": "address",
          "name": "account",
          "type": "address"
        }
      ],
      "name": "OwnableUnauthorizedAccount",
      "type": "error"
    },
    {
      "anonymous": false,
      "inputs": [
        {
          "indexed": true,
          "internalType": "address",
          "name": "owner",
          "type": "address"
        },
        {
          "indexed": true,
          "internalType": "address",
          "name": "approved",
          "type": "address"
        },
        {
          "indexed": true,
          "internalType": "uint256",
          "name": "tokenId",
          "type": "uint256"
        }
      ],
      "name": "Approval",
      "type": "event"
    },
    {
      "anonymous": false,
      "inputs": [
        {
          "indexed": true,
          "internalType": "address",
          "name": "owner",
          "type": "address"
        },
        {
          "indexed": true,
          "internalType": "address",
          "name": "operator",
          "type": "address"
        },
        {
          "indexed": false,
          "internalType": "bool",
          "name": "approved",
          "type": "bool"
        }
      ],
      "name": "ApprovalForAll",
      "type": "event"
    },
    {
      "anonymous": false,
      "inputs": [
        {
          "indexed": false,
          "internalType": "uint256",
          "name": "timestamp",
          "type": "uint256"
        }
      ],
      "name": "EventCanceled",
      "type": "event"
    },
    {
      "anonymous": false,
      "inputs": [
        {
          "indexed": true,
          "internalType": "address",
          "name": "previousOwner",
          "type": "address"
        },
        {
          "indexed": true,
          "internalType": "address",
          "name": "newOwner",
          "type": "address"
        }
      ],
      "name": "OwnershipTransferred",
      "type": "event"
    },
    {
      "anonymous": false,
      "inputs": [
        {
          "indexed": true,
          "internalType": "address",
          "name": "user",
          "type": "address"
        },
        {
          "indexed": false,
          "internalType": "uint256",
          "name": "amount",
          "type": "uint256"
        }
      ],
      "name": "RefundClaimed",
      "type": "event"
    },
    {
      "anonymous": false,
      "inputs": [
        {
          "indexed": true,
          "internalType": "uint256",
          "name": "ticketId",
          "type": "uint256"
        },
        {
          "indexed": true,
          "internalType": "address",
          "name": "user",
          "type": "address"
        }
      ],
      "name": "TicketMarkedAsUsed",
      "type": "event"
    },
    {
      "anonymous": false,
      "inputs": [
        {
          "indexed": true,
          "internalType": "address",
          "name": "from",
          "type": "address"
        },
        {
          "indexed": true,
          "internalType": "address",
          "name": "to",
          "type": "address"
        },
        {
          "indexed": true,
          "internalType": "uint256",
          "name": "tokenId",
          "type": "uint256"
        }
      ],
      "name": "Transfer",
      "type": "event"
    },
    {
      "inputs": [
        {
          "internalType": "address",
          "name": "to",
          "type": "address"
        },
        {
          "internalType": "uint256",
          "name": "tokenId",
          "type": "uint256"
        }
      ],
      "name": "approve",
      "outputs": [],
      "stateMutability": "nonpayable",
      "type": "function"
    },
    {
      "inputs": [
        {
          "internalType": "address",
          "name": "owner",
          "type": "address"
        }
      ],
      "name": "balanceOf",
      "outputs": [
        {
          "internalType": "uint256",
          "name": "",
          "type": "uint256"
        }
      ],
      "stateMutability": "view",
      "type": "function"
    },
    {
      "inputs": [],
      "name": "buyTicket",
      "outputs": [],
      "stateMutability": "payable",
      "type": "function"
    },
    {
      "inputs": [],
      "name": "cancelEvent",
      "outputs": [],
      "stateMutability": "nonpayable",
      "type": "function"
    },
    {
      "inputs": [],
      "name": "claimRefund",
      "outputs": [],
      "stateMutability": "nonpayable",
      "type": "function"
    },
    {
      "inputs": [],
      "name": "eventDetails",
      "outputs": [
        {
          "internalType": "string",
          "name": "name",
          "type": "string"
        },
        {
          "internalType": "uint256",
          "name": "date",
          "type": "uint256"
        },
        {
          "internalType": "uint256",
          "name": "totalTickets",
          "type": "uint256"
        },
        {
          "internalType": "uint256",
          "name": "ticketsSold",
          "type": "uint256"
        },
        {
          "internalType": "bool",
          "name": "isCanceled",
          "type": "bool"
        }
      ],
      "stateMutability": "view",
      "type": "function"
    },
    {
      "inputs": [
        {
          "internalType": "uint256",
          "name": "tokenId",
          "type": "uint256"
        }
      ],
      "name": "getApproved",
      "outputs": [
        {
          "internalType": "address",
          "name": "",
          "type": "address"
        }
      ],
      "stateMutability": "view",
      "type": "function"
    },
    {
      "inputs": [],
      "name": "getEventDetails",
      "outputs": [
        {
          "internalType": "string",
          "name": "",
          "type": "string"
        },
        {
          "internalType": "uint256",
          "name": "",
          "type": "uint256"
        },
        {
          "internalType": "uint256",
          "name": "",
          "type": "uint256"
        },
        {
          "internalType": "uint256",
          "name": "",
          "type": "uint256"
        },
        {
          "internalType": "bool",
          "name": "",
          "type": "bool"
        }
      ],
      "stateMutability": "view",
      "type": "function"
    },
    {
      "inputs": [
        {
          "internalType": "address",
          "name": "user",
          "type": "address"
        }
      ],
      "name": "getRefundStatus",
      "outputs": [
        {
          "internalType": "bool",
          "name": "",
          "type": "bool"
        }
      ],
      "stateMutability": "view",
      "type": "function"
    },
    {
      "inputs": [
        {
          "internalType": "uint256",
          "name": "ticketId",
          "type": "uint256"
        }
      ],
      "name": "getTicketStatus",
      "outputs": [
        {
          "internalType": "bool",
          "name": "",
          "type": "bool"
        }
      ],
      "stateMutability": "view",
      "type": "function"
    },
    {
      "inputs": [
        {
          "internalType": "address",
          "name": "user",
          "type": "address"
        }
      ],
      "name": "getUserTickets",
      "outputs": [
        {
          "internalType": "uint256[]",
          "name": "",
          "type": "uint256[]"
        }
      ],
      "stateMutability": "view",
      "type": "function"
    },
    {
      "inputs": [
        {
          "internalType": "address",
          "name": "",
          "type": "address"
        }
      ],
      "name": "hasRefunded",
      "outputs": [
        {
          "internalType": "bool",
          "name": "",
          "type": "bool"
        }
      ],
      "stateMutability": "view",
      "type": "function"
    },
    {
      "inputs": [
        {
          "internalType": "address",
          "name": "owner",
          "type": "address"
        },
        {
          "internalType": "address",
          "name": "operator",
          "type": "address"
        }
      ],
      "name": "isApprovedForAll",
      "outputs": [
        {
          "internalType": "bool",
          "name": "",
          "type": "bool"
        }
      ],
      "stateMutability": "view",
      "type": "function"
    },
    {
      "inputs": [
        {
          "internalType": "address",
          "name": "user",
          "type": "address"
        },
        {
          "internalType": "uint256",
          "name": "ticketId",
          "type": "uint256"
        }
      ],
      "name": "isTicketOwner",
      "outputs": [
        {
          "internalType": "bool",
          "name": "",
          "type": "bool"
        }
      ],
      "stateMutability": "view",
      "type": "function"
    },
    {
      "inputs": [
        {
          "internalType": "uint256",
          "name": "",
          "type": "uint256"
        }
      ],
      "name": "isUsed",
      "outputs": [
        {
          "internalType": "bool",
          "name": "",
          "type": "bool"
        }
      ],
      "stateMutability": "view",
      "type": "function"
    },
    {
      "inputs": [
        {
          "internalType": "uint256",
          "name": "ticketId",
          "type": "uint256"
        }
      ],
      "name": "markTicketAsUsed",
      "outputs": [],
      "stateMutability": "nonpayable",
      "type": "function"
    },
    {
      "inputs": [],
      "name": "name",
      "outputs": [
        {
          "internalType": "string",
          "name": "",
          "type": "string"
        }
      ],
      "stateMutability": "view",
      "type": "function"
    },
    {
      "inputs": [],
      "name": "nextTicketId",
      "outputs": [
        {
          "internalType": "uint256",
          "name": "",
          "type": "uint256"
        }
      ],
      "stateMutability": "view",
      "type": "function"
    },
    {
      "inputs": [],
      "name": "owner",
      "outputs": [
        {
          "internalType": "address",
          "name": "",
          "type": "address"
        }
      ],
      "stateMutability": "view",
      "type": "function"
    },
    {
      "inputs": [
        {
          "internalType": "uint256",
          "name": "tokenId",
          "type": "uint256"
        }
      ],
      "name": "ownerOf",
      "outputs": [
        {
          "internalType": "address",
          "name": "",
          "type": "address"
        }
      ],
      "stateMutability": "view",
      "type": "function"
    },
    {
      "inputs": [],
      "name": "renounceOwnership",
      "outputs": [],
      "stateMutability": "nonpayable",
      "type": "function"
    },
    {
      "inputs": [
        {
          "internalType": "address",
          "name": "from",
          "type": "address"
        },
        {
          "internalType": "address",
          "name": "to",
          "type": "address"
        },
        {
          "internalType": "uint256",
          "name": "tokenId",
          "type": "uint256"
        }
      ],
      "name": "safeTransferFrom",
      "outputs": [],
      "stateMutability": "nonpayable",
      "type": "function"
    },
    {
      "inputs": [
        {
          "internalType": "address",
          "name": "from",
          "type": "address"
        },
        {
          "internalType": "address",
          "name": "to",
          "type": "address"
        },
        {
          "internalType": "uint256",
          "name": "tokenId",
          "type": "uint256"
        },
        {
          "internalType": "bytes",
          "name": "data",
          "type": "bytes"
        }
      ],
      "name": "safeTransferFrom",
      "outputs": [],
      "stateMutability": "nonpayable",
      "type": "function"
    },
    {
      "inputs": [
        {
          "internalType": "address",
          "name": "operator",
          "type": "address"
        },
        {
          "internalType": "bool",
          "name": "approved",
          "type": "bool"
        }
      ],
      "name": "setApprovalForAll",
      "outputs": [],
      "stateMutability": "nonpayable",
      "type": "function"
    },
    {
      "inputs": [
        {
          "internalType": "uint256",
          "name": "newLimit",
          "type": "uint256"
        }
      ],
      "name": "setTicketLimit",
      "outputs": [],
      "stateMutability": "nonpayable",
      "type": "function"
    },
    {
      "inputs": [
        {
          "internalType": "bytes4",
          "name": "interfaceId",
          "type": "bytes4"
        }
      ],
      "name": "supportsInterface",
      "outputs": [
        {
          "internalType": "bool",
          "name": "",
          "type": "bool"
        }
      ],
      "stateMutability": "view",
      "type": "function"
    },
    {
      "inputs": [],
      "name": "symbol",
      "outputs": [
        {
          "internalType": "string",
          "name": "",
          "type": "string"
        }
      ],
      "stateMutability": "view",
      "type": "function"
    },
    {
      "inputs": [],
      "name": "ticketLimit",
      "outputs": [
        {
          "internalType": "uint256",
          "name": "",
          "type": "uint256"
        }
      ],
      "stateMutability": "view",
      "type": "function"
    },
    {
      "inputs": [
        {
          "internalType": "uint256",
          "name": "",
          "type": "uint256"
        }
      ],
      "name": "ticketOwners",
      "outputs": [
        {
          "internalType": "address",
          "name": "",
          "type": "address"
        }
      ],
      "stateMutability": "view",
      "type": "function"
    },
    {
      "inputs": [],
      "name": "ticketPrice",
      "outputs": [
        {
          "internalType": "uint256",
          "name": "",
          "type": "uint256"
        }
      ],
      "stateMutability": "view",
      "type": "function"
    },
    {
      "inputs": [
        {
          "internalType": "address",
          "name": "",
          "type": "address"
        }
      ],
      "name": "ticketsBought",
      "outputs": [
        {
          "internalType": "uint256",
          "name": "",
          "type": "uint256"
        }
      ],
      "stateMutability": "view",
      "type": "function"
    },
    {
      "inputs": [
        {
          "internalType": "uint256",
          "name": "tokenId",
          "type": "uint256"
        }
      ],
      "name": "tokenURI",
      "outputs": [
        {
          "internalType": "string",
          "name": "",
          "type": "string"
        }
      ],
      "stateMutability": "view",
      "type": "function"
    },
    {
      "inputs": [
        {
          "internalType": "address",
          "name": "from",
          "type": "address"
        },
        {
          "internalType": "address",
          "name": "to",
          "type": "address"
        },
        {
          "internalType": "uint256",
          "name": "tokenId",
          "type": "uint256"
        }
      ],
      "name": "transferFrom",
      "outputs": [],
      "stateMutability": "nonpayable",
      "type": "function"
    },
    {
      "inputs": [
        {
          "internalType": "address",
          "name": "newOwner",
          "type": "address"
        }
      ],
      "name": "transferOwnership",
      "outputs": [],
      "stateMutability": "nonpayable",
      "type": "function"
    },
    {
      "inputs": [
        {
          "internalType": "uint256",
          "name": "ticketId",
          "type": "uint256"
        },
        {
          "internalType": "address",
          "name": "to",
          "type": "address"
        }
      ],
      "name": "transferTicket",
      "outputs": [],
      "stateMutability": "nonpayable",
      "type": "function"
    },
    {
      "inputs": [],
      "name": "withdrawFunds",
      "outputs": [],
      "stateMutability": "nonpayable",
      "type": "function"
    }
  ],
  "bytecode": "0x60a060405234801561001057600080fd5b50604051614951380380614951833981810160405281019061003291906103e9565b338787816000908161004491906106f6565b50806001908161005491906106f6565b505050600073ffffffffffffffffffffffffffffffffffffffff168173ffffffffffffffffffffffffffffffffffffffff16036100c95760006040517f1e4fbdf70000000000000000000000000000000000000000000000000000000081526004016100c09190610809565b60405180910390fd5b6100d88161017860201b60201c565b506040518060a0016040528086815260200185815260200184815260200160008152602001600015158152506007600082015181600001908161011b91906106f6565b5060208201518160010155604082015181600201556060820151816003015560808201518160040160006101000a81548160ff02191690831515021790555090505081608081815250508060118190555050505050505050610824565b6000600660009054906101000a900473ffffffffffffffffffffffffffffffffffffffff16905081600660006101000a81548173ffffffffffffffffffffffffffffffffffffffff021916908373ffffffffffffffffffffffffffffffffffffffff1602179055508173ffffffffffffffffffffffffffffffffffffffff168173ffffffffffffffffffffffffffffffffffffffff167f8be0079c531659141344cd1fd0a4f28419497f9722a3daafe3b4186f6b6457e060405160405180910390a35050565b6000604051905090565b600080fd5b600080fd5b600080fd5b600080fd5b6000601f19601f8301169050919050565b7f4e487b7100000000000000000000000000000000000000000000000000000000600052604160045260246000fd5b6102a58261025c565b810181811067ffffffffffffffff821117156102c4576102c361026d565b5b80604052505050565b60006102d761023e565b90506102e3828261029c565b919050565b600067ffffffffffffffff8211156103035761030261026d565b5b61030c8261025c565b9050602081019050919050565b60005b8381101561033757808201518184015260208101905061031c565b60008484015250505050565b6000610356610351846102e8565b6102cd565b90508281526020810184848401111561037257610371610257565b5b61037d848285610319565b509392505050565b600082601f83011261039a57610399610252565b5b81516103aa848260208601610343565b91505092915050565b6000819050919050565b6103c6816103b3565b81146103d157600080fd5b50565b6000815190506103e3816103bd565b92915050565b600080600080600080600060e0888a03121561040857610407610248565b5b600088015167ffffffffffffffff8111156104265761042561024d565b5b6104328a828b01610385565b975050602088015167ffffffffffffffff8111156104535761045261024d565b5b61045f8a828b01610385565b965050604088015167ffffffffffffffff8111156104805761047f61024d565b5b61048c8a828b01610385565b955050606061049d8a828b016103d4565b94505060806104ae8a828b016103d4565b93505060a06104bf8a828b016103d4565b92505060c06104d08a828b016103d4565b91505092959891949750929550565b600081519050919050565b7f4e487b7100000000000000000000000000000000000000000000000000000000600052602260045260246000fd5b6000600282049050600182168061053157607f821691505b602082108103610544576105436104ea565b5b50919050565b60008190508160005260206000209050919050565b60006020601f8301049050919050565b600082821b905092915050565b6000600883026105ac7fffffffffffffffffffffffffffffffffffffffffffffffffffffffffffffffff8261056f565b6105b6868361056f565b95508019841693508086168417925050509392505050565b6000819050919050565b60006105f36105ee6105e9846103b3565b6105ce565b6103b3565b9050919050565b6000819050919050565b61060d836105d8565b610621610619826105fa565b84845461057c565b825550505050565b600090565b610636610629565b610641818484610604565b505050565b5b818110156106655761065a60008261062e565b600181019050610647565b5050565b601f8211156106aa5761067b8161054a565b6106848461055f565b81016020851015610693578190505b6106a761069f8561055f565b830182610646565b50505b505050565b600082821c905092915050565b60006106cd600019846008026106af565b1980831691505092915050565b60006106e683836106bc565b9150826002028217905092915050565b6106ff826104df565b67ffffffffffffffff8111156107185761071761026d565b5b6107228254610519565b61072d828285610669565b600060209050601f831160018114610760576000841561074e578287015190505b61075885826106da565b8655506107c0565b601f19841661076e8661054a565b60005b8281101561079657848901518255600182019150602085019450602081019050610771565b868310156107b357848901516107af601f8916826106bc565b8355505b6001600288020188555050505b505050505050565b600073ffffffffffffffffffffffffffffffffffffffff82169050919050565b60006107f3826107c8565b9050919050565b610803816107e8565b82525050565b600060208201905061081e60008301846107fa565b92915050565b60805161410461084d60003960008181610cb50152818161159b0152611a6901526141046000f3fe60806040526004361061020f5760003560e01c806370a0823111610118578063e2bb3ccf116100a0578063edca914c1161006f578063edca914c146107eb578063f1386cd6146107f5578063f2fde38b14610824578063fb6c95371461084d578063fb87774c146108645761020f565b8063e2bb3ccf14610705578063e82de7e814610734578063e985e9c514610771578063eb2dbcf6146107ae5761020f565b806395d89b41116100e757806395d89b4114610634578063a22cb4651461065f578063b5545a3c14610688578063b88d4fde1461069f578063c87b56dd146106c85761020f565b806370a0823114610578578063715018a6146105b557806384bd3264146105cc5780638da5cb5b146106095761020f565b80632b6b06331161019b5780635e321dfc1161016a5780635e321dfc1461047f5780636031a52f146104aa5780636352211e146104d557806365c2944e14610512578063679ebf1a1461054f5761020f565b80632b6b0633146103b3578063336ccba5146103f05780633d3751ae1461042d57806342842e0e146104565761020f565b8063095ea7b3116101e2578063095ea7b3146102f65780630a15fa8b1461031f5780631209b1f61461034857806323b872dd1461037357806324600fc31461039c5761020f565b806301ffc9a7146102145780630484a22f1461025157806306fdde031461028e578063081812fc146102b9575b600080fd5b34801561022057600080fd5b5061023b60048036038101906102369190612f54565b6108a1565b6040516102489190612f9c565b60405180910390f35b34801561025d57600080fd5b5061027860048036038101906102739190613015565b610983565b604051610285919061310a565b60405180910390f35b34801561029a57600080fd5b506102a3610a70565b6040516102b091906131bc565b60405180910390f35b3480156102c557600080fd5b506102e060048036038101906102db919061320a565b610b02565b6040516102ed9190613246565b60405180910390f35b34801561030257600080fd5b5061031d60048036038101906103189190613261565b610b1e565b005b34801561032b57600080fd5b506103466004803603810190610341919061320a565b610b34565b005b34801561035457600080fd5b5061035d610cb3565b60405161036a91906132b0565b60405180910390f35b34801561037f57600080fd5b5061039a600480360381019061039591906132cb565b610cd7565b005b3480156103a857600080fd5b506103b1610dd9565b005b3480156103bf57600080fd5b506103da60048036038101906103d59190613015565b610f7a565b6040516103e79190612f9c565b60405180910390f35b3480156103fc57600080fd5b506104176004803603810190610412919061320a565b610f9a565b6040516104249190612f9c565b60405180910390f35b34801561043957600080fd5b50610454600480360381019061044f919061320a565b610fba565b005b34801561046257600080fd5b5061047d600480360381019061047891906132cb565b61101f565b005b34801561048b57600080fd5b5061049461103f565b6040516104a191906132b0565b60405180910390f35b3480156104b657600080fd5b506104bf611045565b6040516104cc91906132b0565b60405180910390f35b3480156104e157600080fd5b506104fc60048036038101906104f7919061320a565b61104b565b6040516105099190613246565b60405180910390f35b34801561051e57600080fd5b5061053960048036038101906105349190613015565b61105d565b6040516105469190612f9c565b60405180910390f35b34801561055b57600080fd5b506105766004803603810190610571919061331e565b6110b3565b005b34801561058457600080fd5b5061059f600480360381019061059a9190613015565b61123e565b6040516105ac91906132b0565b60405180910390f35b3480156105c157600080fd5b506105ca6112f8565b005b3480156105d857600080fd5b506105f360048036038101906105ee9190613015565b61130c565b60405161060091906132b0565b60405180910390f35b34801561061557600080fd5b5061061e611324565b60405161062b9190613246565b60405180910390f35b34801561064057600080fd5b5061064961134e565b60405161065691906131bc565b60405180910390f35b34801561066b57600080fd5b506106866004803603810190610681919061338a565b6113e0565b005b34801561069457600080fd5b5061069d6113f6565b005b3480156106ab57600080fd5b506106c660048036038101906106c191906134ff565b61171c565b005b3480156106d457600080fd5b506106ef60048036038101906106ea919061320a565b611741565b6040516106fc91906131bc565b60405180910390f35b34801561071157600080fd5b5061071a6117aa565b60405161072b959493929190613582565b60405180910390f35b34801561074057600080fd5b5061075b60048036038101906107569190613261565b611879565b6040516107689190612f9c565b60405180910390f35b34801561077d57600080fd5b50610798600480360381019061079391906135dc565b6118ba565b6040516107a59190612f9c565b60405180910390f35b3480156107ba57600080fd5b506107d560048036038101906107d0919061320a565b61194e565b6040516107e29190613246565b60405180910390f35b6107f3611981565b005b34801561080157600080fd5b5061080a611c3b565b60405161081b959493929190613582565b60405180910390f35b34801561083057600080fd5b5061084b60048036038101906108469190613015565b611cf4565b005b34801561085957600080fd5b50610862611d7a565b005b34801561087057600080fd5b5061088b6004803603810190610886919061320a565b611e73565b6040516108989190612f9c565b60405180910390f35b60007f80ac58cd000000000000000000000000000000000000000000000000000000007bffffffffffffffffffffffffffffffffffffffffffffffffffffffff1916827bffffffffffffffffffffffffffffffffffffffffffffffffffffffff1916148061096c57507f5b5e139f000000000000000000000000000000000000000000000000000000007bffffffffffffffffffffffffffffffffffffffffffffffffffffffff1916827bffffffffffffffffffffffffffffffffffffffffffffffffffffffff1916145b8061097c575061097b82611ee5565b5b9050919050565b606060006109908361123e565b905060008167ffffffffffffffff8111156109ae576109ad6133d4565b5b6040519080825280602002602001820160405280156109dc5781602001602082028036833780820191505090505b5090506000805b601054811015610a64578573ffffffffffffffffffffffffffffffffffffffff16610a0d8261104b565b73ffffffffffffffffffffffffffffffffffffffff1603610a575780838381518110610a3c57610a3b61361c565b5b6020026020010181815250508180610a539061367a565b9250505b80806001019150506109e3565b50819350505050919050565b606060008054610a7f906136f1565b80601f0160208091040260200160405190810160405280929190818152602001828054610aab906136f1565b8015610af85780601f10610acd57610100808354040283529160200191610af8565b820191906000526020600020905b815481529060010190602001808311610adb57829003601f168201915b5050505050905090565b6000610b0d82611f4f565b50610b1782611fd7565b9050919050565b610b308282610b2b612014565b61201c565b5050565b610b3c61202e565b600760040160009054906101000a900460ff1615610b8f576040517f08c379a0000000000000000000000000000000000000000000000000000000008152600401610b869061376e565b60405180910390fd5b610b98816120b5565b610bd7576040517f08c379a0000000000000000000000000000000000000000000000000000000008152600401610bce906137da565b60405180910390fd5b600e600082815260200190815260200160002060009054906101000a900460ff1615610c38576040517f08c379a0000000000000000000000000000000000000000000000000000000008152600401610c2f90613846565b60405180910390fd5b6001600e600083815260200190815260200160002060006101000a81548160ff021916908315150217905550610c6d8161104b565b73ffffffffffffffffffffffffffffffffffffffff16817ff23b1427e2e3d04905029561ed001085506f5bc45ebd846d84b01c489ff6710f60405160405180910390a350565b7f000000000000000000000000000000000000000000000000000000000000000081565b600073ffffffffffffffffffffffffffffffffffffffff168273ffffffffffffffffffffffffffffffffffffffff1603610d495760006040517f64a0ae92000000000000000000000000000000000000000000000000000000008152600401610d409190613246565b60405180910390fd5b6000610d5d8383610d58612014565b6120c3565b90508373ffffffffffffffffffffffffffffffffffffffff168173ffffffffffffffffffffffffffffffffffffffff1614610dd3578382826040517f64283d7b000000000000000000000000000000000000000000000000000000008152600401610dca93929190613866565b60405180910390fd5b50505050565b610de161202e565b600760040160009054906101000a900460ff1615610e34576040517f08c379a0000000000000000000000000000000000000000000000000000000008152600401610e2b9061390f565b60405180910390fd5b6007600101544211610e7b576040517f08c379a0000000000000000000000000000000000000000000000000000000008152600401610e729061397b565b60405180910390fd5b600047905060008111610ec3576040517f08c379a0000000000000000000000000000000000000000000000000000000008152600401610eba906139e7565b60405180910390fd5b6000610ecd611324565b73ffffffffffffffffffffffffffffffffffffffff1682604051610ef090613a38565b60006040518083038185875af1925050503d8060008114610f2d576040519150601f19603f3d011682016040523d82523d6000602084013e610f32565b606091505b5050905080610f76576040517f08c379a0000000000000000000000000000000000000000000000000000000008152600401610f6d90613a99565b60405180910390fd5b5050565b600f6020528060005260406000206000915054906101000a900460ff1681565b600e6020528060005260406000206000915054906101000a900460ff1681565b610fc261202e565b600760040160009054906101000a900460ff1615611015576040517f08c379a000000000000000000000000000000000000000000000000000000000815260040161100c9061376e565b60405180910390fd5b8060118190555050565b61103a8383836040518060200160405280600081525061171c565b505050565b60115481565b60105481565b600061105682611f4f565b9050919050565b6000600f60008373ffffffffffffffffffffffffffffffffffffffff1673ffffffffffffffffffffffffffffffffffffffff16815260200190815260200160002060009054906101000a900460ff169050919050565b600760040160009054906101000a900460ff1615611106576040517f08c379a00000000000000000000000000000000000000000000000000000000081526004016110fd9061376e565b60405180910390fd5b3373ffffffffffffffffffffffffffffffffffffffff166111268361104b565b73ffffffffffffffffffffffffffffffffffffffff161461117c576040517f08c379a000000000000000000000000000000000000000000000000000000000815260040161117390613b05565b60405180910390fd5b600e600083815260200190815260200160002060009054906101000a900460ff16156111dd576040517f08c379a00000000000000000000000000000000000000000000000000000000081526004016111d490613846565b60405180910390fd5b6111e83382846122dd565b80600c600084815260200190815260200160002060006101000a81548173ffffffffffffffffffffffffffffffffffffffff021916908373ffffffffffffffffffffffffffffffffffffffff1602179055505050565b60008073ffffffffffffffffffffffffffffffffffffffff168273ffffffffffffffffffffffffffffffffffffffff16036112b15760006040517f89c62b640000000000000000000000000000000000000000000000000000000081526004016112a89190613246565b60405180910390fd5b600360008373ffffffffffffffffffffffffffffffffffffffff1673ffffffffffffffffffffffffffffffffffffffff168152602001908152602001600020549050919050565b61130061202e565b61130a600061244a565b565b600d6020528060005260406000206000915090505481565b6000600660009054906101000a900473ffffffffffffffffffffffffffffffffffffffff16905090565b60606001805461135d906136f1565b80601f0160208091040260200160405190810160405280929190818152602001828054611389906136f1565b80156113d65780601f106113ab576101008083540402835291602001916113d6565b820191906000526020600020905b8154815290600101906020018083116113b957829003601f168201915b5050505050905090565b6113f26113eb612014565b8383612510565b5050565b600760040160009054906101000a900460ff16611448576040517f08c379a000000000000000000000000000000000000000000000000000000000815260040161143f90613b71565b60405180910390fd5b600f60003373ffffffffffffffffffffffffffffffffffffffff1673ffffffffffffffffffffffffffffffffffffffff16815260200190815260200160002060009054906101000a900460ff16156114d5576040517f08c379a00000000000000000000000000000000000000000000000000000000081526004016114cc90613bdd565b60405180910390fd5b6000600d60003373ffffffffffffffffffffffffffffffffffffffff1673ffffffffffffffffffffffffffffffffffffffff1681526020019081526020016000205411611557576040517f08c379a000000000000000000000000000000000000000000000000000000000815260040161154e90613c49565b60405180910390fd5b6000600d60003373ffffffffffffffffffffffffffffffffffffffff1673ffffffffffffffffffffffffffffffffffffffff168152602001908152602001600020547f00000000000000000000000000000000000000000000000000000000000000006115c49190613c69565b90506001600f60003373ffffffffffffffffffffffffffffffffffffffff1673ffffffffffffffffffffffffffffffffffffffff16815260200190815260200160002060006101000a81548160ff02191690831515021790555060003373ffffffffffffffffffffffffffffffffffffffff168260405161164490613a38565b60006040518083038185875af1925050503d8060008114611681576040519150601f19603f3d011682016040523d82523d6000602084013e611686565b606091505b50509050806116ca576040517f08c379a00000000000000000000000000000000000000000000000000000000081526004016116c190613cf7565b60405180910390fd5b3373ffffffffffffffffffffffffffffffffffffffff167f358fe4192934d3bf28ae181feda1f4bd08ca67f5e2fad55582cce5eb67304ae98360405161171091906132b0565b60405180910390a25050565b611727848484610cd7565b61173b611732612014565b8585858561267f565b50505050565b606061174c82611f4f565b506000611757612830565b9050600081511161177757604051806020016040528060008152506117a2565b8061178184612847565b604051602001611792929190613d53565b6040516020818303038152906040525b915050919050565b60606000806000806007600001600760010154600760020154600760030154600760040160009054906101000a900460ff168480546117e8906136f1565b80601f0160208091040260200160405190810160405280929190818152602001828054611814906136f1565b80156118615780601f1061183657610100808354040283529160200191611861565b820191906000526020600020905b81548152906001019060200180831161184457829003601f168201915b50505050509450945094509450945094509091929394565b60008273ffffffffffffffffffffffffffffffffffffffff1661189b8361104b565b73ffffffffffffffffffffffffffffffffffffffff1614905092915050565b6000600560008473ffffffffffffffffffffffffffffffffffffffff1673ffffffffffffffffffffffffffffffffffffffff16815260200190815260200160002060008373ffffffffffffffffffffffffffffffffffffffff1673ffffffffffffffffffffffffffffffffffffffff16815260200190815260200160002060009054906101000a900460ff16905092915050565b600c6020528060005260406000206000915054906101000a900473ffffffffffffffffffffffffffffffffffffffff1681565b600760040160009054906101000a900460ff16156119d4576040517f08c379a00000000000000000000000000000000000000000000000000000000081526004016119cb9061376e565b60405180910390fd5b6007600101544210611a1b576040517f08c379a0000000000000000000000000000000000000000000000000000000008152600401611a1290613dc3565b60405180910390fd5b60076002015460076003015410611a67576040517f08c379a0000000000000000000000000000000000000000000000000000000008152600401611a5e90613e2f565b60405180910390fd5b7f0000000000000000000000000000000000000000000000000000000000000000341015611aca576040517f08c379a0000000000000000000000000000000000000000000000000000000008152600401611ac190613e9b565b60405180910390fd5b601154600d60003373ffffffffffffffffffffffffffffffffffffffff1673ffffffffffffffffffffffffffffffffffffffff1681526020019081526020016000205410611b4d576040517f08c379a0000000000000000000000000000000000000000000000000000000008152600401611b4490613f07565b60405180910390fd5b6000601054905033600c600083815260200190815260200160002060006101000a81548173ffffffffffffffffffffffffffffffffffffffff021916908373ffffffffffffffffffffffffffffffffffffffff160217905550611bb03382612915565b60106000815480929190611bc39061367a565b919050555060076003016000815480929190611bde9061367a565b9190505550600d60003373ffffffffffffffffffffffffffffffffffffffff1673ffffffffffffffffffffffffffffffffffffffff1681526020019081526020016000206000815480929190611c339061367a565b919050555050565b6007806000018054611c4c906136f1565b80601f0160208091040260200160405190810160405280929190818152602001828054611c78906136f1565b8015611cc55780601f10611c9a57610100808354040283529160200191611cc5565b820191906000526020600020905b815481529060010190602001808311611ca857829003601f168201915b5050505050908060010154908060020154908060030154908060040160009054906101000a900460ff16905085565b611cfc61202e565b600073ffffffffffffffffffffffffffffffffffffffff168173ffffffffffffffffffffffffffffffffffffffff1603611d6e5760006040517f1e4fbdf7000000000000000000000000000000000000000000000000000000008152600401611d659190613246565b60405180910390fd5b611d778161244a565b50565b611d8261202e565b600760040160009054906101000a900460ff1615611dd5576040517f08c379a0000000000000000000000000000000000000000000000000000000008152600401611dcc90613f73565b60405180910390fd5b6007600101544210611e1c576040517f08c379a0000000000000000000000000000000000000000000000000000000008152600401611e1390613dc3565b60405180910390fd5b6001600760040160006101000a81548160ff0219169083151502179055507fceaf11772900fe569752a0207c8639fb8228eb8663456dc9eaa3a08f927a870542604051611e6991906132b0565b60405180910390a1565b6000611e7e826120b5565b611ebd576040517f08c379a0000000000000000000000000000000000000000000000000000000008152600401611eb4906137da565b60405180910390fd5b600e600083815260200190815260200160002060009054906101000a900460ff169050919050565b60007f01ffc9a7000000000000000000000000000000000000000000000000000000007bffffffffffffffffffffffffffffffffffffffffffffffffffffffff1916827bffffffffffffffffffffffffffffffffffffffffffffffffffffffff1916149050919050565b600080611f5b83612a0e565b9050600073ffffffffffffffffffffffffffffffffffffffff168173ffffffffffffffffffffffffffffffffffffffff1603611fce57826040517f7e273289000000000000000000000000000000000000000000000000000000008152600401611fc591906132b0565b60405180910390fd5b80915050919050565b60006004600083815260200190815260200160002060009054906101000a900473ffffffffffffffffffffffffffffffffffffffff169050919050565b600033905090565b6120298383836001612a4b565b505050565b612036612014565b73ffffffffffffffffffffffffffffffffffffffff16612054611324565b73ffffffffffffffffffffffffffffffffffffffff16146120b357612077612014565b6040517f118cdaa70000000000000000000000000000000000000000000000000000000081526004016120aa9190613246565b60405180910390fd5b565b600060105482109050919050565b6000806120cf84612a0e565b9050600073ffffffffffffffffffffffffffffffffffffffff168373ffffffffffffffffffffffffffffffffffffffff161461211157612110818486612c10565b5b600073ffffffffffffffffffffffffffffffffffffffff168173ffffffffffffffffffffffffffffffffffffffff16146121a257612153600085600080612a4b565b6001600360008373ffffffffffffffffffffffffffffffffffffffff1673ffffffffffffffffffffffffffffffffffffffff168152602001908152602001600020600082825403925050819055505b600073ffffffffffffffffffffffffffffffffffffffff168573ffffffffffffffffffffffffffffffffffffffff1614612225576001600360008773ffffffffffffffffffffffffffffffffffffffff1673ffffffffffffffffffffffffffffffffffffffff168152602001908152602001600020600082825401925050819055505b846002600086815260200190815260200160002060006101000a81548173ffffffffffffffffffffffffffffffffffffffff021916908373ffffffffffffffffffffffffffffffffffffffff160217905550838573ffffffffffffffffffffffffffffffffffffffff168273ffffffffffffffffffffffffffffffffffffffff167fddf252ad1be2c89b69c2b068fc378daa952ba7f163c4a11628f55a4df523b3ef60405160405180910390a4809150509392505050565b600073ffffffffffffffffffffffffffffffffffffffff168273ffffffffffffffffffffffffffffffffffffffff160361234f5760006040517f64a0ae920000000000000000000000000000000000000000000000000000000081526004016123469190613246565b60405180910390fd5b600061235d838360006120c3565b9050600073ffffffffffffffffffffffffffffffffffffffff168173ffffffffffffffffffffffffffffffffffffffff16036123d057816040517f7e2732890000000000000000000000000000000000000000000000000000000081526004016123c791906132b0565b60405180910390fd5b8373ffffffffffffffffffffffffffffffffffffffff168173ffffffffffffffffffffffffffffffffffffffff1614612444578382826040517f64283d7b00000000000000000000000000000000000000000000000000000000815260040161243b93929190613866565b60405180910390fd5b50505050565b6000600660009054906101000a900473ffffffffffffffffffffffffffffffffffffffff16905081600660006101000a81548173ffffffffffffffffffffffffffffffffffffffff021916908373ffffffffffffffffffffffffffffffffffffffff1602179055508173ffffffffffffffffffffffffffffffffffffffff168173ffffffffffffffffffffffffffffffffffffffff167f8be0079c531659141344cd1fd0a4f28419497f9722a3daafe3b4186f6b6457e060405160405180910390a35050565b600073ffffffffffffffffffffffffffffffffffffffff168273ffffffffffffffffffffffffffffffffffffffff160361258157816040517f5b08ba180000000000000000000000000000000000000000000000000000000081526004016125789190613246565b60405180910390fd5b80600560008573ffffffffffffffffffffffffffffffffffffffff1673ffffffffffffffffffffffffffffffffffffffff16815260200190815260200160002060008473ffffffffffffffffffffffffffffffffffffffff1673ffffffffffffffffffffffffffffffffffffffff16815260200190815260200160002060006101000a81548160ff0219169083151502179055508173ffffffffffffffffffffffffffffffffffffffff168373ffffffffffffffffffffffffffffffffffffffff167f17307eab39ab6107e8899845ad3d59bd9653f200f220920489ca2b5937696c31836040516126729190612f9c565b60405180910390a3505050565b60008373ffffffffffffffffffffffffffffffffffffffff163b1115612829578273ffffffffffffffffffffffffffffffffffffffff1663150b7a02868685856040518563ffffffff1660e01b81526004016126de9493929190613fe8565b6020604051808303816000875af192505050801561271a57506040513d601f19601f820116820180604052508101906127179190614049565b60015b61279e573d806000811461274a576040519150601f19603f3d011682016040523d82523d6000602084013e61274f565b606091505b50600081510361279657836040517f64a0ae9200000000000000000000000000000000000000000000000000000000815260040161278d9190613246565b60405180910390fd5b805181602001fd5b63150b7a0260e01b7bffffffffffffffffffffffffffffffffffffffffffffffffffffffff1916817bffffffffffffffffffffffffffffffffffffffffffffffffffffffff19161461282757836040517f64a0ae9200000000000000000000000000000000000000000000000000000000815260040161281e9190613246565b60405180910390fd5b505b5050505050565b606060405180602001604052806000815250905090565b60606000600161285684612cd4565b01905060008167ffffffffffffffff811115612875576128746133d4565b5b6040519080825280601f01601f1916602001820160405280156128a75781602001600182028036833780820191505090505b509050600082602001820190505b60011561290a578080600190039150507f3031323334353637383961626364656600000000000000000000000000000000600a86061a8153600a85816128fe576128fd614076565b5b049450600085036128b5575b819350505050919050565b600073ffffffffffffffffffffffffffffffffffffffff168273ffffffffffffffffffffffffffffffffffffffff16036129875760006040517f64a0ae9200000000000000000000000000000000000000000000000000000000815260040161297e9190613246565b60405180910390fd5b6000612995838360006120c3565b9050600073ffffffffffffffffffffffffffffffffffffffff168173ffffffffffffffffffffffffffffffffffffffff1614612a095760006040517f73c6ac6e000000000000000000000000000000000000000000000000000000008152600401612a009190613246565b60405180910390fd5b505050565b60006002600083815260200190815260200160002060009054906101000a900473ffffffffffffffffffffffffffffffffffffffff169050919050565b8080612a845750600073ffffffffffffffffffffffffffffffffffffffff168273ffffffffffffffffffffffffffffffffffffffff1614155b15612bb8576000612a9484611f4f565b9050600073ffffffffffffffffffffffffffffffffffffffff168373ffffffffffffffffffffffffffffffffffffffff1614158015612aff57508273ffffffffffffffffffffffffffffffffffffffff168173ffffffffffffffffffffffffffffffffffffffff1614155b8015612b125750612b1081846118ba565b155b15612b5457826040517fa9fbf51f000000000000000000000000000000000000000000000000000000008152600401612b4b9190613246565b60405180910390fd5b8115612bb657838573ffffffffffffffffffffffffffffffffffffffff168273ffffffffffffffffffffffffffffffffffffffff167f8c5be1e5ebec7d5bd14f71427d1e84f3dd0314c0f7b2291e5b200ac8c7c3b92560405160405180910390a45b505b836004600085815260200190815260200160002060006101000a81548173ffffffffffffffffffffffffffffffffffffffff021916908373ffffffffffffffffffffffffffffffffffffffff16021790555050505050565b612c1b838383612e27565b612ccf57600073ffffffffffffffffffffffffffffffffffffffff168373ffffffffffffffffffffffffffffffffffffffff1603612c9057806040517f7e273289000000000000000000000000000000000000000000000000000000008152600401612c8791906132b0565b60405180910390fd5b81816040517f177e802f000000000000000000000000000000000000000000000000000000008152600401612cc69291906140a5565b60405180910390fd5b505050565b600080600090507a184f03e93ff9f4daa797ed6e38ed64bf6a1f0100000000000000008310612d32577a184f03e93ff9f4daa797ed6e38ed64bf6a1f0100000000000000008381612d2857612d27614076565b5b0492506040810190505b6d04ee2d6d415b85acef81000000008310612d6f576d04ee2d6d415b85acef81000000008381612d6557612d64614076565b5b0492506020810190505b662386f26fc100008310612d9e57662386f26fc100008381612d9457612d93614076565b5b0492506010810190505b6305f5e1008310612dc7576305f5e1008381612dbd57612dbc614076565b5b0492506008810190505b6127108310612dec576127108381612de257612de1614076565b5b0492506004810190505b60648310612e0f5760648381612e0557612e04614076565b5b0492506002810190505b600a8310612e1e576001810190505b80915050919050565b60008073ffffffffffffffffffffffffffffffffffffffff168373ffffffffffffffffffffffffffffffffffffffff1614158015612edf57508273ffffffffffffffffffffffffffffffffffffffff168473ffffffffffffffffffffffffffffffffffffffff161480612ea05750612e9f84846118ba565b5b80612ede57508273ffffffffffffffffffffffffffffffffffffffff16612ec683611fd7565b73ffffffffffffffffffffffffffffffffffffffff16145b5b90509392505050565b6000604051905090565b600080fd5b600080fd5b60007fffffffff0000000000000000000000000000000000000000000000000000000082169050919050565b612f3181612efc565b8114612f3c57600080fd5b50565b600081359050612f4e81612f28565b92915050565b600060208284031215612f6a57612f69612ef2565b5b6000612f7884828501612f3f565b91505092915050565b60008115159050919050565b612f9681612f81565b82525050565b6000602082019050612fb16000830184612f8d565b92915050565b600073ffffffffffffffffffffffffffffffffffffffff82169050919050565b6000612fe282612fb7565b9050919050565b612ff281612fd7565b8114612ffd57600080fd5b50565b60008135905061300f81612fe9565b92915050565b60006020828403121561302b5761302a612ef2565b5b600061303984828501613000565b91505092915050565b600081519050919050565b600082825260208201905092915050565b6000819050602082019050919050565b6000819050919050565b6130818161306e565b82525050565b60006130938383613078565b60208301905092915050565b6000602082019050919050565b60006130b782613042565b6130c1818561304d565b93506130cc8361305e565b8060005b838110156130fd5781516130e48882613087565b97506130ef8361309f565b9250506001810190506130d0565b5085935050505092915050565b6000602082019050818103600083015261312481846130ac565b905092915050565b600081519050919050565b600082825260208201905092915050565b60005b8381101561316657808201518184015260208101905061314b565b60008484015250505050565b6000601f19601f8301169050919050565b600061318e8261312c565b6131988185613137565b93506131a8818560208601613148565b6131b181613172565b840191505092915050565b600060208201905081810360008301526131d68184613183565b905092915050565b6131e78161306e565b81146131f257600080fd5b50565b600081359050613204816131de565b92915050565b6000602082840312156132205761321f612ef2565b5b600061322e848285016131f5565b91505092915050565b61324081612fd7565b82525050565b600060208201905061325b6000830184613237565b92915050565b6000806040838503121561327857613277612ef2565b5b600061328685828601613000565b9250506020613297858286016131f5565b9150509250929050565b6132aa8161306e565b82525050565b60006020820190506132c560008301846132a1565b92915050565b6000806000606084860312156132e4576132e3612ef2565b5b60006132f286828701613000565b935050602061330386828701613000565b9250506040613314868287016131f5565b9150509250925092565b6000806040838503121561333557613334612ef2565b5b6000613343858286016131f5565b925050602061335485828601613000565b9150509250929050565b61336781612f81565b811461337257600080fd5b50565b6000813590506133848161335e565b92915050565b600080604083850312156133a1576133a0612ef2565b5b60006133af85828601613000565b92505060206133c085828601613375565b9150509250929050565b600080fd5b600080fd5b7f4e487b7100000000000000000000000000000000000000000000000000000000600052604160045260246000fd5b61340c82613172565b810181811067ffffffffffffffff8211171561342b5761342a6133d4565b5b80604052505050565b600061343e612ee8565b905061344a8282613403565b919050565b600067ffffffffffffffff82111561346a576134696133d4565b5b61347382613172565b9050602081019050919050565b82818337600083830152505050565b60006134a261349d8461344f565b613434565b9050828152602081018484840111156134be576134bd6133cf565b5b6134c9848285613480565b509392505050565b600082601f8301126134e6576134e56133ca565b5b81356134f684826020860161348f565b91505092915050565b6000806000806080858703121561351957613518612ef2565b5b600061352787828801613000565b945050602061353887828801613000565b9350506040613549878288016131f5565b925050606085013567ffffffffffffffff81111561356a57613569612ef7565b5b613576878288016134d1565b91505092959194509250565b600060a082019050818103600083015261359c8188613183565b90506135ab60208301876132a1565b6135b860408301866132a1565b6135c560608301856132a1565b6135d26080830184612f8d565b9695505050505050565b600080604083850312156135f3576135f2612ef2565b5b600061360185828601613000565b925050602061361285828601613000565b9150509250929050565b7f4e487b7100000000000000000000000000000000000000000000000000000000600052603260045260246000fd5b7f4e487b7100000000000000000000000000000000000000000000000000000000600052601160045260246000fd5b60006136858261306e565b91507fffffffffffffffffffffffffffffffffffffffffffffffffffffffffffffffff82036136b7576136b661364b565b5b600182019050919050565b7f4e487b7100000000000000000000000000000000000000000000000000000000600052602260045260246000fd5b6000600282049050600182168061370957607f821691505b60208210810361371c5761371b6136c2565b5b50919050565b7f4576656e7420686173206265656e2063616e63656c6564000000000000000000600082015250565b6000613758601783613137565b915061376382613722565b602082019050919050565b600060208201905081810360008301526137878161374b565b9050919050565b7f5469636b657420646f6573206e6f742065786973740000000000000000000000600082015250565b60006137c4601583613137565b91506137cf8261378e565b602082019050919050565b600060208201905081810360008301526137f3816137b7565b9050919050565b7f5469636b65742068617320616c7265616479206265656e207573656400000000600082015250565b6000613830601c83613137565b915061383b826137fa565b602082019050919050565b6000602082019050818103600083015261385f81613823565b9050919050565b600060608201905061387b6000830186613237565b61388860208301856132a1565b6138956040830184613237565b949350505050565b7f43616e6e6f742077697468647261772066726f6d2063616e63656c656420657660008201527f656e740000000000000000000000000000000000000000000000000000000000602082015250565b60006138f9602383613137565b91506139048261389d565b604082019050919050565b60006020820190508181036000830152613928816138ec565b9050919050565b7f43616e6e6f74207769746864726177206265666f7265206576656e7400000000600082015250565b6000613965601c83613137565b91506139708261392f565b602082019050919050565b6000602082019050818103600083015261399481613958565b9050919050565b7f4e6f2066756e647320746f207769746864726177000000000000000000000000600082015250565b60006139d1601483613137565b91506139dc8261399b565b602082019050919050565b60006020820190508181036000830152613a00816139c4565b9050919050565b600081905092915050565b50565b6000613a22600083613a07565b9150613a2d82613a12565b600082019050919050565b6000613a4382613a15565b9150819050919050565b7f5769746864726177616c206661696c6564000000000000000000000000000000600082015250565b6000613a83601183613137565b9150613a8e82613a4d565b602082019050919050565b60006020820190508181036000830152613ab281613a76565b9050919050565b7f596f7520646f206e6f74206f776e2074686973207469636b6574000000000000600082015250565b6000613aef601a83613137565b9150613afa82613ab9565b602082019050919050565b60006020820190508181036000830152613b1e81613ae2565b9050919050565b7f4576656e74206973206e6f742063616e63656c65640000000000000000000000600082015250565b6000613b5b601583613137565b9150613b6682613b25565b602082019050919050565b60006020820190508181036000830152613b8a81613b4e565b9050919050565b7f416c726561647920636c61696d656420726566756e6400000000000000000000600082015250565b6000613bc7601683613137565b9150613bd282613b91565b602082019050919050565b60006020820190508181036000830152613bf681613bba565b9050919050565b7f4e6f207469636b65747320746f20726566756e64000000000000000000000000600082015250565b6000613c33601483613137565b9150613c3e82613bfd565b602082019050919050565b60006020820190508181036000830152613c6281613c26565b9050919050565b6000613c748261306e565b9150613c7f8361306e565b9250828202613c8d8161306e565b91508282048414831517613ca457613ca361364b565b5b5092915050565b7f526566756e64207472616e73666572206661696c656400000000000000000000600082015250565b6000613ce1601683613137565b9150613cec82613cab565b602082019050919050565b60006020820190508181036000830152613d1081613cd4565b9050919050565b600081905092915050565b6000613d2d8261312c565b613d378185613d17565b9350613d47818560208601613148565b80840191505092915050565b6000613d5f8285613d22565b9150613d6b8284613d22565b91508190509392505050565b7f4576656e742068617320616c7265616479206f63637572726564000000000000600082015250565b6000613dad601a83613137565b9150613db882613d77565b602082019050919050565b60006020820190508181036000830152613ddc81613da0565b9050919050565b7f416c6c207469636b65747320736f6c6400000000000000000000000000000000600082015250565b6000613e19601083613137565b9150613e2482613de3565b602082019050919050565b60006020820190508181036000830152613e4881613e0c565b9050919050565b7f496e73756666696369656e74207061796d656e74000000000000000000000000600082015250565b6000613e85601483613137565b9150613e9082613e4f565b602082019050919050565b60006020820190508181036000830152613eb481613e78565b9050919050565b7f5469636b6574207075726368617365206c696d69742072656163686564000000600082015250565b6000613ef1601d83613137565b9150613efc82613ebb565b602082019050919050565b60006020820190508181036000830152613f2081613ee4565b9050919050565b7f4576656e7420697320616c72656164792063616e63656c656400000000000000600082015250565b6000613f5d601983613137565b9150613f6882613f27565b602082019050919050565b60006020820190508181036000830152613f8c81613f50565b9050919050565b600081519050919050565b600082825260208201905092915050565b6000613fba82613f93565b613fc48185613f9e565b9350613fd4818560208601613148565b613fdd81613172565b840191505092915050565b6000608082019050613ffd6000830187613237565b61400a6020830186613237565b61401760408301856132a1565b81810360608301526140298184613faf565b905095945050505050565b60008151905061404381612f28565b92915050565b60006020828403121561405f5761405e612ef2565b5b600061406d84828501614034565b91505092915050565b7f4e487b7100000000000000000000000000000000000000000000000000000000600052601260045260246000fd5b60006040820190506140ba6000830185613237565b6140c760208301846132a1565b939250505056fea264697066735822122006238102db4f6b1d3d4777c71fc401807df5981b14653d3ec047ae520efb505d64736f6c634300081c0033",
  "linkReferences": {},
  "deployedLinkReferences": {}
}